{
  "contractName": "FundraiserFactory",
  "abi": [
    {
      "anonymous": false,
      "inputs": [
        {
          "indexed": true,
          "internalType": "contract Fundraiser",
          "name": "fundraiser",
          "type": "address"
        },
        {
          "indexed": true,
          "internalType": "address",
          "name": "owner",
          "type": "address"
        }
      ],
      "name": "FundraiserCreated",
      "type": "event"
    },
    {
      "inputs": [
        {
          "internalType": "string",
          "name": "name",
          "type": "string"
        },
        {
          "internalType": "string",
          "name": "imageURL",
          "type": "string"
        },
        {
          "internalType": "string",
          "name": "description",
          "type": "string"
        },
        {
          "internalType": "uint256",
          "name": "targetToAchieve",
          "type": "uint256"
        },
        {
          "internalType": "address payable",
          "name": "beneficiary",
          "type": "address"
        }
      ],
      "name": "createFundraiser",
      "outputs": [],
      "stateMutability": "nonpayable",
      "type": "function"
    },
    {
      "inputs": [],
      "name": "fundraisersCount",
      "outputs": [
        {
          "internalType": "uint256",
          "name": "",
          "type": "uint256"
        }
      ],
      "stateMutability": "view",
      "type": "function"
    },
    {
      "inputs": [
        {
          "internalType": "uint256",
          "name": "limit",
          "type": "uint256"
        },
        {
          "internalType": "uint256",
          "name": "offset",
          "type": "uint256"
        }
      ],
      "name": "fundraisers",
      "outputs": [
        {
          "internalType": "contract Fundraiser[]",
          "name": "coll",
          "type": "address[]"
        }
      ],
      "stateMutability": "view",
      "type": "function"
    }
  ],
  "bytecode": "0x608060405234801561001057600080fd5b5061366d806100206000396000f3fe60806040523480156200001157600080fd5b5060043610620000465760003560e01c8063704914f8146200004b57806375c1399414620000815780639d3b435514620000a1575b600080fd5b62000069600480360381019062000063919062000465565b620000c3565b604051620000789190620005f4565b60405180910390f35b6200009f6004803603810190620000999190620007bf565b6200026f565b005b620000ab620003fc565b604051620000ba9190620008b5565b60405180910390f35b6060620000cf620003fc565b82111562000114576040517f08c379a00000000000000000000000000000000000000000000000000000000081526004016200010b9062000933565b60405180910390fd5b60008262000121620003fc565b6200012d919062000984565b90508381106200013e578362000140565b805b9050601481106200015357601462000155565b805b90508067ffffffffffffffff81111562000174576200017362000633565b5b604051908082528060200260200182016040528015620001a35781602001602082028036833780820191505090505b50915060005b81811015620002675760008185620001c29190620009bf565b81548110620001d657620001d562000a1c565b5b9060005260206000200160009054906101000a900473ffffffffffffffffffffffffffffffffffffffff1683828151811062000217576200021662000a1c565b5b602002602001019073ffffffffffffffffffffffffffffffffffffffff16908173ffffffffffffffffffffffffffffffffffffffff168152505080806200025e9062000a4b565b915050620001a9565b505092915050565b6000858585858533604051620002859062000408565b620002969695949392919062000b65565b604051809103906000f080158015620002b3573d6000803e3d6000fd5b5090506000819080600181540180825580915050600190039060005260206000200160009091909190916101000a81548173ffffffffffffffffffffffffffffffffffffffff021916908373ffffffffffffffffffffffffffffffffffffffff1602179055508073ffffffffffffffffffffffffffffffffffffffff16638da5cb5b6040518163ffffffff1660e01b815260040160206040518083038186803b1580156200036057600080fd5b505afa15801562000375573d6000803e3d6000fd5b505050506040513d601f19601f820116820180604052508101906200039b919062000c2c565b73ffffffffffffffffffffffffffffffffffffffff168173ffffffffffffffffffffffffffffffffffffffff167fa2398daac0c8053a1e3c0280916c2ec6bc884f0959c27e639a4db829b7eabfb160405160405180910390a3505050505050565b60008080549050905090565b6129d98062000c5f83390190565b6000604051905090565b600080fd5b600080fd5b6000819050919050565b6200043f816200042a565b81146200044b57600080fd5b50565b6000813590506200045f8162000434565b92915050565b600080604083850312156200047f576200047e62000420565b5b60006200048f858286016200044e565b9250506020620004a2858286016200044e565b9150509250929050565b600081519050919050565b600082825260208201905092915050565b6000819050602082019050919050565b600073ffffffffffffffffffffffffffffffffffffffff82169050919050565b6000819050919050565b6000620005236200051d6200051784620004d8565b620004f8565b620004d8565b9050919050565b6000620005378262000502565b9050919050565b60006200054b826200052a565b9050919050565b6200055d816200053e565b82525050565b600062000571838362000552565b60208301905092915050565b6000602082019050919050565b60006200059782620004ac565b620005a38185620004b7565b9350620005b083620004c8565b8060005b83811015620005e7578151620005cb888262000563565b9750620005d8836200057d565b925050600181019050620005b4565b5085935050505092915050565b600060208201905081810360008301526200061081846200058a565b905092915050565b600080fd5b600080fd5b6000601f19601f8301169050919050565b7f4e487b7100000000000000000000000000000000000000000000000000000000600052604160045260246000fd5b6200066d8262000622565b810181811067ffffffffffffffff821117156200068f576200068e62000633565b5b80604052505050565b6000620006a462000416565b9050620006b2828262000662565b919050565b600067ffffffffffffffff821115620006d557620006d462000633565b5b620006e08262000622565b9050602081019050919050565b82818337600083830152505050565b6000620007136200070d84620006b7565b62000698565b9050828152602081018484840111156200073257620007316200061d565b5b6200073f848285620006ed565b509392505050565b600082601f8301126200075f576200075e62000618565b5b813562000771848260208601620006fc565b91505092915050565b60006200078782620004d8565b9050919050565b62000799816200077a565b8114620007a557600080fd5b50565b600081359050620007b9816200078e565b92915050565b600080600080600060a08688031215620007de57620007dd62000420565b5b600086013567ffffffffffffffff811115620007ff57620007fe62000425565b5b6200080d8882890162000747565b955050602086013567ffffffffffffffff81111562000831576200083062000425565b5b6200083f8882890162000747565b945050604086013567ffffffffffffffff81111562000863576200086262000425565b5b620008718882890162000747565b935050606062000884888289016200044e565b92505060806200089788828901620007a8565b9150509295509295909350565b620008af816200042a565b82525050565b6000602082019050620008cc6000830184620008a4565b92915050565b600082825260208201905092915050565b7f6f6666736574206f7574206f6620626f756e6473000000000000000000000000600082015250565b60006200091b601483620008d2565b91506200092882620008e3565b602082019050919050565b600060208201905081810360008301526200094e816200090c565b9050919050565b7f4e487b7100000000000000000000000000000000000000000000000000000000600052601160045260246000fd5b600062000991826200042a565b91506200099e836200042a565b925082821015620009b457620009b362000955565b5b828203905092915050565b6000620009cc826200042a565b9150620009d9836200042a565b9250827fffffffffffffffffffffffffffffffffffffffffffffffffffffffffffffffff0382111562000a115762000a1062000955565b5b828201905092915050565b7f4e487b7100000000000000000000000000000000000000000000000000000000600052603260045260246000fd5b600062000a58826200042a565b91507fffffffffffffffffffffffffffffffffffffffffffffffffffffffffffffffff82141562000a8e5762000a8d62000955565b5b600182019050919050565b600081519050919050565b60005b8381101562000ac457808201518184015260208101905062000aa7565b8381111562000ad4576000848401525b50505050565b600062000ae78262000a99565b62000af38185620008d2565b935062000b0581856020860162000aa4565b62000b108162000622565b840191505092915050565b600062000b288262000502565b9050919050565b600062000b3c8262000b1b565b9050919050565b62000b4e8162000b2f565b82525050565b62000b5f816200077a565b82525050565b600060c082019050818103600083015262000b81818962000ada565b9050818103602083015262000b97818862000ada565b9050818103604083015262000bad818762000ada565b905062000bbe6060830186620008a4565b62000bcd608083018562000b43565b62000bdc60a083018462000b54565b979650505050505050565b600062000bf482620004d8565b9050919050565b62000c068162000be7565b811462000c1257600080fd5b50565b60008151905062000c268162000bfb565b92915050565b60006020828403121562000c455762000c4462000420565b5b600062000c558482850162000c15565b9150509291505056fe60806040523480156200001157600080fd5b50604051620029d9380380620029d9833981810160405281019062000037919062000644565b620000576200004b6200010760201b60201c565b6200010f60201b60201c565b85600390805190602001906200006f92919062000312565b5084600490805190602001906200008892919062000312565b508360059080519060200190620000a192919062000312565b5080600660006101000a81548173ffffffffffffffffffffffffffffffffffffffff021916908373ffffffffffffffffffffffffffffffffffffffff16021790555082600a81905550620000fb82620001d360201b60201c565b505050505050620008bd565b600033905090565b60008060009054906101000a900473ffffffffffffffffffffffffffffffffffffffff169050816000806101000a81548173ffffffffffffffffffffffffffffffffffffffff021916908373ffffffffffffffffffffffffffffffffffffffff1602179055508173ffffffffffffffffffffffffffffffffffffffff168173ffffffffffffffffffffffffffffffffffffffff167f8be0079c531659141344cd1fd0a4f28419497f9722a3daafe3b4186f6b6457e060405160405180910390a35050565b620001e36200010760201b60201c565b73ffffffffffffffffffffffffffffffffffffffff1662000209620002e960201b60201c565b73ffffffffffffffffffffffffffffffffffffffff161462000262576040517f08c379a000000000000000000000000000000000000000000000000000000000815260040162000259906200079e565b60405180910390fd5b600073ffffffffffffffffffffffffffffffffffffffff168173ffffffffffffffffffffffffffffffffffffffff161415620002d5576040517f08c379a0000000000000000000000000000000000000000000000000000000008152600401620002cc9062000836565b60405180910390fd5b620002e6816200010f60201b60201c565b50565b60008060009054906101000a900473ffffffffffffffffffffffffffffffffffffffff16905090565b828054620003209062000887565b90600052602060002090601f01602090048101928262000344576000855562000390565b82601f106200035f57805160ff191683800117855562000390565b8280016001018555821562000390579182015b828111156200038f57825182559160200191906001019062000372565b5b5090506200039f9190620003a3565b5090565b5b80821115620003be576000816000905550600101620003a4565b5090565b6000604051905090565b600080fd5b600080fd5b600080fd5b600080fd5b6000601f19601f8301169050919050565b7f4e487b7100000000000000000000000000000000000000000000000000000000600052604160045260246000fd5b6200042b82620003e0565b810181811067ffffffffffffffff821117156200044d576200044c620003f1565b5b80604052505050565b600062000462620003c2565b905062000470828262000420565b919050565b600067ffffffffffffffff821115620004935762000492620003f1565b5b6200049e82620003e0565b9050602081019050919050565b60005b83811015620004cb578082015181840152602081019050620004ae565b83811115620004db576000848401525b50505050565b6000620004f8620004f28462000475565b62000456565b905082815260208101848484011115620005175762000516620003db565b5b62000524848285620004ab565b509392505050565b600082601f830112620005445762000543620003d6565b5b815162000556848260208601620004e1565b91505092915050565b6000819050919050565b62000574816200055f565b81146200058057600080fd5b50565b600081519050620005948162000569565b92915050565b600073ffffffffffffffffffffffffffffffffffffffff82169050919050565b6000620005c7826200059a565b9050919050565b620005d981620005ba565b8114620005e557600080fd5b50565b600081519050620005f981620005ce565b92915050565b60006200060c826200059a565b9050919050565b6200061e81620005ff565b81146200062a57600080fd5b50565b6000815190506200063e8162000613565b92915050565b60008060008060008060c08789031215620006645762000663620003cc565b5b600087015167ffffffffffffffff811115620006855762000684620003d1565b5b6200069389828a016200052c565b965050602087015167ffffffffffffffff811115620006b757620006b6620003d1565b5b620006c589828a016200052c565b955050604087015167ffffffffffffffff811115620006e957620006e8620003d1565b5b620006f789828a016200052c565b94505060606200070a89828a0162000583565b93505060806200071d89828a01620005e8565b92505060a06200073089828a016200062d565b9150509295509295509295565b600082825260208201905092915050565b7f4f776e61626c653a2063616c6c6572206973206e6f7420746865206f776e6572600082015250565b6000620007866020836200073d565b915062000793826200074e565b602082019050919050565b60006020820190508181036000830152620007b98162000777565b9050919050565b7f4f776e61626c653a206e6577206f776e657220697320746865207a65726f206160008201527f6464726573730000000000000000000000000000000000000000000000000000602082015250565b60006200081e6026836200073d565b91506200082b82620007c0565b604082019050919050565b6000602082019050818103600083015262000851816200080f565b9050919050565b7f4e487b7100000000000000000000000000000000000000000000000000000000600052602260045260246000fd5b60006002820490506001821680620008a057607f821691505b60208210811415620008b757620008b662000858565b5b50919050565b61210c80620008cd6000396000f3fe6080604052600436106101855760003560e01c8063715018a6116100d1578063937e09b11161008a578063d7d1bbdb11610064578063d7d1bbdb14610582578063de2ed893146105ab578063ed88c68e146105d6578063f2fde38b146105e0576101bf565b8063937e09b114610501578063b2a87fc31461052c578063b90497e014610557576101bf565b8063715018a6146103fe5780637284e4161461041557806381d12c581461044057806382fde093146104825780638a9cfd55146104ad5780638da5cb5b146104d6576101bf565b80631f5225951161013e5780632d7788db116101185780632d7788db146103685780633410452a1461039157806338af3eed146103bc5780633ccfd60b146103e7576101bf565b80631f522595146102d55780631fbed5791461030057806322c8077f1461033d576101bf565b80630180b97c146101c457806303441006146101ef57806306fdde03146102185780630a144391146102435780631a57f7b4146102805780631c31f710146102ac576101bf565b366101bf5761019f3460075461060990919063ffffffff16565b600781905550600860008154809291906101b890611876565b9190505550005b600080fd5b3480156101d057600080fd5b506101d961061f565b6040516101e691906118ce565b60405180910390f35b3480156101fb57600080fd5b5061021660048036038101906102119190611929565b610669565b005b34801561022457600080fd5b5061022d610853565b60405161023a91906119ef565b60405180910390f35b34801561024f57600080fd5b5061026a60048036038101906102659190611a6f565b6108e1565b6040516102779190611ab7565b60405180910390f35b34801561028c57600080fd5b50610295610901565b6040516102a3929190611b90565b60405180910390f35b3480156102b857600080fd5b506102d360048036038101906102ce9190611c05565b610a76565b005b3480156102e157600080fd5b506102ea610b36565b6040516102f791906118ce565b60405180910390f35b34801561030c57600080fd5b5061032760048036038101906103229190611929565b610b3c565b6040516103349190611c41565b60405180910390f35b34801561034957600080fd5b50610352610b7b565b60405161035f9190611ab7565b60405180910390f35b34801561037457600080fd5b5061038f600480360381019061038a9190611929565b610bcf565b005b34801561039d57600080fd5b506103a6610d58565b6040516103b391906118ce565b60405180910390f35b3480156103c857600080fd5b506103d1610d65565b6040516103de9190611c6b565b60405180910390f35b3480156103f357600080fd5b506103fc610d8b565b005b34801561040a57600080fd5b50610413610eb7565b005b34801561042157600080fd5b5061042a610f3f565b60405161043791906119ef565b60405180910390f35b34801561044c57600080fd5b5061046760048036038101906104629190611929565b610fcd565b60405161047996959493929190611c86565b60405180910390f35b34801561048e57600080fd5b506104976110ce565b6040516104a491906118ce565b60405180910390f35b3480156104b957600080fd5b506104d460048036038101906104cf9190611e23565b6110d4565b005b3480156104e257600080fd5b506104eb611210565b6040516104f89190611c41565b60405180910390f35b34801561050d57600080fd5b50610516611239565b60405161052391906118ce565b60405180910390f35b34801561053857600080fd5b5061054161123f565b60405161054e91906118ce565b60405180910390f35b34801561056357600080fd5b5061056c611245565b60405161057991906119ef565b60405180910390f35b34801561058e57600080fd5b506105a960048036038101906105a49190611929565b6112d3565b005b3480156105b757600080fd5b506105c061145c565b6040516105cd91906118ce565b60405180910390f35b6105de611462565b005b3480156105ec57600080fd5b5061060760048036038101906106029190611a6f565b6115d6565b005b600081836106179190611e92565b905092915050565b6000600160003373ffffffffffffffffffffffffffffffffffffffff1673ffffffffffffffffffffffffffffffffffffffff16815260200190815260200160002080549050905090565b6106716116ce565b73ffffffffffffffffffffffffffffffffffffffff1661068f611210565b73ffffffffffffffffffffffffffffffffffffffff16146106e5576040517f08c379a00000000000000000000000000000000000000000000000000000000081526004016106dc90611f34565b60405180910390fd5b6002600d546106f49190611f83565b6002828154811061070857610707611fb4565b5b9060005260206000209060060201600301541161072457600080fd5b6002818154811061073857610737611fb4565b5b906000526020600020906006020160020160149054906101000a900460ff161561076157600080fd5b6002818154811061077557610774611fb4565b5b906000526020600020906006020160020160009054906101000a900473ffffffffffffffffffffffffffffffffffffffff1673ffffffffffffffffffffffffffffffffffffffff166108fc600283815481106107d4576107d3611fb4565b5b9060005260206000209060060201600101549081150290604051600060405180830381858888f19350505050158015610811573d6000803e3d6000fd5b5060016002828154811061082857610827611fb4565b5b906000526020600020906006020160020160146101000a81548160ff02191690831515021790555050565b6003805461086090612012565b80601f016020809104026020016040519081016040528092919081815260200182805461088c90612012565b80156108d95780601f106108ae576101008083540402835291602001916108d9565b820191906000526020600020905b8154815290600101906020018083116108bc57829003601f168201915b505050505081565b600c6020528060005260406000206000915054906101000a900460ff1681565b606080600061090e61061f565b90508067ffffffffffffffff81111561092a57610929611cf8565b5b6040519080825280602002602001820160405280156109585781602001602082028036833780820191505090505b5092508067ffffffffffffffff81111561097557610974611cf8565b5b6040519080825280602002602001820160405280156109a35781602001602082028036833780820191505090505b50915060005b81811015610a70576000600160003373ffffffffffffffffffffffffffffffffffffffff1673ffffffffffffffffffffffffffffffffffffffff1681526020019081526020016000208281548110610a0457610a03611fb4565b5b906000526020600020906002020190508060000154858381518110610a2c57610a2b611fb4565b5b6020026020010181815250508060010154848381518110610a5057610a4f611fb4565b5b602002602001018181525050508080610a6890611876565b9150506109a9565b50509091565b610a7e6116ce565b73ffffffffffffffffffffffffffffffffffffffff16610a9c611210565b73ffffffffffffffffffffffffffffffffffffffff1614610af2576040517f08c379a0000000000000000000000000000000000000000000000000000000008152600401610ae990611f34565b60405180910390fd5b80600660006101000a81548173ffffffffffffffffffffffffffffffffffffffff021916908373ffffffffffffffffffffffffffffffffffffffff16021790555050565b60085481565b600b8181548110610b4c57600080fd5b906000526020600020016000915054906101000a900473ffffffffffffffffffffffffffffffffffffffff1681565b6000600c60003373ffffffffffffffffffffffffffffffffffffffff1673ffffffffffffffffffffffffffffffffffffffff16815260200190815260200160002060009054906101000a900460ff16905090565b600c60003373ffffffffffffffffffffffffffffffffffffffff1673ffffffffffffffffffffffffffffffffffffffff16815260200190815260200160002060009054906101000a900460ff16610c2557600080fd5b60028181548110610c3957610c38611fb4565b5b906000526020600020906006020160050160003373ffffffffffffffffffffffffffffffffffffffff1673ffffffffffffffffffffffffffffffffffffffff16815260200190815260200160002060009054906101000a900460ff1615610c9f57600080fd5b600060028281548110610cb557610cb4611fb4565b5b906000526020600020906006020160050160003373ffffffffffffffffffffffffffffffffffffffff1673ffffffffffffffffffffffffffffffffffffffff16815260200190815260200160002060006101000a81548160ff02191690831515021790555060028181548110610d2e57610d2d611fb4565b5b90600052602060002090600602016004016000815480929190610d5090611876565b919050555050565b6000600280549050905090565b600660009054906101000a900473ffffffffffffffffffffffffffffffffffffffff1681565b610d936116ce565b73ffffffffffffffffffffffffffffffffffffffff16610db1611210565b73ffffffffffffffffffffffffffffffffffffffff1614610e07576040517f08c379a0000000000000000000000000000000000000000000000000000000008152600401610dfe90611f34565b60405180910390fd5b6000479050600660009054906101000a900473ffffffffffffffffffffffffffffffffffffffff1673ffffffffffffffffffffffffffffffffffffffff166108fc829081150290604051600060405180830381858888f19350505050158015610e74573d6000803e3d6000fd5b5060006007819055507f5b6b431d4476a211bb7d41c20d1aab9ae2321deee0d20be3d9fc9b1093fa6e3d81604051610eac91906118ce565b60405180910390a150565b610ebf6116ce565b73ffffffffffffffffffffffffffffffffffffffff16610edd611210565b73ffffffffffffffffffffffffffffffffffffffff1614610f33576040517f08c379a0000000000000000000000000000000000000000000000000000000008152600401610f2a90611f34565b60405180910390fd5b610f3d60006116d6565b565b60058054610f4c90612012565b80601f0160208091040260200160405190810160405280929190818152602001828054610f7890612012565b8015610fc55780601f10610f9a57610100808354040283529160200191610fc5565b820191906000526020600020905b815481529060010190602001808311610fa857829003601f168201915b505050505081565b60028181548110610fdd57600080fd5b906000526020600020906006020160009150905080600001805461100090612012565b80601f016020809104026020016040519081016040528092919081815260200182805461102c90612012565b80156110795780601f1061104e57610100808354040283529160200191611079565b820191906000526020600020905b81548152906001019060200180831161105c57829003601f168201915b5050505050908060010154908060020160009054906101000a900473ffffffffffffffffffffffffffffffffffffffff16908060020160149054906101000a900460ff16908060030154908060040154905086565b600d5481565b6110dc6116ce565b73ffffffffffffffffffffffffffffffffffffffff166110fa611210565b73ffffffffffffffffffffffffffffffffffffffff1614611150576040517f08c379a000000000000000000000000000000000000000000000000000000000815260040161114790611f34565b60405180910390fd5b6000600260018160018154018082558091505003906000526020600020906006020190508381600001908051906020019061118c92919061179a565b50828160010181905550818160020160006101000a81548173ffffffffffffffffffffffffffffffffffffffff021916908373ffffffffffffffffffffffffffffffffffffffff16021790555060008160020160146101000a81548160ff021916908315150217905550600081600301819055506000816004018190555050505050565b60008060009054906101000a900473ffffffffffffffffffffffffffffffffffffffff16905090565b60095481565b600a5481565b6004805461125290612012565b80601f016020809104026020016040519081016040528092919081815260200182805461127e90612012565b80156112cb5780601f106112a0576101008083540402835291602001916112cb565b820191906000526020600020905b8154815290600101906020018083116112ae57829003601f168201915b505050505081565b600c60003373ffffffffffffffffffffffffffffffffffffffff1673ffffffffffffffffffffffffffffffffffffffff16815260200190815260200160002060009054906101000a900460ff1661132957600080fd5b6002818154811061133d5761133c611fb4565b5b906000526020600020906006020160050160003373ffffffffffffffffffffffffffffffffffffffff1673ffffffffffffffffffffffffffffffffffffffff16815260200190815260200160002060009054906101000a900460ff16156113a357600080fd5b6001600282815481106113b9576113b8611fb4565b5b906000526020600020906006020160050160003373ffffffffffffffffffffffffffffffffffffffff1673ffffffffffffffffffffffffffffffffffffffff16815260200190815260200160002060006101000a81548160ff0219169083151502179055506002818154811061143257611431611fb4565b5b9060005260206000209060060201600301600081548092919061145490611876565b919050555050565b60075481565b60006040518060400160405280348152602001428152509050600160003373ffffffffffffffffffffffffffffffffffffffff1673ffffffffffffffffffffffffffffffffffffffff1681526020019081526020016000208190806001815401808255809150506001900390600052602060002090600202016000909190919091506000820151816000015560208201518160010155505061150f3460075461060990919063ffffffff16565b6007819055506001600c60003373ffffffffffffffffffffffffffffffffffffffff1673ffffffffffffffffffffffffffffffffffffffff16815260200190815260200160002060006101000a81548160ff0219169083151502179055506008600081548092919061158090611876565b91905055503373ffffffffffffffffffffffffffffffffffffffff167f264f630d9efa0d07053a31163641d9fcc0adafc9d9e76f1c37c2ce3a558d2c52346040516115cb91906118ce565b60405180910390a250565b6115de6116ce565b73ffffffffffffffffffffffffffffffffffffffff166115fc611210565b73ffffffffffffffffffffffffffffffffffffffff1614611652576040517f08c379a000000000000000000000000000000000000000000000000000000000815260040161164990611f34565b60405180910390fd5b600073ffffffffffffffffffffffffffffffffffffffff168173ffffffffffffffffffffffffffffffffffffffff1614156116c2576040517f08c379a00000000000000000000000000000000000000000000000000000000081526004016116b9906120b6565b60405180910390fd5b6116cb816116d6565b50565b600033905090565b60008060009054906101000a900473ffffffffffffffffffffffffffffffffffffffff169050816000806101000a81548173ffffffffffffffffffffffffffffffffffffffff021916908373ffffffffffffffffffffffffffffffffffffffff1602179055508173ffffffffffffffffffffffffffffffffffffffff168173ffffffffffffffffffffffffffffffffffffffff167f8be0079c531659141344cd1fd0a4f28419497f9722a3daafe3b4186f6b6457e060405160405180910390a35050565b8280546117a690612012565b90600052602060002090601f0160209004810192826117c8576000855561180f565b82601f106117e157805160ff191683800117855561180f565b8280016001018555821561180f579182015b8281111561180e5782518255916020019190600101906117f3565b5b50905061181c9190611820565b5090565b5b80821115611839576000816000905550600101611821565b5090565b7f4e487b7100000000000000000000000000000000000000000000000000000000600052601160045260246000fd5b6000819050919050565b60006118818261186c565b91507fffffffffffffffffffffffffffffffffffffffffffffffffffffffffffffffff8214156118b4576118b361183d565b5b600182019050919050565b6118c88161186c565b82525050565b60006020820190506118e360008301846118bf565b92915050565b6000604051905090565b600080fd5b600080fd5b6119068161186c565b811461191157600080fd5b50565b600081359050611923816118fd565b92915050565b60006020828403121561193f5761193e6118f3565b5b600061194d84828501611914565b91505092915050565b600081519050919050565b600082825260208201905092915050565b60005b83811015611990578082015181840152602081019050611975565b8381111561199f576000848401525b50505050565b6000601f19601f8301169050919050565b60006119c182611956565b6119cb8185611961565b93506119db818560208601611972565b6119e4816119a5565b840191505092915050565b60006020820190508181036000830152611a0981846119b6565b905092915050565b600073ffffffffffffffffffffffffffffffffffffffff82169050919050565b6000611a3c82611a11565b9050919050565b611a4c81611a31565b8114611a5757600080fd5b50565b600081359050611a6981611a43565b92915050565b600060208284031215611a8557611a846118f3565b5b6000611a9384828501611a5a565b91505092915050565b60008115159050919050565b611ab181611a9c565b82525050565b6000602082019050611acc6000830184611aa8565b92915050565b600081519050919050565b600082825260208201905092915050565b6000819050602082019050919050565b611b078161186c565b82525050565b6000611b198383611afe565b60208301905092915050565b6000602082019050919050565b6000611b3d82611ad2565b611b478185611add565b9350611b5283611aee565b8060005b83811015611b83578151611b6a8882611b0d565b9750611b7583611b25565b925050600181019050611b56565b5085935050505092915050565b60006040820190508181036000830152611baa8185611b32565b90508181036020830152611bbe8184611b32565b90509392505050565b6000611bd282611a11565b9050919050565b611be281611bc7565b8114611bed57600080fd5b50565b600081359050611bff81611bd9565b92915050565b600060208284031215611c1b57611c1a6118f3565b5b6000611c2984828501611bf0565b91505092915050565b611c3b81611a31565b82525050565b6000602082019050611c566000830184611c32565b92915050565b611c6581611bc7565b82525050565b6000602082019050611c806000830184611c5c565b92915050565b600060c0820190508181036000830152611ca081896119b6565b9050611caf60208301886118bf565b611cbc6040830187611c5c565b611cc96060830186611aa8565b611cd660808301856118bf565b611ce360a08301846118bf565b979650505050505050565b600080fd5b600080fd5b7f4e487b7100000000000000000000000000000000000000000000000000000000600052604160045260246000fd5b611d30826119a5565b810181811067ffffffffffffffff82111715611d4f57611d4e611cf8565b5b80604052505050565b6000611d626118e9565b9050611d6e8282611d27565b919050565b600067ffffffffffffffff821115611d8e57611d8d611cf8565b5b611d97826119a5565b9050602081019050919050565b82818337600083830152505050565b6000611dc6611dc184611d73565b611d58565b905082815260208101848484011115611de257611de1611cf3565b5b611ded848285611da4565b509392505050565b600082601f830112611e0a57611e09611cee565b5b8135611e1a848260208601611db3565b91505092915050565b600080600060608486031215611e3c57611e3b6118f3565b5b600084013567ffffffffffffffff811115611e5a57611e596118f8565b5b611e6686828701611df5565b9350506020611e7786828701611914565b9250506040611e8886828701611bf0565b9150509250925092565b6000611e9d8261186c565b9150611ea88361186c565b9250827fffffffffffffffffffffffffffffffffffffffffffffffffffffffffffffffff03821115611edd57611edc61183d565b5b828201905092915050565b7f4f776e61626c653a2063616c6c6572206973206e6f7420746865206f776e6572600082015250565b6000611f1e602083611961565b9150611f2982611ee8565b602082019050919050565b60006020820190508181036000830152611f4d81611f11565b9050919050565b7f4e487b7100000000000000000000000000000000000000000000000000000000600052601260045260246000fd5b6000611f8e8261186c565b9150611f998361186c565b925082611fa957611fa8611f54565b5b828204905092915050565b7f4e487b7100000000000000000000000000000000000000000000000000000000600052603260045260246000fd5b7f4e487b7100000000000000000000000000000000000000000000000000000000600052602260045260246000fd5b6000600282049050600182168061202a57607f821691505b6020821081141561203e5761203d611fe3565b5b50919050565b7f4f776e61626c653a206e6577206f776e657220697320746865207a65726f206160008201527f6464726573730000000000000000000000000000000000000000000000000000602082015250565b60006120a0602683611961565b91506120ab82612044565b604082019050919050565b600060208201905081810360008301526120cf81612093565b905091905056fea264697066735822122024cb34fd927bc7e3d46aff478d8318cf9f23d1dddc32f64d07d059a360754ddd64736f6c63430008090033a2646970667358221220b5721e8f643fd1971cdaa1053dac491efb6ff558d01436cd49060c921fbbfae764736f6c63430008090033",
  "immutableReferences": {},
  "source": "\r\n// SPDX-License-Identifier: UNLICENSED\r\n\r\npragma solidity 0.8.9;\r\n\r\nimport \"./Fundraiser.sol\";\r\n\r\ncontract FundraiserFactory {\r\n    Fundraiser[] private _fundraisers;\r\n    uint256 constant maxLimit = 20;\r\n\r\n    event FundraiserCreated(\r\n        Fundraiser indexed fundraiser,\r\n        address indexed owner\r\n    );\r\n\r\n    function createFundraiser(\r\n        string memory name,\r\n        string memory imageURL,\r\n        string memory description,\r\n        // uint256 minimumContribution,\r\n        uint256 targetToAchieve,\r\n        address payable beneficiary\r\n    ) public {\r\n        Fundraiser fundraiser = new Fundraiser(\r\n            name,\r\n            imageURL,\r\n            description,\r\n            // minimumContribution,\r\n            targetToAchieve,\r\n            beneficiary,\r\n            payable(msg.sender)\r\n        );\r\n        _fundraisers.push(fundraiser);\r\n        emit FundraiserCreated(fundraiser, fundraiser.owner());\r\n    }\r\n\r\n    function fundraisersCount() public view returns (uint256) {\r\n        return _fundraisers.length;\r\n    }\r\n\r\n    function fundraisers(uint256 limit, uint256 offset)\r\n        public\r\n        view\r\n        returns (Fundraiser[] memory coll)\r\n    {\r\n        require(offset <= fundraisersCount(), \"offset out of bounds\");\r\n\r\n        uint256 size = fundraisersCount() - offset;\r\n        size = size < limit ? size : limit;\r\n        size = size < maxLimit ? size : maxLimit;\r\n        coll = new Fundraiser[](size);\r\n\r\n        for (uint256 i = 0; i < size; i++) {\r\n            coll[i] = _fundraisers[offset + i];\r\n        }\r\n\r\n        return coll;\r\n    }\r\n}",
  "sourcePath": "C:\\Users\\ads73\\OneDrive\\Desktop\\All Folders\\Workspaces\\DAPP\\Make-A-Difference\\contracts\\FundraiserFactory.sol",
  "compiler": {
    "name": "solc",
    "version": "0.8.9+commit.e5eed63a.Emscripten.clang"
  },
  "schemaVersion": "3.4.5",
  "updatedAt": "2022-03-09T08:07:34.378Z",
  "devdoc": {
    "kind": "dev",
    "methods": {},
    "version": 1
  },
  "userdoc": {
    "kind": "user",
    "methods": {},
    "version": 1
  }
}