{
  "contractName": "Fundraiser",
  "abi": [
    {
      "inputs": [
        {
          "internalType": "string",
          "name": "_name",
          "type": "string"
        },
        {
          "internalType": "string",
          "name": "_imageURL",
          "type": "string"
        },
        {
          "internalType": "string",
          "name": "_description",
          "type": "string"
        },
        {
          "internalType": "uint256",
          "name": "_targetToAchieve",
          "type": "uint256"
        },
        {
          "internalType": "address",
          "name": "_owner",
          "type": "address"
        },
        {
          "internalType": "address payable",
          "name": "_beneficiary",
          "type": "address"
        }
      ],
      "stateMutability": "nonpayable",
      "type": "constructor"
    },
    {
      "anonymous": false,
      "inputs": [
        {
          "indexed": true,
          "internalType": "address",
          "name": "donor",
          "type": "address"
        },
        {
          "indexed": false,
          "internalType": "uint256",
          "name": "value",
          "type": "uint256"
        }
      ],
      "name": "DonationReceived",
      "type": "event"
    },
    {
      "anonymous": false,
      "inputs": [
        {
          "indexed": true,
          "internalType": "address",
          "name": "previousOwner",
          "type": "address"
        },
        {
          "indexed": true,
          "internalType": "address",
          "name": "newOwner",
          "type": "address"
        }
      ],
      "name": "OwnershipTransferred",
      "type": "event"
    },
    {
      "anonymous": false,
      "inputs": [
        {
          "indexed": false,
          "internalType": "uint256",
          "name": "amount",
          "type": "uint256"
        }
      ],
      "name": "Withdraw",
      "type": "event"
    },
    {
      "inputs": [
        {
          "internalType": "address",
          "name": "",
          "type": "address"
        }
      ],
      "name": "approvers",
      "outputs": [
        {
          "internalType": "bool",
          "name": "",
          "type": "bool"
        }
      ],
      "stateMutability": "view",
      "type": "function"
    },
    {
      "inputs": [],
      "name": "approversCount",
      "outputs": [
        {
          "internalType": "uint256",
          "name": "",
          "type": "uint256"
        }
      ],
      "stateMutability": "view",
      "type": "function"
    },
    {
      "inputs": [],
      "name": "beneficiary",
      "outputs": [
        {
          "internalType": "address payable",
          "name": "",
          "type": "address"
        }
      ],
      "stateMutability": "view",
      "type": "function"
    },
    {
      "inputs": [
        {
          "internalType": "uint256",
          "name": "",
          "type": "uint256"
        }
      ],
      "name": "contributers",
      "outputs": [
        {
          "internalType": "address",
          "name": "",
          "type": "address"
        }
      ],
      "stateMutability": "view",
      "type": "function"
    },
    {
      "inputs": [],
      "name": "description",
      "outputs": [
        {
          "internalType": "string",
          "name": "",
          "type": "string"
        }
      ],
      "stateMutability": "view",
      "type": "function"
    },
    {
      "inputs": [],
      "name": "donationsCount",
      "outputs": [
        {
          "internalType": "uint256",
          "name": "",
          "type": "uint256"
        }
      ],
      "stateMutability": "view",
      "type": "function"
    },
    {
      "inputs": [],
      "name": "imageURL",
      "outputs": [
        {
          "internalType": "string",
          "name": "",
          "type": "string"
        }
      ],
      "stateMutability": "view",
      "type": "function"
    },
    {
      "inputs": [],
      "name": "minimumContribution",
      "outputs": [
        {
          "internalType": "uint256",
          "name": "",
          "type": "uint256"
        }
      ],
      "stateMutability": "view",
      "type": "function"
    },
    {
      "inputs": [],
      "name": "name",
      "outputs": [
        {
          "internalType": "string",
          "name": "",
          "type": "string"
        }
      ],
      "stateMutability": "view",
      "type": "function"
    },
    {
      "inputs": [],
      "name": "owner",
      "outputs": [
        {
          "internalType": "address",
          "name": "",
          "type": "address"
        }
      ],
      "stateMutability": "view",
      "type": "function"
    },
    {
      "inputs": [],
      "name": "renounceOwnership",
      "outputs": [],
      "stateMutability": "nonpayable",
      "type": "function"
    },
    {
      "inputs": [
        {
          "internalType": "uint256",
          "name": "",
          "type": "uint256"
        }
      ],
      "name": "requests",
      "outputs": [
        {
          "internalType": "string",
          "name": "description",
          "type": "string"
        },
        {
          "internalType": "uint256",
          "name": "value",
          "type": "uint256"
        },
        {
          "internalType": "address payable",
          "name": "recipient",
          "type": "address"
        },
        {
          "internalType": "bool",
          "name": "complete",
          "type": "bool"
        },
        {
          "internalType": "uint256",
          "name": "approvalCount",
          "type": "uint256"
        }
      ],
      "stateMutability": "view",
      "type": "function"
    },
    {
      "inputs": [],
      "name": "targetToAchieve",
      "outputs": [
        {
          "internalType": "uint256",
          "name": "",
          "type": "uint256"
        }
      ],
      "stateMutability": "view",
      "type": "function"
    },
    {
      "inputs": [],
      "name": "totalDonations",
      "outputs": [
        {
          "internalType": "uint256",
          "name": "",
          "type": "uint256"
        }
      ],
      "stateMutability": "view",
      "type": "function"
    },
    {
      "inputs": [
        {
          "internalType": "address",
          "name": "newOwner",
          "type": "address"
        }
      ],
      "name": "transferOwnership",
      "outputs": [],
      "stateMutability": "nonpayable",
      "type": "function"
    },
    {
      "stateMutability": "payable",
      "type": "receive"
    },
    {
      "inputs": [
        {
          "internalType": "address payable",
          "name": "_beneficiary",
          "type": "address"
        }
      ],
      "name": "setBeneficiary",
      "outputs": [],
      "stateMutability": "nonpayable",
      "type": "function"
    },
    {
      "inputs": [],
      "name": "myDonationsCount",
      "outputs": [
        {
          "internalType": "uint256",
          "name": "",
          "type": "uint256"
        }
      ],
      "stateMutability": "view",
      "type": "function"
    },
    {
      "inputs": [],
      "name": "donate",
      "outputs": [],
      "stateMutability": "payable",
      "type": "function"
    },
    {
      "inputs": [],
      "name": "myDonations",
      "outputs": [
        {
          "internalType": "uint256[]",
          "name": "values",
          "type": "uint256[]"
        },
        {
          "internalType": "uint256[]",
          "name": "dates",
          "type": "uint256[]"
        }
      ],
      "stateMutability": "view",
      "type": "function"
    },
    {
      "inputs": [],
      "name": "withdraw",
      "outputs": [],
      "stateMutability": "nonpayable",
      "type": "function"
    },
    {
      "inputs": [
        {
          "internalType": "string",
          "name": "_description",
          "type": "string"
        },
        {
          "internalType": "uint256",
          "name": "_value",
          "type": "uint256"
        },
        {
          "internalType": "address payable",
          "name": "_recipient",
          "type": "address"
        }
      ],
      "name": "createRequest",
      "outputs": [],
      "stateMutability": "nonpayable",
      "type": "function"
    },
    {
      "inputs": [
        {
          "internalType": "uint256",
          "name": "index",
          "type": "uint256"
        }
      ],
      "name": "approveRequest",
      "outputs": [],
      "stateMutability": "nonpayable",
      "type": "function"
    },
    {
      "inputs": [
        {
          "internalType": "uint256",
          "name": "index",
          "type": "uint256"
        }
      ],
      "name": "finalizeRequest",
      "outputs": [],
      "stateMutability": "nonpayable",
      "type": "function"
    },
    {
      "inputs": [],
      "name": "getRequestsCount",
      "outputs": [
        {
          "internalType": "uint256",
          "name": "",
          "type": "uint256"
        }
      ],
      "stateMutability": "view",
      "type": "function"
    }
  ],
  "bytecode": "0x60806040523480156200001157600080fd5b50604051620026fb380380620026fb833981810160405281019062000037919062000644565b620000576200004b6200010760201b60201c565b6200010f60201b60201c565b85600390805190602001906200006f92919062000312565b5084600490805190602001906200008892919062000312565b508360059080519060200190620000a192919062000312565b5080600660006101000a81548173ffffffffffffffffffffffffffffffffffffffff021916908373ffffffffffffffffffffffffffffffffffffffff16021790555082600a81905550620000fb82620001d360201b60201c565b505050505050620008bd565b600033905090565b60008060009054906101000a900473ffffffffffffffffffffffffffffffffffffffff169050816000806101000a81548173ffffffffffffffffffffffffffffffffffffffff021916908373ffffffffffffffffffffffffffffffffffffffff1602179055508173ffffffffffffffffffffffffffffffffffffffff168173ffffffffffffffffffffffffffffffffffffffff167f8be0079c531659141344cd1fd0a4f28419497f9722a3daafe3b4186f6b6457e060405160405180910390a35050565b620001e36200010760201b60201c565b73ffffffffffffffffffffffffffffffffffffffff1662000209620002e960201b60201c565b73ffffffffffffffffffffffffffffffffffffffff161462000262576040517f08c379a000000000000000000000000000000000000000000000000000000000815260040162000259906200079e565b60405180910390fd5b600073ffffffffffffffffffffffffffffffffffffffff168173ffffffffffffffffffffffffffffffffffffffff161415620002d5576040517f08c379a0000000000000000000000000000000000000000000000000000000008152600401620002cc9062000836565b60405180910390fd5b620002e6816200010f60201b60201c565b50565b60008060009054906101000a900473ffffffffffffffffffffffffffffffffffffffff16905090565b828054620003209062000887565b90600052602060002090601f01602090048101928262000344576000855562000390565b82601f106200035f57805160ff191683800117855562000390565b8280016001018555821562000390579182015b828111156200038f57825182559160200191906001019062000372565b5b5090506200039f9190620003a3565b5090565b5b80821115620003be576000816000905550600101620003a4565b5090565b6000604051905090565b600080fd5b600080fd5b600080fd5b600080fd5b6000601f19601f8301169050919050565b7f4e487b7100000000000000000000000000000000000000000000000000000000600052604160045260246000fd5b6200042b82620003e0565b810181811067ffffffffffffffff821117156200044d576200044c620003f1565b5b80604052505050565b600062000462620003c2565b905062000470828262000420565b919050565b600067ffffffffffffffff821115620004935762000492620003f1565b5b6200049e82620003e0565b9050602081019050919050565b60005b83811015620004cb578082015181840152602081019050620004ae565b83811115620004db576000848401525b50505050565b6000620004f8620004f28462000475565b62000456565b905082815260208101848484011115620005175762000516620003db565b5b62000524848285620004ab565b509392505050565b600082601f830112620005445762000543620003d6565b5b815162000556848260208601620004e1565b91505092915050565b6000819050919050565b62000574816200055f565b81146200058057600080fd5b50565b600081519050620005948162000569565b92915050565b600073ffffffffffffffffffffffffffffffffffffffff82169050919050565b6000620005c7826200059a565b9050919050565b620005d981620005ba565b8114620005e557600080fd5b50565b600081519050620005f981620005ce565b92915050565b60006200060c826200059a565b9050919050565b6200061e81620005ff565b81146200062a57600080fd5b50565b6000815190506200063e8162000613565b92915050565b60008060008060008060c08789031215620006645762000663620003cc565b5b600087015167ffffffffffffffff811115620006855762000684620003d1565b5b6200069389828a016200052c565b965050602087015167ffffffffffffffff811115620006b757620006b6620003d1565b5b620006c589828a016200052c565b955050604087015167ffffffffffffffff811115620006e957620006e8620003d1565b5b620006f789828a016200052c565b94505060606200070a89828a0162000583565b93505060806200071d89828a01620005e8565b92505060a06200073089828a016200062d565b9150509295509295509295565b600082825260208201905092915050565b7f4f776e61626c653a2063616c6c6572206973206e6f7420746865206f776e6572600082015250565b6000620007866020836200073d565b915062000793826200074e565b602082019050919050565b60006020820190508181036000830152620007b98162000777565b9050919050565b7f4f776e61626c653a206e6577206f776e657220697320746865207a65726f206160008201527f6464726573730000000000000000000000000000000000000000000000000000602082015250565b60006200081e6026836200073d565b91506200082b82620007c0565b604082019050919050565b6000602082019050818103600083015262000851816200080f565b9050919050565b7f4e487b7100000000000000000000000000000000000000000000000000000000600052602260045260246000fd5b60006002820490506001821680620008a057607f821691505b60208210811415620008b757620008b662000858565b5b50919050565b611e2e80620008cd6000396000f3fe60806040526004361061014f5760003560e01c80637284e416116100b6578063b2a87fc31161006f578063b2a87fc3146104a1578063b90497e0146104cc578063d7d1bbdb146104f7578063de2ed89314610520578063ed88c68e1461054b578063f2fde38b1461055557610189565b80637284e4161461038b57806381d12c58146103b657806382fde093146103f75780638a9cfd55146104225780638da5cb5b1461044b578063937e09b11461047657610189565b80631f522595116101085780631f5225951461029f5780631fbed579146102ca5780633410452a1461030757806338af3eed146103325780633ccfd60b1461035d578063715018a61461037457610189565b80630180b97c1461018e57806303441006146101b957806306fdde03146101e25780630a1443911461020d5780631a57f7b41461024a5780631c31f7101461027657610189565b36610189576101693460075461057e90919063ffffffff16565b60078190555060086000815480929190610182906115a6565b9190505550005b600080fd5b34801561019a57600080fd5b506101a3610594565b6040516101b091906115fe565b60405180910390f35b3480156101c557600080fd5b506101e060048036038101906101db9190611659565b6105de565b005b3480156101ee57600080fd5b506101f76107c8565b604051610204919061171f565b60405180910390f35b34801561021957600080fd5b50610234600480360381019061022f919061179f565b610856565b60405161024191906117e7565b60405180910390f35b34801561025657600080fd5b5061025f610876565b60405161026d9291906118c0565b60405180910390f35b34801561028257600080fd5b5061029d60048036038101906102989190611935565b6109eb565b005b3480156102ab57600080fd5b506102b4610aab565b6040516102c191906115fe565b60405180910390f35b3480156102d657600080fd5b506102f160048036038101906102ec9190611659565b610ab1565b6040516102fe9190611971565b60405180910390f35b34801561031357600080fd5b5061031c610af0565b60405161032991906115fe565b60405180910390f35b34801561033e57600080fd5b50610347610afd565b604051610354919061199b565b60405180910390f35b34801561036957600080fd5b50610372610b23565b005b34801561038057600080fd5b50610389610c4f565b005b34801561039757600080fd5b506103a0610cd7565b6040516103ad919061171f565b60405180910390f35b3480156103c257600080fd5b506103dd60048036038101906103d89190611659565b610d65565b6040516103ee9594939291906119b6565b60405180910390f35b34801561040357600080fd5b5061040c610e60565b60405161041991906115fe565b60405180910390f35b34801561042e57600080fd5b5061044960048036038101906104449190611b45565b610e66565b005b34801561045757600080fd5b50610460610f98565b60405161046d9190611971565b60405180910390f35b34801561048257600080fd5b5061048b610fc1565b60405161049891906115fe565b60405180910390f35b3480156104ad57600080fd5b506104b6610fc7565b6040516104c391906115fe565b60405180910390f35b3480156104d857600080fd5b506104e1610fcd565b6040516104ee919061171f565b60405180910390f35b34801561050357600080fd5b5061051e60048036038101906105199190611659565b61105b565b005b34801561052c57600080fd5b506105356111e4565b60405161054291906115fe565b60405180910390f35b6105536111ea565b005b34801561056157600080fd5b5061057c6004803603810190610577919061179f565b611306565b005b6000818361058c9190611bb4565b905092915050565b6000600160003373ffffffffffffffffffffffffffffffffffffffff1673ffffffffffffffffffffffffffffffffffffffff16815260200190815260200160002080549050905090565b6105e66113fe565b73ffffffffffffffffffffffffffffffffffffffff16610604610f98565b73ffffffffffffffffffffffffffffffffffffffff161461065a576040517f08c379a000000000000000000000000000000000000000000000000000000000815260040161065190611c56565b60405180910390fd5b6002600d546106699190611ca5565b6002828154811061067d5761067c611cd6565b5b9060005260206000209060050201600301541161069957600080fd5b600281815481106106ad576106ac611cd6565b5b906000526020600020906005020160020160149054906101000a900460ff16156106d657600080fd5b600281815481106106ea576106e9611cd6565b5b906000526020600020906005020160020160009054906101000a900473ffffffffffffffffffffffffffffffffffffffff1673ffffffffffffffffffffffffffffffffffffffff166108fc6002838154811061074957610748611cd6565b5b9060005260206000209060050201600101549081150290604051600060405180830381858888f19350505050158015610786573d6000803e3d6000fd5b5060016002828154811061079d5761079c611cd6565b5b906000526020600020906005020160020160146101000a81548160ff02191690831515021790555050565b600380546107d590611d34565b80601f016020809104026020016040519081016040528092919081815260200182805461080190611d34565b801561084e5780601f106108235761010080835404028352916020019161084e565b820191906000526020600020905b81548152906001019060200180831161083157829003601f168201915b505050505081565b600c6020528060005260406000206000915054906101000a900460ff1681565b6060806000610883610594565b90508067ffffffffffffffff81111561089f5761089e611a1a565b5b6040519080825280602002602001820160405280156108cd5781602001602082028036833780820191505090505b5092508067ffffffffffffffff8111156108ea576108e9611a1a565b5b6040519080825280602002602001820160405280156109185781602001602082028036833780820191505090505b50915060005b818110156109e5576000600160003373ffffffffffffffffffffffffffffffffffffffff1673ffffffffffffffffffffffffffffffffffffffff168152602001908152602001600020828154811061097957610978611cd6565b5b9060005260206000209060020201905080600001548583815181106109a1576109a0611cd6565b5b60200260200101818152505080600101548483815181106109c5576109c4611cd6565b5b6020026020010181815250505080806109dd906115a6565b91505061091e565b50509091565b6109f36113fe565b73ffffffffffffffffffffffffffffffffffffffff16610a11610f98565b73ffffffffffffffffffffffffffffffffffffffff1614610a67576040517f08c379a0000000000000000000000000000000000000000000000000000000008152600401610a5e90611c56565b60405180910390fd5b80600660006101000a81548173ffffffffffffffffffffffffffffffffffffffff021916908373ffffffffffffffffffffffffffffffffffffffff16021790555050565b60085481565b600b8181548110610ac157600080fd5b906000526020600020016000915054906101000a900473ffffffffffffffffffffffffffffffffffffffff1681565b6000600280549050905090565b600660009054906101000a900473ffffffffffffffffffffffffffffffffffffffff1681565b610b2b6113fe565b73ffffffffffffffffffffffffffffffffffffffff16610b49610f98565b73ffffffffffffffffffffffffffffffffffffffff1614610b9f576040517f08c379a0000000000000000000000000000000000000000000000000000000008152600401610b9690611c56565b60405180910390fd5b6000479050600660009054906101000a900473ffffffffffffffffffffffffffffffffffffffff1673ffffffffffffffffffffffffffffffffffffffff166108fc829081150290604051600060405180830381858888f19350505050158015610c0c573d6000803e3d6000fd5b5060006007819055507f5b6b431d4476a211bb7d41c20d1aab9ae2321deee0d20be3d9fc9b1093fa6e3d81604051610c4491906115fe565b60405180910390a150565b610c576113fe565b73ffffffffffffffffffffffffffffffffffffffff16610c75610f98565b73ffffffffffffffffffffffffffffffffffffffff1614610ccb576040517f08c379a0000000000000000000000000000000000000000000000000000000008152600401610cc290611c56565b60405180910390fd5b610cd56000611406565b565b60058054610ce490611d34565b80601f0160208091040260200160405190810160405280929190818152602001828054610d1090611d34565b8015610d5d5780601f10610d3257610100808354040283529160200191610d5d565b820191906000526020600020905b815481529060010190602001808311610d4057829003601f168201915b505050505081565b60028181548110610d7557600080fd5b9060005260206000209060050201600091509050806000018054610d9890611d34565b80601f0160208091040260200160405190810160405280929190818152602001828054610dc490611d34565b8015610e115780601f10610de657610100808354040283529160200191610e11565b820191906000526020600020905b815481529060010190602001808311610df457829003601f168201915b5050505050908060010154908060020160009054906101000a900473ffffffffffffffffffffffffffffffffffffffff16908060020160149054906101000a900460ff16908060030154905085565b600d5481565b610e6e6113fe565b73ffffffffffffffffffffffffffffffffffffffff16610e8c610f98565b73ffffffffffffffffffffffffffffffffffffffff1614610ee2576040517f08c379a0000000000000000000000000000000000000000000000000000000008152600401610ed990611c56565b60405180910390fd5b60006002600181600181540180825580915050039060005260206000209060050201905083816000019080519060200190610f1e9291906114ca565b50828160010181905550818160020160006101000a81548173ffffffffffffffffffffffffffffffffffffffff021916908373ffffffffffffffffffffffffffffffffffffffff16021790555060008160020160146101000a81548160ff0219169083151502179055506000816003018190555050505050565b60008060009054906101000a900473ffffffffffffffffffffffffffffffffffffffff16905090565b60095481565b600a5481565b60048054610fda90611d34565b80601f016020809104026020016040519081016040528092919081815260200182805461100690611d34565b80156110535780601f1061102857610100808354040283529160200191611053565b820191906000526020600020905b81548152906001019060200180831161103657829003601f168201915b505050505081565b600c60003373ffffffffffffffffffffffffffffffffffffffff1673ffffffffffffffffffffffffffffffffffffffff16815260200190815260200160002060009054906101000a900460ff166110b157600080fd5b600281815481106110c5576110c4611cd6565b5b906000526020600020906005020160040160003373ffffffffffffffffffffffffffffffffffffffff1673ffffffffffffffffffffffffffffffffffffffff16815260200190815260200160002060009054906101000a900460ff161561112b57600080fd5b60016002828154811061114157611140611cd6565b5b906000526020600020906005020160040160003373ffffffffffffffffffffffffffffffffffffffff1673ffffffffffffffffffffffffffffffffffffffff16815260200190815260200160002060006101000a81548160ff021916908315150217905550600281815481106111ba576111b9611cd6565b5b906000526020600020906005020160030160008154809291906111dc906115a6565b919050555050565b60075481565b60006040518060400160405280348152602001428152509050600160003373ffffffffffffffffffffffffffffffffffffffff1673ffffffffffffffffffffffffffffffffffffffff168152602001908152602001600020819080600181540180825580915050600190039060005260206000209060020201600090919091909150600082015181600001556020820151816001015550506112973460075461057e90919063ffffffff16565b600781905550600860008154809291906112b0906115a6565b91905055503373ffffffffffffffffffffffffffffffffffffffff167f264f630d9efa0d07053a31163641d9fcc0adafc9d9e76f1c37c2ce3a558d2c52346040516112fb91906115fe565b60405180910390a250565b61130e6113fe565b73ffffffffffffffffffffffffffffffffffffffff1661132c610f98565b73ffffffffffffffffffffffffffffffffffffffff1614611382576040517f08c379a000000000000000000000000000000000000000000000000000000000815260040161137990611c56565b60405180910390fd5b600073ffffffffffffffffffffffffffffffffffffffff168173ffffffffffffffffffffffffffffffffffffffff1614156113f2576040517f08c379a00000000000000000000000000000000000000000000000000000000081526004016113e990611dd8565b60405180910390fd5b6113fb81611406565b50565b600033905090565b60008060009054906101000a900473ffffffffffffffffffffffffffffffffffffffff169050816000806101000a81548173ffffffffffffffffffffffffffffffffffffffff021916908373ffffffffffffffffffffffffffffffffffffffff1602179055508173ffffffffffffffffffffffffffffffffffffffff168173ffffffffffffffffffffffffffffffffffffffff167f8be0079c531659141344cd1fd0a4f28419497f9722a3daafe3b4186f6b6457e060405160405180910390a35050565b8280546114d690611d34565b90600052602060002090601f0160209004810192826114f8576000855561153f565b82601f1061151157805160ff191683800117855561153f565b8280016001018555821561153f579182015b8281111561153e578251825591602001919060010190611523565b5b50905061154c9190611550565b5090565b5b80821115611569576000816000905550600101611551565b5090565b7f4e487b7100000000000000000000000000000000000000000000000000000000600052601160045260246000fd5b6000819050919050565b60006115b18261159c565b91507fffffffffffffffffffffffffffffffffffffffffffffffffffffffffffffffff8214156115e4576115e361156d565b5b600182019050919050565b6115f88161159c565b82525050565b600060208201905061161360008301846115ef565b92915050565b6000604051905090565b600080fd5b600080fd5b6116368161159c565b811461164157600080fd5b50565b6000813590506116538161162d565b92915050565b60006020828403121561166f5761166e611623565b5b600061167d84828501611644565b91505092915050565b600081519050919050565b600082825260208201905092915050565b60005b838110156116c05780820151818401526020810190506116a5565b838111156116cf576000848401525b50505050565b6000601f19601f8301169050919050565b60006116f182611686565b6116fb8185611691565b935061170b8185602086016116a2565b611714816116d5565b840191505092915050565b6000602082019050818103600083015261173981846116e6565b905092915050565b600073ffffffffffffffffffffffffffffffffffffffff82169050919050565b600061176c82611741565b9050919050565b61177c81611761565b811461178757600080fd5b50565b60008135905061179981611773565b92915050565b6000602082840312156117b5576117b4611623565b5b60006117c38482850161178a565b91505092915050565b60008115159050919050565b6117e1816117cc565b82525050565b60006020820190506117fc60008301846117d8565b92915050565b600081519050919050565b600082825260208201905092915050565b6000819050602082019050919050565b6118378161159c565b82525050565b6000611849838361182e565b60208301905092915050565b6000602082019050919050565b600061186d82611802565b611877818561180d565b93506118828361181e565b8060005b838110156118b357815161189a888261183d565b97506118a583611855565b925050600181019050611886565b5085935050505092915050565b600060408201905081810360008301526118da8185611862565b905081810360208301526118ee8184611862565b90509392505050565b600061190282611741565b9050919050565b611912816118f7565b811461191d57600080fd5b50565b60008135905061192f81611909565b92915050565b60006020828403121561194b5761194a611623565b5b600061195984828501611920565b91505092915050565b61196b81611761565b82525050565b60006020820190506119866000830184611962565b92915050565b611995816118f7565b82525050565b60006020820190506119b0600083018461198c565b92915050565b600060a08201905081810360008301526119d081886116e6565b90506119df60208301876115ef565b6119ec604083018661198c565b6119f960608301856117d8565b611a0660808301846115ef565b9695505050505050565b600080fd5b600080fd5b7f4e487b7100000000000000000000000000000000000000000000000000000000600052604160045260246000fd5b611a52826116d5565b810181811067ffffffffffffffff82111715611a7157611a70611a1a565b5b80604052505050565b6000611a84611619565b9050611a908282611a49565b919050565b600067ffffffffffffffff821115611ab057611aaf611a1a565b5b611ab9826116d5565b9050602081019050919050565b82818337600083830152505050565b6000611ae8611ae384611a95565b611a7a565b905082815260208101848484011115611b0457611b03611a15565b5b611b0f848285611ac6565b509392505050565b600082601f830112611b2c57611b2b611a10565b5b8135611b3c848260208601611ad5565b91505092915050565b600080600060608486031215611b5e57611b5d611623565b5b600084013567ffffffffffffffff811115611b7c57611b7b611628565b5b611b8886828701611b17565b9350506020611b9986828701611644565b9250506040611baa86828701611920565b9150509250925092565b6000611bbf8261159c565b9150611bca8361159c565b9250827fffffffffffffffffffffffffffffffffffffffffffffffffffffffffffffffff03821115611bff57611bfe61156d565b5b828201905092915050565b7f4f776e61626c653a2063616c6c6572206973206e6f7420746865206f776e6572600082015250565b6000611c40602083611691565b9150611c4b82611c0a565b602082019050919050565b60006020820190508181036000830152611c6f81611c33565b9050919050565b7f4e487b7100000000000000000000000000000000000000000000000000000000600052601260045260246000fd5b6000611cb08261159c565b9150611cbb8361159c565b925082611ccb57611cca611c76565b5b828204905092915050565b7f4e487b7100000000000000000000000000000000000000000000000000000000600052603260045260246000fd5b7f4e487b7100000000000000000000000000000000000000000000000000000000600052602260045260246000fd5b60006002820490506001821680611d4c57607f821691505b60208210811415611d6057611d5f611d05565b5b50919050565b7f4f776e61626c653a206e6577206f776e657220697320746865207a65726f206160008201527f6464726573730000000000000000000000000000000000000000000000000000602082015250565b6000611dc2602683611691565b9150611dcd82611d66565b604082019050919050565b60006020820190508181036000830152611df181611db5565b905091905056fea264697066735822122028a6e7dc01d6e540b5299e8c455c6a8af17720bf4ab5d88334796fbd5d5c813e64736f6c63430008090033",
  "immutableReferences": {},
  "source": "// SPDX-License-Identifier: UNLICENSED\r\n\r\npragma solidity 0.8.9;\r\n\r\nimport \"@openzeppelin/contracts/access/Ownable.sol\";\r\nimport \"@openzeppelin/contracts/utils/math/SafeMath.sol\";\r\n\r\ncontract Fundraiser is Ownable {\r\n    using SafeMath for uint256;\r\n    struct Donation {\r\n        uint256 value;\r\n        uint256 date;\r\n    }\r\n\r\n    struct Request {\r\n        string description;\r\n        uint value;\r\n        address payable recipient;\r\n        bool complete;\r\n        uint approvalCount;\r\n        mapping(address => bool) approvals;\r\n    }\r\n\r\n    mapping(address => Donation[]) private _donations;\r\n\r\n    Request[] public requests;\r\n    string public name;\r\n    string public imageURL;\r\n    string public description;\r\n    address payable public beneficiary;\r\n    uint256 public totalDonations;\r\n    uint256 public donationsCount;\r\n    uint256 public minimumContribution;\r\n    uint256 public targetToAchieve;\r\n    address[] public contributers;\r\n    mapping(address => bool) public approvers;\r\n    uint256 public approversCount;\r\n\r\n    event DonationReceived(address indexed donor, uint256 value);\r\n    event Withdraw(uint256 amount);\r\n\r\n    constructor(\r\n        string memory _name,\r\n        string memory _imageURL,\r\n        string memory _description,\r\n        // uint256 _minimumContribution,\r\n        uint256 _targetToAchieve,\r\n        address _owner,\r\n        address payable _beneficiary\r\n    ) public {\r\n        name = _name;\r\n        imageURL = _imageURL;\r\n        description = _description;\r\n        beneficiary = _beneficiary;\r\n        // minimumContribution = _minimumContribution;\r\n        targetToAchieve = _targetToAchieve;\r\n        transferOwnership(_owner);\r\n    }\r\n\r\n    function setBeneficiary(address payable _beneficiary) public onlyOwner {\r\n        beneficiary = _beneficiary;\r\n    }\r\n\r\n    function myDonationsCount() public view returns (uint256) {\r\n        return _donations[msg.sender].length;\r\n    }\r\n\r\n    function donate() external payable {\r\n        // require(msg.value > minimumContribution);\r\n\r\n        Donation memory donation =\r\n            Donation({value: msg.value, date: block.timestamp});\r\n        _donations[msg.sender].push(donation);\r\n        totalDonations = totalDonations.add(msg.value);\r\n        donationsCount++;\r\n\r\n        emit DonationReceived(msg.sender, msg.value);\r\n    }\r\n\r\n    function myDonations()\r\n        public\r\n        view\r\n        returns (uint256[] memory values, uint256[] memory dates)\r\n    {\r\n        uint256 count = myDonationsCount();\r\n        values = new uint256[](count);\r\n        dates = new uint256[](count);\r\n\r\n        for (uint256 i = 0; i < count; i++) {\r\n            Donation storage donation = _donations[msg.sender][i];\r\n            values[i] = donation.value;\r\n            dates[i] = donation.date;\r\n        }\r\n\r\n        return (values, dates);\r\n    }\r\n\r\n    function withdraw() public onlyOwner {\r\n        uint256 balance = address(this).balance;\r\n        beneficiary.transfer(balance);\r\n        totalDonations = 0;\r\n        emit Withdraw(balance);\r\n    }\r\n\r\n    receive() external payable {\r\n        totalDonations = totalDonations.add(msg.value);\r\n        donationsCount++;\r\n    }\r\n\r\n    function createRequest(string memory _description, uint _value, address payable _recipient) public onlyOwner {\r\n        Request storage newRequest = requests.push();\r\n        newRequest.description = _description;\r\n        newRequest.value = _value;\r\n        newRequest.recipient = _recipient;\r\n        newRequest.complete = false;\r\n        newRequest.approvalCount = 0;\r\n    }\r\n\r\n    function approveRequest(uint index) public {\r\n        require(approvers[msg.sender]);\r\n        require(!requests[index].approvals[msg.sender]);\r\n\r\n        requests[index].approvals[msg.sender] = true;\r\n        requests[index].approvalCount++;\r\n    }\r\n\r\n    function finalizeRequest(uint index) public onlyOwner{\r\n        require(requests[index].approvalCount > (approversCount / 2));\r\n        require(!requests[index].complete);\r\n\r\n        requests[index].recipient.transfer(requests[index].value);\r\n        requests[index].complete = true;\r\n\r\n    }\r\n\r\n    function getRequestsCount() public view returns (uint){\r\n        return requests.length;\r\n    }\r\n}\r\n",
  "sourcePath": "C:\\Users\\Admin\\Desktop\\All Folders\\Workspaces\\DAPP\\fundraiser\\contracts\\Fundraiser.sol",
  "compiler": {
    "name": "solc",
    "version": "0.8.9+commit.e5eed63a.Emscripten.clang"
  },
  "schemaVersion": "3.4.3",
  "updatedAt": "2021-12-28T09:59:41.669Z",
  "devdoc": {
    "kind": "dev",
    "methods": {
      "owner()": {
        "details": "Returns the address of the current owner."
      },
      "renounceOwnership()": {
        "details": "Leaves the contract without owner. It will not be possible to call `onlyOwner` functions anymore. Can only be called by the current owner. NOTE: Renouncing ownership will leave the contract without an owner, thereby removing any functionality that is only available to the owner."
      },
      "transferOwnership(address)": {
        "details": "Transfers ownership of the contract to a new account (`newOwner`). Can only be called by the current owner."
      }
    },
    "version": 1
  },
  "userdoc": {
    "kind": "user",
    "methods": {},
    "version": 1
  }
}