{
  "contractName": "Fundraiser",
  "abi": [
    {
      "inputs": [
        {
          "internalType": "string",
          "name": "_name",
          "type": "string"
        },
        {
          "internalType": "string",
          "name": "_imageURL",
          "type": "string"
        },
        {
          "internalType": "string",
          "name": "_description",
          "type": "string"
        },
        {
          "internalType": "address",
          "name": "_owner",
          "type": "address"
        },
        {
          "internalType": "address payable",
          "name": "_beneficiary",
          "type": "address"
        }
      ],
      "stateMutability": "nonpayable",
      "type": "constructor"
    },
    {
      "anonymous": false,
      "inputs": [
        {
          "indexed": true,
          "internalType": "address",
          "name": "donor",
          "type": "address"
        },
        {
          "indexed": false,
          "internalType": "uint256",
          "name": "value",
          "type": "uint256"
        }
      ],
      "name": "DonationReceived",
      "type": "event"
    },
    {
      "anonymous": false,
      "inputs": [
        {
          "indexed": true,
          "internalType": "address",
          "name": "previousOwner",
          "type": "address"
        },
        {
          "indexed": true,
          "internalType": "address",
          "name": "newOwner",
          "type": "address"
        }
      ],
      "name": "OwnershipTransferred",
      "type": "event"
    },
    {
      "anonymous": false,
      "inputs": [
        {
          "indexed": false,
          "internalType": "uint256",
          "name": "amount",
          "type": "uint256"
        }
      ],
      "name": "Withdraw",
      "type": "event"
    },
    {
      "inputs": [],
      "name": "beneficiary",
      "outputs": [
        {
          "internalType": "address payable",
          "name": "",
          "type": "address"
        }
      ],
      "stateMutability": "view",
      "type": "function"
    },
    {
      "inputs": [],
      "name": "description",
      "outputs": [
        {
          "internalType": "string",
          "name": "",
          "type": "string"
        }
      ],
      "stateMutability": "view",
      "type": "function"
    },
    {
      "inputs": [],
      "name": "donationsCount",
      "outputs": [
        {
          "internalType": "uint256",
          "name": "",
          "type": "uint256"
        }
      ],
      "stateMutability": "view",
      "type": "function"
    },
    {
      "inputs": [],
      "name": "imageURL",
      "outputs": [
        {
          "internalType": "string",
          "name": "",
          "type": "string"
        }
      ],
      "stateMutability": "view",
      "type": "function"
    },
    {
      "inputs": [],
      "name": "name",
      "outputs": [
        {
          "internalType": "string",
          "name": "",
          "type": "string"
        }
      ],
      "stateMutability": "view",
      "type": "function"
    },
    {
      "inputs": [],
      "name": "owner",
      "outputs": [
        {
          "internalType": "address",
          "name": "",
          "type": "address"
        }
      ],
      "stateMutability": "view",
      "type": "function"
    },
    {
      "inputs": [],
      "name": "renounceOwnership",
      "outputs": [],
      "stateMutability": "nonpayable",
      "type": "function"
    },
    {
      "inputs": [],
      "name": "totalDonations",
      "outputs": [
        {
          "internalType": "uint256",
          "name": "",
          "type": "uint256"
        }
      ],
      "stateMutability": "view",
      "type": "function"
    },
    {
      "inputs": [
        {
          "internalType": "address",
          "name": "newOwner",
          "type": "address"
        }
      ],
      "name": "transferOwnership",
      "outputs": [],
      "stateMutability": "nonpayable",
      "type": "function"
    },
    {
      "stateMutability": "payable",
      "type": "receive"
    },
    {
      "inputs": [
        {
          "internalType": "address payable",
          "name": "_beneficiary",
          "type": "address"
        }
      ],
      "name": "setBeneficiary",
      "outputs": [],
      "stateMutability": "nonpayable",
      "type": "function"
    },
    {
      "inputs": [],
      "name": "myDonationsCount",
      "outputs": [
        {
          "internalType": "uint256",
          "name": "",
          "type": "uint256"
        }
      ],
      "stateMutability": "view",
      "type": "function"
    },
    {
      "inputs": [],
      "name": "donate",
      "outputs": [],
      "stateMutability": "payable",
      "type": "function"
    },
    {
      "inputs": [],
      "name": "myDonations",
      "outputs": [
        {
          "internalType": "uint256[]",
          "name": "values",
          "type": "uint256[]"
        },
        {
          "internalType": "uint256[]",
          "name": "dates",
          "type": "uint256[]"
        }
      ],
      "stateMutability": "view",
      "type": "function"
    },
    {
      "inputs": [],
      "name": "withdraw",
      "outputs": [],
      "stateMutability": "nonpayable",
      "type": "function"
    }
  ],
  "bytecode": "0x60806040523480156200001157600080fd5b5060405162001ac638038062001ac6833981810160405281019062000037919062000601565b620000576200004b620000ff60201b60201c565b6200010760201b60201c565b84600290805190602001906200006f9291906200030a565b508360039080519060200190620000889291906200030a565b508260049080519060200190620000a19291906200030a565b5080600560006101000a81548173ffffffffffffffffffffffffffffffffffffffff021916908373ffffffffffffffffffffffffffffffffffffffff160217905550620000f482620001cb60201b60201c565b505050505062000866565b600033905090565b60008060009054906101000a900473ffffffffffffffffffffffffffffffffffffffff169050816000806101000a81548173ffffffffffffffffffffffffffffffffffffffff021916908373ffffffffffffffffffffffffffffffffffffffff1602179055508173ffffffffffffffffffffffffffffffffffffffff168173ffffffffffffffffffffffffffffffffffffffff167f8be0079c531659141344cd1fd0a4f28419497f9722a3daafe3b4186f6b6457e060405160405180910390a35050565b620001db620000ff60201b60201c565b73ffffffffffffffffffffffffffffffffffffffff1662000201620002e160201b60201c565b73ffffffffffffffffffffffffffffffffffffffff16146200025a576040517f08c379a0000000000000000000000000000000000000000000000000000000008152600401620002519062000747565b60405180910390fd5b600073ffffffffffffffffffffffffffffffffffffffff168173ffffffffffffffffffffffffffffffffffffffff161415620002cd576040517f08c379a0000000000000000000000000000000000000000000000000000000008152600401620002c490620007df565b60405180910390fd5b620002de816200010760201b60201c565b50565b60008060009054906101000a900473ffffffffffffffffffffffffffffffffffffffff16905090565b828054620003189062000830565b90600052602060002090601f0160209004810192826200033c576000855562000388565b82601f106200035757805160ff191683800117855562000388565b8280016001018555821562000388579182015b82811115620003875782518255916020019190600101906200036a565b5b5090506200039791906200039b565b5090565b5b80821115620003b65760008160009055506001016200039c565b5090565b6000604051905090565b600080fd5b600080fd5b600080fd5b600080fd5b6000601f19601f8301169050919050565b7f4e487b7100000000000000000000000000000000000000000000000000000000600052604160045260246000fd5b6200042382620003d8565b810181811067ffffffffffffffff82111715620004455762000444620003e9565b5b80604052505050565b60006200045a620003ba565b905062000468828262000418565b919050565b600067ffffffffffffffff8211156200048b576200048a620003e9565b5b6200049682620003d8565b9050602081019050919050565b60005b83811015620004c3578082015181840152602081019050620004a6565b83811115620004d3576000848401525b50505050565b6000620004f0620004ea846200046d565b6200044e565b9050828152602081018484840111156200050f576200050e620003d3565b5b6200051c848285620004a3565b509392505050565b600082601f8301126200053c576200053b620003ce565b5b81516200054e848260208601620004d9565b91505092915050565b600073ffffffffffffffffffffffffffffffffffffffff82169050919050565b6000620005848262000557565b9050919050565b620005968162000577565b8114620005a257600080fd5b50565b600081519050620005b6816200058b565b92915050565b6000620005c98262000557565b9050919050565b620005db81620005bc565b8114620005e757600080fd5b50565b600081519050620005fb81620005d0565b92915050565b600080600080600060a0868803121562000620576200061f620003c4565b5b600086015167ffffffffffffffff811115620006415762000640620003c9565b5b6200064f8882890162000524565b955050602086015167ffffffffffffffff811115620006735762000672620003c9565b5b620006818882890162000524565b945050604086015167ffffffffffffffff811115620006a557620006a4620003c9565b5b620006b38882890162000524565b9350506060620006c688828901620005a5565b9250506080620006d988828901620005ea565b9150509295509295909350565b600082825260208201905092915050565b7f4f776e61626c653a2063616c6c6572206973206e6f7420746865206f776e6572600082015250565b60006200072f602083620006e6565b91506200073c82620006f7565b602082019050919050565b60006020820190508181036000830152620007628162000720565b9050919050565b7f4f776e61626c653a206e6577206f776e657220697320746865207a65726f206160008201527f6464726573730000000000000000000000000000000000000000000000000000602082015250565b6000620007c7602683620006e6565b9150620007d48262000769565b604082019050919050565b60006020820190508181036000830152620007fa81620007b8565b9050919050565b7f4e487b7100000000000000000000000000000000000000000000000000000000600052602260045260246000fd5b600060028204905060018216806200084957607f821691505b6020821081141562000860576200085f62000801565b5b50919050565b61125080620008766000396000f3fe6080604052600436106100e15760003560e01c8063715018a61161007f578063b90497e011610059578063b90497e0146102a5578063de2ed893146102d0578063ed88c68e146102fb578063f2fde38b146103055761011b565b8063715018a6146102385780637284e4161461024f5780638da5cb5b1461027a5761011b565b80631c31f710116100bb5780631c31f710146101a25780631f522595146101cb57806338af3eed146101f65780633ccfd60b146102215761011b565b80630180b97c1461012057806306fdde031461014b5780631a57f7b4146101765761011b565b3661011b576100fb3460065461032e90919063ffffffff16565b6006819055506007600081548092919061011490610c95565b9190505550005b600080fd5b34801561012c57600080fd5b50610135610344565b6040516101429190610ced565b60405180910390f35b34801561015757600080fd5b5061016061038e565b60405161016d9190610da1565b60405180910390f35b34801561018257600080fd5b5061018b61041c565b604051610199929190610e81565b60405180910390f35b3480156101ae57600080fd5b506101c960048036038101906101c49190610f1b565b610591565b005b3480156101d757600080fd5b506101e0610651565b6040516101ed9190610ced565b60405180910390f35b34801561020257600080fd5b5061020b610657565b6040516102189190610f57565b60405180910390f35b34801561022d57600080fd5b5061023661067d565b005b34801561024457600080fd5b5061024d6107a9565b005b34801561025b57600080fd5b50610264610831565b6040516102719190610da1565b60405180910390f35b34801561028657600080fd5b5061028f6108bf565b60405161029c9190610f93565b60405180910390f35b3480156102b157600080fd5b506102ba6108e8565b6040516102c79190610da1565b60405180910390f35b3480156102dc57600080fd5b506102e5610976565b6040516102f29190610ced565b60405180910390f35b61030361097c565b005b34801561031157600080fd5b5061032c60048036038101906103279190610fda565b610a98565b005b6000818361033c9190611007565b905092915050565b6000600160003373ffffffffffffffffffffffffffffffffffffffff1673ffffffffffffffffffffffffffffffffffffffff16815260200190815260200160002080549050905090565b6002805461039b9061108c565b80601f01602080910402602001604051908101604052809291908181526020018280546103c79061108c565b80156104145780601f106103e957610100808354040283529160200191610414565b820191906000526020600020905b8154815290600101906020018083116103f757829003601f168201915b505050505081565b6060806000610429610344565b90508067ffffffffffffffff811115610445576104446110be565b5b6040519080825280602002602001820160405280156104735781602001602082028036833780820191505090505b5092508067ffffffffffffffff8111156104905761048f6110be565b5b6040519080825280602002602001820160405280156104be5781602001602082028036833780820191505090505b50915060005b8181101561058b576000600160003373ffffffffffffffffffffffffffffffffffffffff1673ffffffffffffffffffffffffffffffffffffffff168152602001908152602001600020828154811061051f5761051e6110ed565b5b906000526020600020906002020190508060000154858381518110610547576105466110ed565b5b602002602001018181525050806001015484838151811061056b5761056a6110ed565b5b60200260200101818152505050808061058390610c95565b9150506104c4565b50509091565b610599610b90565b73ffffffffffffffffffffffffffffffffffffffff166105b76108bf565b73ffffffffffffffffffffffffffffffffffffffff161461060d576040517f08c379a000000000000000000000000000000000000000000000000000000000815260040161060490611168565b60405180910390fd5b80600560006101000a81548173ffffffffffffffffffffffffffffffffffffffff021916908373ffffffffffffffffffffffffffffffffffffffff16021790555050565b60075481565b600560009054906101000a900473ffffffffffffffffffffffffffffffffffffffff1681565b610685610b90565b73ffffffffffffffffffffffffffffffffffffffff166106a36108bf565b73ffffffffffffffffffffffffffffffffffffffff16146106f9576040517f08c379a00000000000000000000000000000000000000000000000000000000081526004016106f090611168565b60405180910390fd5b6000479050600560009054906101000a900473ffffffffffffffffffffffffffffffffffffffff1673ffffffffffffffffffffffffffffffffffffffff166108fc829081150290604051600060405180830381858888f19350505050158015610766573d6000803e3d6000fd5b5060006006819055507f5b6b431d4476a211bb7d41c20d1aab9ae2321deee0d20be3d9fc9b1093fa6e3d8160405161079e9190610ced565b60405180910390a150565b6107b1610b90565b73ffffffffffffffffffffffffffffffffffffffff166107cf6108bf565b73ffffffffffffffffffffffffffffffffffffffff1614610825576040517f08c379a000000000000000000000000000000000000000000000000000000000815260040161081c90611168565b60405180910390fd5b61082f6000610b98565b565b6004805461083e9061108c565b80601f016020809104026020016040519081016040528092919081815260200182805461086a9061108c565b80156108b75780601f1061088c576101008083540402835291602001916108b7565b820191906000526020600020905b81548152906001019060200180831161089a57829003601f168201915b505050505081565b60008060009054906101000a900473ffffffffffffffffffffffffffffffffffffffff16905090565b600380546108f59061108c565b80601f01602080910402602001604051908101604052809291908181526020018280546109219061108c565b801561096e5780601f106109435761010080835404028352916020019161096e565b820191906000526020600020905b81548152906001019060200180831161095157829003601f168201915b505050505081565b60065481565b60006040518060400160405280348152602001428152509050600160003373ffffffffffffffffffffffffffffffffffffffff1673ffffffffffffffffffffffffffffffffffffffff16815260200190815260200160002081908060018154018082558091505060019003906000526020600020906002020160009091909190915060008201518160000155602082015181600101555050610a293460065461032e90919063ffffffff16565b60068190555060076000815480929190610a4290610c95565b91905055503373ffffffffffffffffffffffffffffffffffffffff167f264f630d9efa0d07053a31163641d9fcc0adafc9d9e76f1c37c2ce3a558d2c5234604051610a8d9190610ced565b60405180910390a250565b610aa0610b90565b73ffffffffffffffffffffffffffffffffffffffff16610abe6108bf565b73ffffffffffffffffffffffffffffffffffffffff1614610b14576040517f08c379a0000000000000000000000000000000000000000000000000000000008152600401610b0b90611168565b60405180910390fd5b600073ffffffffffffffffffffffffffffffffffffffff168173ffffffffffffffffffffffffffffffffffffffff161415610b84576040517f08c379a0000000000000000000000000000000000000000000000000000000008152600401610b7b906111fa565b60405180910390fd5b610b8d81610b98565b50565b600033905090565b60008060009054906101000a900473ffffffffffffffffffffffffffffffffffffffff169050816000806101000a81548173ffffffffffffffffffffffffffffffffffffffff021916908373ffffffffffffffffffffffffffffffffffffffff1602179055508173ffffffffffffffffffffffffffffffffffffffff168173ffffffffffffffffffffffffffffffffffffffff167f8be0079c531659141344cd1fd0a4f28419497f9722a3daafe3b4186f6b6457e060405160405180910390a35050565b7f4e487b7100000000000000000000000000000000000000000000000000000000600052601160045260246000fd5b6000819050919050565b6000610ca082610c8b565b91507fffffffffffffffffffffffffffffffffffffffffffffffffffffffffffffffff821415610cd357610cd2610c5c565b5b600182019050919050565b610ce781610c8b565b82525050565b6000602082019050610d026000830184610cde565b92915050565b600081519050919050565b600082825260208201905092915050565b60005b83811015610d42578082015181840152602081019050610d27565b83811115610d51576000848401525b50505050565b6000601f19601f8301169050919050565b6000610d7382610d08565b610d7d8185610d13565b9350610d8d818560208601610d24565b610d9681610d57565b840191505092915050565b60006020820190508181036000830152610dbb8184610d68565b905092915050565b600081519050919050565b600082825260208201905092915050565b6000819050602082019050919050565b610df881610c8b565b82525050565b6000610e0a8383610def565b60208301905092915050565b6000602082019050919050565b6000610e2e82610dc3565b610e388185610dce565b9350610e4383610ddf565b8060005b83811015610e74578151610e5b8882610dfe565b9750610e6683610e16565b925050600181019050610e47565b5085935050505092915050565b60006040820190508181036000830152610e9b8185610e23565b90508181036020830152610eaf8184610e23565b90509392505050565b600080fd5b600073ffffffffffffffffffffffffffffffffffffffff82169050919050565b6000610ee882610ebd565b9050919050565b610ef881610edd565b8114610f0357600080fd5b50565b600081359050610f1581610eef565b92915050565b600060208284031215610f3157610f30610eb8565b5b6000610f3f84828501610f06565b91505092915050565b610f5181610edd565b82525050565b6000602082019050610f6c6000830184610f48565b92915050565b6000610f7d82610ebd565b9050919050565b610f8d81610f72565b82525050565b6000602082019050610fa86000830184610f84565b92915050565b610fb781610f72565b8114610fc257600080fd5b50565b600081359050610fd481610fae565b92915050565b600060208284031215610ff057610fef610eb8565b5b6000610ffe84828501610fc5565b91505092915050565b600061101282610c8b565b915061101d83610c8b565b9250827fffffffffffffffffffffffffffffffffffffffffffffffffffffffffffffffff0382111561105257611051610c5c565b5b828201905092915050565b7f4e487b7100000000000000000000000000000000000000000000000000000000600052602260045260246000fd5b600060028204905060018216806110a457607f821691505b602082108114156110b8576110b761105d565b5b50919050565b7f4e487b7100000000000000000000000000000000000000000000000000000000600052604160045260246000fd5b7f4e487b7100000000000000000000000000000000000000000000000000000000600052603260045260246000fd5b7f4f776e61626c653a2063616c6c6572206973206e6f7420746865206f776e6572600082015250565b6000611152602083610d13565b915061115d8261111c565b602082019050919050565b6000602082019050818103600083015261118181611145565b9050919050565b7f4f776e61626c653a206e6577206f776e657220697320746865207a65726f206160008201527f6464726573730000000000000000000000000000000000000000000000000000602082015250565b60006111e4602683610d13565b91506111ef82611188565b604082019050919050565b60006020820190508181036000830152611213816111d7565b905091905056fea2646970667358221220291193d3e86d9c58746cebffeb78eb7199ad2da1d0e68dea6800087338e8610a64736f6c63430008090033",
  "immutableReferences": {},
  "source": "// SPDX-License-Identifier: UNLICENSED\r\n\r\npragma solidity 0.8.9;\r\n\r\nimport \"@openzeppelin/contracts/access/Ownable.sol\";\r\nimport \"@openzeppelin/contracts/utils/math/SafeMath.sol\";\r\n\r\ncontract Fundraiser is Ownable {\r\n    using SafeMath for uint256;\r\n    struct Donation {\r\n        uint256 value;\r\n        uint256 date;\r\n    }\r\n    mapping(address => Donation[]) private _donations;\r\n\r\n    string public name;\r\n    string public imageURL;\r\n    string public description;\r\n    address payable public beneficiary;\r\n    uint256 public totalDonations;\r\n    uint256 public donationsCount;\r\n\r\n    event DonationReceived(address indexed donor, uint256 value);\r\n    event Withdraw(uint256 amount);\r\n\r\n    constructor(\r\n        string memory _name,\r\n        string memory _imageURL,\r\n        string memory _description,\r\n        address _owner,\r\n        address payable _beneficiary\r\n    ) public {\r\n        name = _name;\r\n        imageURL = _imageURL;\r\n        description = _description;\r\n        beneficiary = _beneficiary;\r\n        transferOwnership(_owner);\r\n    }\r\n\r\n    function setBeneficiary(address payable _beneficiary) public onlyOwner {\r\n        beneficiary = _beneficiary;\r\n    }\r\n\r\n    function myDonationsCount() public view returns (uint256) {\r\n        return _donations[msg.sender].length;\r\n    }\r\n\r\n    function donate() external payable {\r\n        Donation memory donation =\r\n            Donation({value: msg.value, date: block.timestamp});\r\n        _donations[msg.sender].push(donation);\r\n        totalDonations = totalDonations.add(msg.value);\r\n        donationsCount++;\r\n\r\n        emit DonationReceived(msg.sender, msg.value);\r\n    }\r\n\r\n    function myDonations()\r\n        public\r\n        view\r\n        returns (uint256[] memory values, uint256[] memory dates)\r\n    {\r\n        uint256 count = myDonationsCount();\r\n        values = new uint256[](count);\r\n        dates = new uint256[](count);\r\n\r\n        for (uint256 i = 0; i < count; i++) {\r\n            Donation storage donation = _donations[msg.sender][i];\r\n            values[i] = donation.value;\r\n            dates[i] = donation.date;\r\n        }\r\n\r\n        return (values, dates);\r\n    }\r\n\r\n    function withdraw() public onlyOwner {\r\n        uint256 balance = address(this).balance;\r\n        beneficiary.transfer(balance);\r\n        totalDonations = 0;\r\n        emit Withdraw(balance);\r\n    }\r\n\r\n    receive() external payable {\r\n        totalDonations = totalDonations.add(msg.value);\r\n        donationsCount++;\r\n    }\r\n}\r\n",
  "sourcePath": "G:\\NodejsProjects\\BE-Project\\Make-A-Difference\\contracts\\Fundraiser.sol",
  "compiler": {
    "name": "solc",
    "version": "0.8.9+commit.e5eed63a.Emscripten.clang"
  },
  "schemaVersion": "3.4.4",
  "updatedAt": "2021-12-28T08:55:45.692Z",
  "devdoc": {
    "kind": "dev",
    "methods": {
      "owner()": {
        "details": "Returns the address of the current owner."
      },
      "renounceOwnership()": {
        "details": "Leaves the contract without owner. It will not be possible to call `onlyOwner` functions anymore. Can only be called by the current owner. NOTE: Renouncing ownership will leave the contract without an owner, thereby removing any functionality that is only available to the owner."
      },
      "transferOwnership(address)": {
        "details": "Transfers ownership of the contract to a new account (`newOwner`). Can only be called by the current owner."
      }
    },
    "version": 1
  },
  "userdoc": {
    "kind": "user",
    "methods": {},
    "version": 1
  }
}