{
  "contractName": "FundraiserFactory",
  "abi": [
    {
      "anonymous": false,
      "inputs": [
        {
          "indexed": true,
          "internalType": "contract Fundraiser",
          "name": "fundraiser",
          "type": "address"
        },
        {
          "indexed": true,
          "internalType": "address",
          "name": "owner",
          "type": "address"
        }
      ],
      "name": "FundraiserCreated",
      "type": "event"
    },
    {
      "inputs": [
        {
          "internalType": "string",
          "name": "isRequestBased",
          "type": "string"
        },
        {
          "internalType": "string",
          "name": "name",
          "type": "string"
        },
        {
          "internalType": "string",
          "name": "imageURL",
          "type": "string"
        },
        {
          "internalType": "string",
          "name": "description",
          "type": "string"
        },
        {
          "internalType": "string",
          "name": "category",
          "type": "string"
        },
        {
          "internalType": "uint256",
          "name": "targetToAchieve",
          "type": "uint256"
        },
        {
          "internalType": "address payable",
          "name": "beneficiary",
          "type": "address"
        }
      ],
      "name": "createFundraiser",
      "outputs": [],
      "stateMutability": "nonpayable",
      "type": "function"
    },
    {
      "inputs": [],
      "name": "fundraisersCount",
      "outputs": [
        {
          "internalType": "uint256",
          "name": "",
          "type": "uint256"
        }
      ],
      "stateMutability": "view",
      "type": "function",
      "constant": true
    },
    {
      "inputs": [
        {
          "internalType": "uint256",
          "name": "limit",
          "type": "uint256"
        },
        {
          "internalType": "uint256",
          "name": "offset",
          "type": "uint256"
        }
      ],
      "name": "fundraisers",
      "outputs": [
        {
          "internalType": "contract Fundraiser[]",
          "name": "coll",
          "type": "address[]"
        }
      ],
      "stateMutability": "view",
      "type": "function",
      "constant": true
    }
  ],
  "bytecode": "0x608060405234801561001057600080fd5b50613c02806100206000396000f3fe60806040523480156200001157600080fd5b5060043610620000465760003560e01c8063704914f8146200004b5780639d3b43551462000081578063abef7ee514620000a3575b600080fd5b6200006960048036038101906200006391906200046b565b620000c3565b604051620000789190620005fa565b60405180910390f35b6200008b6200026f565b6040516200009a91906200062f565b60405180910390f35b620000c16004803603810190620000bb9190620007f3565b6200027b565b005b6060620000cf6200026f565b82111562000114576040517f08c379a00000000000000000000000000000000000000000000000000000000081526004016200010b90620009a2565b60405180910390fd5b600082620001216200026f565b6200012d9190620009f3565b90508381106200013e578362000140565b805b9050601481106200015357601462000155565b805b90508067ffffffffffffffff81111562000174576200017362000667565b5b604051908082528060200260200182016040528015620001a35781602001602082028036833780820191505090505b50915060005b81811015620002675760008185620001c2919062000a2e565b81548110620001d657620001d562000a8b565b5b9060005260206000200160009054906101000a900473ffffffffffffffffffffffffffffffffffffffff1683828151811062000217576200021662000a8b565b5b602002602001019073ffffffffffffffffffffffffffffffffffffffff16908173ffffffffffffffffffffffffffffffffffffffff168152505080806200025e9062000aba565b915050620001a9565b505092915050565b60008080549050905090565b6000878787878787873360405162000293906200040e565b620002a698979695949392919062000bd4565b604051809103906000f080158015620002c3573d6000803e3d6000fd5b5090506000819080600181540180825580915050600190039060005260206000200160009091909190916101000a81548173ffffffffffffffffffffffffffffffffffffffff021916908373ffffffffffffffffffffffffffffffffffffffff1602179055508073ffffffffffffffffffffffffffffffffffffffff16638da5cb5b6040518163ffffffff1660e01b815260040160206040518083038186803b1580156200037057600080fd5b505afa15801562000385573d6000803e3d6000fd5b505050506040513d601f19601f82011682018060405250810190620003ab919062000cca565b73ffffffffffffffffffffffffffffffffffffffff168173ffffffffffffffffffffffffffffffffffffffff167fa2398daac0c8053a1e3c0280916c2ec6bc884f0959c27e639a4db829b7eabfb160405160405180910390a35050505050505050565b612ed08062000cfd83390190565b6000604051905090565b600080fd5b600080fd5b6000819050919050565b620004458162000430565b81146200045157600080fd5b50565b60008135905062000465816200043a565b92915050565b6000806040838503121562000485576200048462000426565b5b6000620004958582860162000454565b9250506020620004a88582860162000454565b9150509250929050565b600081519050919050565b600082825260208201905092915050565b6000819050602082019050919050565b600073ffffffffffffffffffffffffffffffffffffffff82169050919050565b6000819050919050565b600062000529620005236200051d84620004de565b620004fe565b620004de565b9050919050565b60006200053d8262000508565b9050919050565b6000620005518262000530565b9050919050565b620005638162000544565b82525050565b600062000577838362000558565b60208301905092915050565b6000602082019050919050565b60006200059d82620004b2565b620005a98185620004bd565b9350620005b683620004ce565b8060005b83811015620005ed578151620005d1888262000569565b9750620005de8362000583565b925050600181019050620005ba565b5085935050505092915050565b6000602082019050818103600083015262000616818462000590565b905092915050565b620006298162000430565b82525050565b60006020820190506200064660008301846200061e565b92915050565b600080fd5b600080fd5b6000601f19601f8301169050919050565b7f4e487b7100000000000000000000000000000000000000000000000000000000600052604160045260246000fd5b620006a18262000656565b810181811067ffffffffffffffff82111715620006c357620006c262000667565b5b80604052505050565b6000620006d86200041c565b9050620006e6828262000696565b919050565b600067ffffffffffffffff82111562000709576200070862000667565b5b620007148262000656565b9050602081019050919050565b82818337600083830152505050565b6000620007476200074184620006eb565b620006cc565b90508281526020810184848401111562000766576200076562000651565b5b6200077384828562000721565b509392505050565b600082601f8301126200079357620007926200064c565b5b8135620007a584826020860162000730565b91505092915050565b6000620007bb82620004de565b9050919050565b620007cd81620007ae565b8114620007d957600080fd5b50565b600081359050620007ed81620007c2565b92915050565b600080600080600080600060e0888a03121562000815576200081462000426565b5b600088013567ffffffffffffffff8111156200083657620008356200042b565b5b620008448a828b016200077b565b975050602088013567ffffffffffffffff8111156200086857620008676200042b565b5b620008768a828b016200077b565b965050604088013567ffffffffffffffff8111156200089a57620008996200042b565b5b620008a88a828b016200077b565b955050606088013567ffffffffffffffff811115620008cc57620008cb6200042b565b5b620008da8a828b016200077b565b945050608088013567ffffffffffffffff811115620008fe57620008fd6200042b565b5b6200090c8a828b016200077b565b93505060a06200091f8a828b0162000454565b92505060c0620009328a828b01620007dc565b91505092959891949750929550565b600082825260208201905092915050565b7f6f6666736574206f7574206f6620626f756e6473000000000000000000000000600082015250565b60006200098a60148362000941565b9150620009978262000952565b602082019050919050565b60006020820190508181036000830152620009bd816200097b565b9050919050565b7f4e487b7100000000000000000000000000000000000000000000000000000000600052601160045260246000fd5b600062000a008262000430565b915062000a0d8362000430565b92508282101562000a235762000a22620009c4565b5b828203905092915050565b600062000a3b8262000430565b915062000a488362000430565b9250827fffffffffffffffffffffffffffffffffffffffffffffffffffffffffffffffff0382111562000a805762000a7f620009c4565b5b828201905092915050565b7f4e487b7100000000000000000000000000000000000000000000000000000000600052603260045260246000fd5b600062000ac78262000430565b91507fffffffffffffffffffffffffffffffffffffffffffffffffffffffffffffffff82141562000afd5762000afc620009c4565b5b600182019050919050565b600081519050919050565b60005b8381101562000b3357808201518184015260208101905062000b16565b8381111562000b43576000848401525b50505050565b600062000b568262000b08565b62000b62818562000941565b935062000b7481856020860162000b13565b62000b7f8162000656565b840191505092915050565b600062000b978262000508565b9050919050565b600062000bab8262000b8a565b9050919050565b62000bbd8162000b9e565b82525050565b62000bce81620007ae565b82525050565b600061010082019050818103600083015262000bf1818b62000b49565b9050818103602083015262000c07818a62000b49565b9050818103604083015262000c1d818962000b49565b9050818103606083015262000c33818862000b49565b9050818103608083015262000c49818762000b49565b905062000c5a60a08301866200061e565b62000c6960c083018562000bb2565b62000c7860e083018462000bc3565b9998505050505050505050565b600062000c9282620004de565b9050919050565b62000ca48162000c85565b811462000cb057600080fd5b50565b60008151905062000cc48162000c99565b92915050565b60006020828403121562000ce35762000ce262000426565b5b600062000cf38482850162000cb3565b9150509291505056fe60806040523480156200001157600080fd5b5060405162002ed038038062002ed0833981810160405281019062000037919062000678565b620000576200004b6200013b60201b60201c565b6200014360201b60201c565b86600390805190602001906200006f92919062000346565b5085600490805190602001906200008892919062000346565b508460059080519060200190620000a192919062000346565b5080600660006101000a81548173ffffffffffffffffffffffffffffffffffffffff021916908373ffffffffffffffffffffffffffffffffffffffff1602179055508360079080519060200190620000fb92919062000346565b5082600c8190555087600890805190602001906200011b92919062000346565b506200012d826200020760201b60201c565b50505050505050506200095c565b600033905090565b60008060009054906101000a900473ffffffffffffffffffffffffffffffffffffffff169050816000806101000a81548173ffffffffffffffffffffffffffffffffffffffff021916908373ffffffffffffffffffffffffffffffffffffffff1602179055508173ffffffffffffffffffffffffffffffffffffffff168173ffffffffffffffffffffffffffffffffffffffff167f8be0079c531659141344cd1fd0a4f28419497f9722a3daafe3b4186f6b6457e060405160405180910390a35050565b620002176200013b60201b60201c565b73ffffffffffffffffffffffffffffffffffffffff166200023d6200031d60201b60201c565b73ffffffffffffffffffffffffffffffffffffffff161462000296576040517f08c379a00000000000000000000000000000000000000000000000000000000081526004016200028d906200083d565b60405180910390fd5b600073ffffffffffffffffffffffffffffffffffffffff168173ffffffffffffffffffffffffffffffffffffffff16141562000309576040517f08c379a00000000000000000000000000000000000000000000000000000000081526004016200030090620008d5565b60405180910390fd5b6200031a816200014360201b60201c565b50565b60008060009054906101000a900473ffffffffffffffffffffffffffffffffffffffff16905090565b828054620003549062000926565b90600052602060002090601f016020900481019282620003785760008555620003c4565b82601f106200039357805160ff1916838001178555620003c4565b82800160010185558215620003c4579182015b82811115620003c3578251825591602001919060010190620003a6565b5b509050620003d39190620003d7565b5090565b5b80821115620003f2576000816000905550600101620003d8565b5090565b6000604051905090565b600080fd5b600080fd5b600080fd5b600080fd5b6000601f19601f8301169050919050565b7f4e487b7100000000000000000000000000000000000000000000000000000000600052604160045260246000fd5b6200045f8262000414565b810181811067ffffffffffffffff8211171562000481576200048062000425565b5b80604052505050565b600062000496620003f6565b9050620004a4828262000454565b919050565b600067ffffffffffffffff821115620004c757620004c662000425565b5b620004d28262000414565b9050602081019050919050565b60005b83811015620004ff578082015181840152602081019050620004e2565b838111156200050f576000848401525b50505050565b60006200052c6200052684620004a9565b6200048a565b9050828152602081018484840111156200054b576200054a6200040f565b5b62000558848285620004df565b509392505050565b600082601f8301126200057857620005776200040a565b5b81516200058a84826020860162000515565b91505092915050565b6000819050919050565b620005a88162000593565b8114620005b457600080fd5b50565b600081519050620005c8816200059d565b92915050565b600073ffffffffffffffffffffffffffffffffffffffff82169050919050565b6000620005fb82620005ce565b9050919050565b6200060d81620005ee565b81146200061957600080fd5b50565b6000815190506200062d8162000602565b92915050565b60006200064082620005ce565b9050919050565b620006528162000633565b81146200065e57600080fd5b50565b600081519050620006728162000647565b92915050565b600080600080600080600080610100898b0312156200069c576200069b62000400565b5b600089015167ffffffffffffffff811115620006bd57620006bc62000405565b5b620006cb8b828c0162000560565b985050602089015167ffffffffffffffff811115620006ef57620006ee62000405565b5b620006fd8b828c0162000560565b975050604089015167ffffffffffffffff81111562000721576200072062000405565b5b6200072f8b828c0162000560565b965050606089015167ffffffffffffffff81111562000753576200075262000405565b5b620007618b828c0162000560565b955050608089015167ffffffffffffffff81111562000785576200078462000405565b5b620007938b828c0162000560565b94505060a0620007a68b828c01620005b7565b93505060c0620007b98b828c016200061c565b92505060e0620007cc8b828c0162000661565b9150509295985092959890939650565b600082825260208201905092915050565b7f4f776e61626c653a2063616c6c6572206973206e6f7420746865206f776e6572600082015250565b600062000825602083620007dc565b91506200083282620007ed565b602082019050919050565b60006020820190508181036000830152620008588162000816565b9050919050565b7f4f776e61626c653a206e6577206f776e657220697320746865207a65726f206160008201527f6464726573730000000000000000000000000000000000000000000000000000602082015250565b6000620008bd602683620007dc565b9150620008ca826200085f565b604082019050919050565b60006020820190508181036000830152620008f081620008ae565b9050919050565b7f4e487b7100000000000000000000000000000000000000000000000000000000600052602260045260246000fd5b600060028204905060018216806200093f57607f821691505b60208210811415620009565762000955620008f7565b5b50919050565b612564806200096c6000396000f3fe6080604052600436106101bb5760003560e01c8063715018a6116100ec578063b2a87fc31161008a578063de2ed89311610064578063de2ed893146105fc578063e25f841614610627578063ef430aa614610652578063f2fde38b1461067d576101f5565b8063b2a87fc31461057d578063b90497e0146105a8578063d7d1bbdb146105d3576101f5565b806382fde093116100c657806382fde093146104d35780638a9cfd55146104fe5780638da5cb5b14610527578063937e09b114610552576101f5565b8063715018a61461044f5780637284e4161461046657806381d12c5814610491576101f5565b80631fbed579116101595780633410452a116101335780633410452a146103b757806338af3eed146103e25780633ccfd60b1461040d5780634405f93214610424576101f5565b80631fbed5791461032657806322c8077f146103635780632d7788db1461038e576101f5565b80630a144391116101955780630a144391146102795780631653441c146102b65780631c31f710146102d25780631f522595146102fb576101f5565b80630180b97c146101fa578063034410061461022557806306fdde031461024e576101f5565b366101f5576101d5346009546106a690919063ffffffff16565b600981905550600a60008154809291906101ee90611b82565b9190505550005b600080fd5b34801561020657600080fd5b5061020f6106bc565b60405161021c9190611bda565b60405180910390f35b34801561023157600080fd5b5061024c60048036038101906102479190611c35565b6106c9565b005b34801561025a57600080fd5b506102636108b3565b6040516102709190611cfb565b60405180910390f35b34801561028557600080fd5b506102a0600480360381019061029b9190611d7b565b610941565b6040516102ad9190611dc3565b60405180910390f35b6102d060048036038101906102cb9190611f13565b610961565b005b3480156102de57600080fd5b506102f960048036038101906102f49190611fc9565b610b3a565b005b34801561030757600080fd5b50610310610bfa565b60405161031d9190611bda565b60405180910390f35b34801561033257600080fd5b5061034d60048036038101906103489190611c35565b610c00565b60405161035a9190612005565b60405180910390f35b34801561036f57600080fd5b50610378610c3f565b6040516103859190611dc3565b60405180910390f35b34801561039a57600080fd5b506103b560048036038101906103b09190611c35565b610c93565b005b3480156103c357600080fd5b506103cc610e1c565b6040516103d99190611bda565b60405180910390f35b3480156103ee57600080fd5b506103f7610e29565b604051610404919061202f565b60405180910390f35b34801561041957600080fd5b50610422610e4f565b005b34801561043057600080fd5b50610439610f7b565b6040516104469190611cfb565b60405180910390f35b34801561045b57600080fd5b50610464611009565b005b34801561047257600080fd5b5061047b611091565b6040516104889190611cfb565b60405180910390f35b34801561049d57600080fd5b506104b860048036038101906104b39190611c35565b61111f565b6040516104ca9695949392919061204a565b60405180910390f35b3480156104df57600080fd5b506104e8611220565b6040516104f59190611bda565b60405180910390f35b34801561050a57600080fd5b50610525600480360381019061052091906120b2565b611226565b005b34801561053357600080fd5b5061053c611362565b6040516105499190612005565b60405180910390f35b34801561055e57600080fd5b5061056761138b565b6040516105749190611bda565b60405180910390f35b34801561058957600080fd5b50610592611391565b60405161059f9190611bda565b60405180910390f35b3480156105b457600080fd5b506105bd611397565b6040516105ca9190611cfb565b60405180910390f35b3480156105df57600080fd5b506105fa60048036038101906105f59190611c35565b611425565b005b34801561060857600080fd5b506106116115ae565b60405161061e9190611bda565b60405180910390f35b34801561063357600080fd5b5061063c6115b4565b60405161064991906122c8565b60405180910390f35b34801561065e57600080fd5b5061066761180f565b6040516106749190611cfb565b60405180910390f35b34801561068957600080fd5b506106a4600480360381019061069f9190611d7b565b61189d565b005b600081836106b491906122ea565b905092915050565b6000600180549050905090565b6106d1611995565b73ffffffffffffffffffffffffffffffffffffffff166106ef611362565b73ffffffffffffffffffffffffffffffffffffffff1614610745576040517f08c379a000000000000000000000000000000000000000000000000000000000815260040161073c9061238c565b60405180910390fd5b6002600f5461075491906123db565b600282815481106107685761076761240c565b5b9060005260206000209060060201600301541161078457600080fd5b600281815481106107985761079761240c565b5b906000526020600020906006020160020160149054906101000a900460ff16156107c157600080fd5b600281815481106107d5576107d461240c565b5b906000526020600020906006020160020160009054906101000a900473ffffffffffffffffffffffffffffffffffffffff1673ffffffffffffffffffffffffffffffffffffffff166108fc600283815481106108345761083361240c565b5b9060005260206000209060060201600101549081150290604051600060405180830381858888f19350505050158015610871573d6000803e3d6000fd5b506001600282815481106108885761088761240c565b5b906000526020600020906006020160020160146101000a81548160ff02191690831515021790555050565b600380546108c09061246a565b80601f01602080910402602001604051908101604052809291908181526020018280546108ec9061246a565b80156109395780601f1061090e57610100808354040283529160200191610939565b820191906000526020600020905b81548152906001019060200180831161091c57829003601f168201915b505050505081565b600e6020528060005260406000206000915054906101000a900460ff1681565b60006040518060a001604052803481526020013373ffffffffffffffffffffffffffffffffffffffff16815260200184815260200183815260200142815250905060018190806001815401808255809150506001900390600052602060002090600502016000909190919091506000820151816000015560208201518160010160006101000a81548173ffffffffffffffffffffffffffffffffffffffff021916908373ffffffffffffffffffffffffffffffffffffffff1602179055506040820151816002019080519060200190610a3b929190611a61565b506060820151816003019080519060200190610a58929190611a61565b50608082015181600401555050610a71600954346106a6565b6009819055506001600e60003373ffffffffffffffffffffffffffffffffffffffff1673ffffffffffffffffffffffffffffffffffffffff16815260200190815260200160002060006101000a81548160ff021916908315150217905550600a6000815480929190610ae290611b82565b91905055503373ffffffffffffffffffffffffffffffffffffffff167f264f630d9efa0d07053a31163641d9fcc0adafc9d9e76f1c37c2ce3a558d2c5234604051610b2d9190611bda565b60405180910390a2505050565b610b42611995565b73ffffffffffffffffffffffffffffffffffffffff16610b60611362565b73ffffffffffffffffffffffffffffffffffffffff1614610bb6576040517f08c379a0000000000000000000000000000000000000000000000000000000008152600401610bad9061238c565b60405180910390fd5b80600660006101000a81548173ffffffffffffffffffffffffffffffffffffffff021916908373ffffffffffffffffffffffffffffffffffffffff16021790555050565b600a5481565b600d8181548110610c1057600080fd5b906000526020600020016000915054906101000a900473ffffffffffffffffffffffffffffffffffffffff1681565b6000600e60003373ffffffffffffffffffffffffffffffffffffffff1673ffffffffffffffffffffffffffffffffffffffff16815260200190815260200160002060009054906101000a900460ff16905090565b600e60003373ffffffffffffffffffffffffffffffffffffffff1673ffffffffffffffffffffffffffffffffffffffff16815260200190815260200160002060009054906101000a900460ff16610ce957600080fd5b60028181548110610cfd57610cfc61240c565b5b906000526020600020906006020160050160003373ffffffffffffffffffffffffffffffffffffffff1673ffffffffffffffffffffffffffffffffffffffff16815260200190815260200160002060009054906101000a900460ff1615610d6357600080fd5b600060028281548110610d7957610d7861240c565b5b906000526020600020906006020160050160003373ffffffffffffffffffffffffffffffffffffffff1673ffffffffffffffffffffffffffffffffffffffff16815260200190815260200160002060006101000a81548160ff02191690831515021790555060028181548110610df257610df161240c565b5b90600052602060002090600602016004016000815480929190610e1490611b82565b919050555050565b6000600280549050905090565b600660009054906101000a900473ffffffffffffffffffffffffffffffffffffffff1681565b610e57611995565b73ffffffffffffffffffffffffffffffffffffffff16610e75611362565b73ffffffffffffffffffffffffffffffffffffffff1614610ecb576040517f08c379a0000000000000000000000000000000000000000000000000000000008152600401610ec29061238c565b60405180910390fd5b6000479050600660009054906101000a900473ffffffffffffffffffffffffffffffffffffffff1673ffffffffffffffffffffffffffffffffffffffff166108fc829081150290604051600060405180830381858888f19350505050158015610f38573d6000803e3d6000fd5b5060006009819055507f5b6b431d4476a211bb7d41c20d1aab9ae2321deee0d20be3d9fc9b1093fa6e3d81604051610f709190611bda565b60405180910390a150565b60088054610f889061246a565b80601f0160208091040260200160405190810160405280929190818152602001828054610fb49061246a565b80156110015780601f10610fd657610100808354040283529160200191611001565b820191906000526020600020905b815481529060010190602001808311610fe457829003601f168201915b505050505081565b611011611995565b73ffffffffffffffffffffffffffffffffffffffff1661102f611362565b73ffffffffffffffffffffffffffffffffffffffff1614611085576040517f08c379a000000000000000000000000000000000000000000000000000000000815260040161107c9061238c565b60405180910390fd5b61108f600061199d565b565b6005805461109e9061246a565b80601f01602080910402602001604051908101604052809291908181526020018280546110ca9061246a565b80156111175780601f106110ec57610100808354040283529160200191611117565b820191906000526020600020905b8154815290600101906020018083116110fa57829003601f168201915b505050505081565b6002818154811061112f57600080fd5b90600052602060002090600602016000915090508060000180546111529061246a565b80601f016020809104026020016040519081016040528092919081815260200182805461117e9061246a565b80156111cb5780601f106111a0576101008083540402835291602001916111cb565b820191906000526020600020905b8154815290600101906020018083116111ae57829003601f168201915b5050505050908060010154908060020160009054906101000a900473ffffffffffffffffffffffffffffffffffffffff16908060020160149054906101000a900460ff16908060030154908060040154905086565b600f5481565b61122e611995565b73ffffffffffffffffffffffffffffffffffffffff1661124c611362565b73ffffffffffffffffffffffffffffffffffffffff16146112a2576040517f08c379a00000000000000000000000000000000000000000000000000000000081526004016112999061238c565b60405180910390fd5b600060026001816001815401808255809150500390600052602060002090600602019050838160000190805190602001906112de929190611a61565b50828160010181905550818160020160006101000a81548173ffffffffffffffffffffffffffffffffffffffff021916908373ffffffffffffffffffffffffffffffffffffffff16021790555060008160020160146101000a81548160ff021916908315150217905550600081600301819055506000816004018190555050505050565b60008060009054906101000a900473ffffffffffffffffffffffffffffffffffffffff16905090565b600b5481565b600c5481565b600480546113a49061246a565b80601f01602080910402602001604051908101604052809291908181526020018280546113d09061246a565b801561141d5780601f106113f25761010080835404028352916020019161141d565b820191906000526020600020905b81548152906001019060200180831161140057829003601f168201915b505050505081565b600e60003373ffffffffffffffffffffffffffffffffffffffff1673ffffffffffffffffffffffffffffffffffffffff16815260200190815260200160002060009054906101000a900460ff1661147b57600080fd5b6002818154811061148f5761148e61240c565b5b906000526020600020906006020160050160003373ffffffffffffffffffffffffffffffffffffffff1673ffffffffffffffffffffffffffffffffffffffff16815260200190815260200160002060009054906101000a900460ff16156114f557600080fd5b60016002828154811061150b5761150a61240c565b5b906000526020600020906006020160050160003373ffffffffffffffffffffffffffffffffffffffff1673ffffffffffffffffffffffffffffffffffffffff16815260200190815260200160002060006101000a81548160ff021916908315150217905550600281815481106115845761158361240c565b5b906000526020600020906006020160030160008154809291906115a690611b82565b919050555050565b60095481565b60606000600a5490508067ffffffffffffffff8111156115d7576115d6611de8565b5b60405190808252806020026020018201604052801561161057816020015b6115fd611ae7565b8152602001906001900390816115f55790505b50915060005b8181101561180a57600181815481106116325761163161240c565b5b90600052602060002090600502016040518060a0016040529081600082015481526020016001820160009054906101000a900473ffffffffffffffffffffffffffffffffffffffff1673ffffffffffffffffffffffffffffffffffffffff1673ffffffffffffffffffffffffffffffffffffffff1681526020016002820180546116bb9061246a565b80601f01602080910402602001604051908101604052809291908181526020018280546116e79061246a565b80156117345780601f1061170957610100808354040283529160200191611734565b820191906000526020600020905b81548152906001019060200180831161171757829003601f168201915b5050505050815260200160038201805461174d9061246a565b80601f01602080910402602001604051908101604052809291908181526020018280546117799061246a565b80156117c65780601f1061179b576101008083540402835291602001916117c6565b820191906000526020600020905b8154815290600101906020018083116117a957829003601f168201915b505050505081526020016004820154815250508382815181106117ec576117eb61240c565b5b6020026020010181905250808061180290611b82565b915050611616565b505090565b6007805461181c9061246a565b80601f01602080910402602001604051908101604052809291908181526020018280546118489061246a565b80156118955780601f1061186a57610100808354040283529160200191611895565b820191906000526020600020905b81548152906001019060200180831161187857829003601f168201915b505050505081565b6118a5611995565b73ffffffffffffffffffffffffffffffffffffffff166118c3611362565b73ffffffffffffffffffffffffffffffffffffffff1614611919576040517f08c379a00000000000000000000000000000000000000000000000000000000081526004016119109061238c565b60405180910390fd5b600073ffffffffffffffffffffffffffffffffffffffff168173ffffffffffffffffffffffffffffffffffffffff161415611989576040517f08c379a00000000000000000000000000000000000000000000000000000000081526004016119809061250e565b60405180910390fd5b6119928161199d565b50565b600033905090565b60008060009054906101000a900473ffffffffffffffffffffffffffffffffffffffff169050816000806101000a81548173ffffffffffffffffffffffffffffffffffffffff021916908373ffffffffffffffffffffffffffffffffffffffff1602179055508173ffffffffffffffffffffffffffffffffffffffff168173ffffffffffffffffffffffffffffffffffffffff167f8be0079c531659141344cd1fd0a4f28419497f9722a3daafe3b4186f6b6457e060405160405180910390a35050565b828054611a6d9061246a565b90600052602060002090601f016020900481019282611a8f5760008555611ad6565b82601f10611aa857805160ff1916838001178555611ad6565b82800160010185558215611ad6579182015b82811115611ad5578251825591602001919060010190611aba565b5b509050611ae39190611b2c565b5090565b6040518060a0016040528060008152602001600073ffffffffffffffffffffffffffffffffffffffff1681526020016060815260200160608152602001600081525090565b5b80821115611b45576000816000905550600101611b2d565b5090565b7f4e487b7100000000000000000000000000000000000000000000000000000000600052601160045260246000fd5b6000819050919050565b6000611b8d82611b78565b91507fffffffffffffffffffffffffffffffffffffffffffffffffffffffffffffffff821415611bc057611bbf611b49565b5b600182019050919050565b611bd481611b78565b82525050565b6000602082019050611bef6000830184611bcb565b92915050565b6000604051905090565b600080fd5b600080fd5b611c1281611b78565b8114611c1d57600080fd5b50565b600081359050611c2f81611c09565b92915050565b600060208284031215611c4b57611c4a611bff565b5b6000611c5984828501611c20565b91505092915050565b600081519050919050565b600082825260208201905092915050565b60005b83811015611c9c578082015181840152602081019050611c81565b83811115611cab576000848401525b50505050565b6000601f19601f8301169050919050565b6000611ccd82611c62565b611cd78185611c6d565b9350611ce7818560208601611c7e565b611cf081611cb1565b840191505092915050565b60006020820190508181036000830152611d158184611cc2565b905092915050565b600073ffffffffffffffffffffffffffffffffffffffff82169050919050565b6000611d4882611d1d565b9050919050565b611d5881611d3d565b8114611d6357600080fd5b50565b600081359050611d7581611d4f565b92915050565b600060208284031215611d9157611d90611bff565b5b6000611d9f84828501611d66565b91505092915050565b60008115159050919050565b611dbd81611da8565b82525050565b6000602082019050611dd86000830184611db4565b92915050565b600080fd5b600080fd5b7f4e487b7100000000000000000000000000000000000000000000000000000000600052604160045260246000fd5b611e2082611cb1565b810181811067ffffffffffffffff82111715611e3f57611e3e611de8565b5b80604052505050565b6000611e52611bf5565b9050611e5e8282611e17565b919050565b600067ffffffffffffffff821115611e7e57611e7d611de8565b5b611e8782611cb1565b9050602081019050919050565b82818337600083830152505050565b6000611eb6611eb184611e63565b611e48565b905082815260208101848484011115611ed257611ed1611de3565b5b611edd848285611e94565b509392505050565b600082601f830112611efa57611ef9611dde565b5b8135611f0a848260208601611ea3565b91505092915050565b60008060408385031215611f2a57611f29611bff565b5b600083013567ffffffffffffffff811115611f4857611f47611c04565b5b611f5485828601611ee5565b925050602083013567ffffffffffffffff811115611f7557611f74611c04565b5b611f8185828601611ee5565b9150509250929050565b6000611f9682611d1d565b9050919050565b611fa681611f8b565b8114611fb157600080fd5b50565b600081359050611fc381611f9d565b92915050565b600060208284031215611fdf57611fde611bff565b5b6000611fed84828501611fb4565b91505092915050565b611fff81611d3d565b82525050565b600060208201905061201a6000830184611ff6565b92915050565b61202981611f8b565b82525050565b60006020820190506120446000830184612020565b92915050565b600060c08201905081810360008301526120648189611cc2565b90506120736020830188611bcb565b6120806040830187612020565b61208d6060830186611db4565b61209a6080830185611bcb565b6120a760a0830184611bcb565b979650505050505050565b6000806000606084860312156120cb576120ca611bff565b5b600084013567ffffffffffffffff8111156120e9576120e8611c04565b5b6120f586828701611ee5565b935050602061210686828701611c20565b925050604061211786828701611fb4565b9150509250925092565b600081519050919050565b600082825260208201905092915050565b6000819050602082019050919050565b61215681611b78565b82525050565b61216581611d3d565b82525050565b600082825260208201905092915050565b600061218782611c62565b612191818561216b565b93506121a1818560208601611c7e565b6121aa81611cb1565b840191505092915050565b600060a0830160008301516121cd600086018261214d565b5060208301516121e0602086018261215c565b50604083015184820360408601526121f8828261217c565b91505060608301518482036060860152612212828261217c565b9150506080830151612227608086018261214d565b508091505092915050565b600061223e83836121b5565b905092915050565b6000602082019050919050565b600061225e82612121565b612268818561212c565b93508360208202850161227a8561213d565b8060005b858110156122b657848403895281516122978582612232565b94506122a283612246565b925060208a0199505060018101905061227e565b50829750879550505050505092915050565b600060208201905081810360008301526122e28184612253565b905092915050565b60006122f582611b78565b915061230083611b78565b9250827fffffffffffffffffffffffffffffffffffffffffffffffffffffffffffffffff0382111561233557612334611b49565b5b828201905092915050565b7f4f776e61626c653a2063616c6c6572206973206e6f7420746865206f776e6572600082015250565b6000612376602083611c6d565b915061238182612340565b602082019050919050565b600060208201905081810360008301526123a581612369565b9050919050565b7f4e487b7100000000000000000000000000000000000000000000000000000000600052601260045260246000fd5b60006123e682611b78565b91506123f183611b78565b925082612401576124006123ac565b5b828204905092915050565b7f4e487b7100000000000000000000000000000000000000000000000000000000600052603260045260246000fd5b7f4e487b7100000000000000000000000000000000000000000000000000000000600052602260045260246000fd5b6000600282049050600182168061248257607f821691505b602082108114156124965761249561243b565b5b50919050565b7f4f776e61626c653a206e6577206f776e657220697320746865207a65726f206160008201527f6464726573730000000000000000000000000000000000000000000000000000602082015250565b60006124f8602683611c6d565b91506125038261249c565b604082019050919050565b60006020820190508181036000830152612527816124eb565b905091905056fea26469706673582212202bbf71a187fa85d6809b574d13ca27e23efa4cee823dc1e3d04f53f200aba8d464736f6c63430008090033a26469706673582212205b20061646c59a160fc7dd1339e7473d25133c95a8553e929f6bb2afb009027c64736f6c63430008090033",
  "immutableReferences": {},
  "source": "// SPDX-License-Identifier: UNLICENSED\r\n\r\npragma solidity 0.8.9;\r\n\r\nimport \"./Fundraiser.sol\";\r\n\r\ncontract FundraiserFactory {\r\n    Fundraiser[] private _fundraisers;\r\n    uint256 constant maxLimit = 20;\r\n\r\n    event FundraiserCreated(\r\n        Fundraiser indexed fundraiser,\r\n        address indexed owner\r\n    );\r\n\r\n    function createFundraiser(\r\n        string memory isRequestBased,\r\n        string memory name,\r\n        string memory imageURL,\r\n        string memory description,\r\n        string memory category,\r\n        // uint256 minimumContribution,\r\n        uint256 targetToAchieve,\r\n        address payable beneficiary\r\n    ) public {\r\n        Fundraiser fundraiser = new Fundraiser(\r\n            isRequestBased,\r\n            name,\r\n            imageURL,\r\n            description,\r\n            category,\r\n            // minimumContribution,\r\n            targetToAchieve,\r\n            beneficiary,\r\n            payable(msg.sender)\r\n        );\r\n        _fundraisers.push(fundraiser);\r\n        emit FundraiserCreated(fundraiser, fundraiser.owner());\r\n    }\r\n\r\n    function fundraisersCount() public view returns (uint256) {\r\n        return _fundraisers.length;\r\n    }\r\n\r\n    function fundraisers(uint256 limit, uint256 offset)\r\n        public\r\n        view\r\n        returns (Fundraiser[] memory coll)\r\n    {\r\n        require(offset <= fundraisersCount(), \"offset out of bounds\");\r\n\r\n        uint256 size = fundraisersCount() - offset;\r\n        size = size < limit ? size : limit;\r\n        size = size < maxLimit ? size : maxLimit;\r\n        coll = new Fundraiser[](size);\r\n\r\n        for (uint256 i = 0; i < size; i++) {\r\n            coll[i] = _fundraisers[offset + i];\r\n        }\r\n\r\n        return coll;\r\n    }\r\n}\r\n\r\n// pragma solidity 0.8.9;\r\n\r\n// import \"./Fundraiser.sol\";\r\n\r\n// contract FundraiserFactory {\r\n//     Fundraiser[] private _fundraisers;\r\n//     uint256 constant maxLimit = 20;\r\n\r\n//     event FundraiserCreated(\r\n//         Fundraiser indexed fundraiser,\r\n//         address indexed owner\r\n//     );\r\n\r\n//     function createFundraiser(\r\n//         string memory name,\r\n//         string memory imageURL,\r\n//         string memory description,\r\n//         // uint256 minimumContribution,\r\n//         uint256 targetToAchieve,\r\n//         address payable beneficiary\r\n//     ) public {\r\n//         Fundraiser fundraiser = new Fundraiser(\r\n//             name,\r\n//             imageURL,\r\n//             description,\r\n//             // minimumContribution,\r\n//             beneficiary,\r\n//             targetToAchieve,\r\n//             payable(msg.sender)\r\n//         );\r\n//         _fundraisers.push(fundraiser);\r\n//         emit FundraiserCreated(fundraiser, fundraiser.owner());\r\n//     }\r\n\r\n//     function fundraisersCount() public view returns (uint256) {\r\n//         return _fundraisers.length;\r\n//     }\r\n\r\n//     function fundraisers(uint256 limit, uint256 offset)\r\n//         public\r\n//         view\r\n//         returns (Fundraiser[] memory coll)\r\n//     {\r\n//         require(offset <= fundraisersCount(), \"offset out of bounds\");\r\n\r\n//         uint256 size = fundraisersCount() - offset;\r\n//         size = size < limit ? size : limit;\r\n//         size = size < maxLimit ? size : maxLimit;\r\n//         coll = new Fundraiser[](size);\r\n\r\n//         for (uint256 i = 0; i < size; i++) {\r\n//             coll[i] = _fundraisers[offset + i];\r\n//         }\r\n\r\n//         return coll;\r\n//     }\r\n// }\r\n",
  "sourcePath": "C:\\Users\\ads73\\OneDrive\\Desktop\\All Folders\\Workspaces\\DAPP\\Make-A-Difference\\contracts\\FundraiserFactory.sol",
  "compiler": {
    "name": "solc",
    "version": "0.8.9+commit.e5eed63a.Emscripten.clang"
  },
  "schemaVersion": "3.4.5",
  "updatedAt": "2022-04-15T09:50:07.076Z",
  "networkType": "ethereum",
  "devdoc": {
    "kind": "dev",
    "methods": {},
    "version": 1
  },
  "userdoc": {
    "kind": "user",
    "methods": {},
    "version": 1
  }
}