{
  "contractName": "Fundraiser",
  "abi": [
    {
      "inputs": [
        {
          "internalType": "string",
          "name": "_name",
          "type": "string"
        },
        {
          "internalType": "string",
          "name": "_imageURL",
          "type": "string"
        },
        {
          "internalType": "string",
          "name": "_description",
          "type": "string"
        },
        {
          "internalType": "string",
          "name": "_category",
          "type": "string"
        },
        {
          "internalType": "uint256",
          "name": "_targetToAchieve",
          "type": "uint256"
        },
        {
          "internalType": "address",
          "name": "_owner",
          "type": "address"
        },
        {
          "internalType": "address payable",
          "name": "_beneficiary",
          "type": "address"
        }
      ],
      "stateMutability": "nonpayable",
      "type": "constructor"
    },
    {
      "anonymous": false,
      "inputs": [
        {
          "indexed": true,
          "internalType": "address",
          "name": "donor",
          "type": "address"
        },
        {
          "indexed": false,
          "internalType": "uint256",
          "name": "value",
          "type": "uint256"
        }
      ],
      "name": "DonationReceived",
      "type": "event"
    },
    {
      "anonymous": false,
      "inputs": [
        {
          "indexed": true,
          "internalType": "address",
          "name": "previousOwner",
          "type": "address"
        },
        {
          "indexed": true,
          "internalType": "address",
          "name": "newOwner",
          "type": "address"
        }
      ],
      "name": "OwnershipTransferred",
      "type": "event"
    },
    {
      "anonymous": false,
      "inputs": [
        {
          "indexed": false,
          "internalType": "uint256",
          "name": "amount",
          "type": "uint256"
        }
      ],
      "name": "Withdraw",
      "type": "event"
    },
    {
      "inputs": [
        {
          "internalType": "address",
          "name": "",
          "type": "address"
        }
      ],
      "name": "approvers",
      "outputs": [
        {
          "internalType": "bool",
          "name": "",
          "type": "bool"
        }
      ],
      "stateMutability": "view",
      "type": "function"
    },
    {
      "inputs": [],
      "name": "approversCount",
      "outputs": [
        {
          "internalType": "uint256",
          "name": "",
          "type": "uint256"
        }
      ],
      "stateMutability": "view",
      "type": "function"
    },
    {
      "inputs": [],
      "name": "beneficiary",
      "outputs": [
        {
          "internalType": "address payable",
          "name": "",
          "type": "address"
        }
      ],
      "stateMutability": "view",
      "type": "function"
    },
    {
      "inputs": [],
      "name": "category",
      "outputs": [
        {
          "internalType": "string",
          "name": "",
          "type": "string"
        }
      ],
      "stateMutability": "view",
      "type": "function"
    },
    {
      "inputs": [
        {
          "internalType": "uint256",
          "name": "",
          "type": "uint256"
        }
      ],
      "name": "contributers",
      "outputs": [
        {
          "internalType": "address",
          "name": "",
          "type": "address"
        }
      ],
      "stateMutability": "view",
      "type": "function"
    },
    {
      "inputs": [],
      "name": "description",
      "outputs": [
        {
          "internalType": "string",
          "name": "",
          "type": "string"
        }
      ],
      "stateMutability": "view",
      "type": "function"
    },
    {
      "inputs": [],
      "name": "donationsCount",
      "outputs": [
        {
          "internalType": "uint256",
          "name": "",
          "type": "uint256"
        }
      ],
      "stateMutability": "view",
      "type": "function"
    },
    {
      "inputs": [],
      "name": "imageURL",
      "outputs": [
        {
          "internalType": "string",
          "name": "",
          "type": "string"
        }
      ],
      "stateMutability": "view",
      "type": "function"
    },
    {
      "inputs": [],
      "name": "isRequestBased",
      "outputs": [
        {
          "internalType": "bool",
          "name": "",
          "type": "bool"
        }
      ],
      "stateMutability": "view",
      "type": "function"
    },
    {
      "inputs": [],
      "name": "minimumContribution",
      "outputs": [
        {
          "internalType": "uint256",
          "name": "",
          "type": "uint256"
        }
      ],
      "stateMutability": "view",
      "type": "function"
    },
    {
      "inputs": [],
      "name": "name",
      "outputs": [
        {
          "internalType": "string",
          "name": "",
          "type": "string"
        }
      ],
      "stateMutability": "view",
      "type": "function"
    },
    {
      "inputs": [],
      "name": "owner",
      "outputs": [
        {
          "internalType": "address",
          "name": "",
          "type": "address"
        }
      ],
      "stateMutability": "view",
      "type": "function"
    },
    {
      "inputs": [],
      "name": "renounceOwnership",
      "outputs": [],
      "stateMutability": "nonpayable",
      "type": "function"
    },
    {
      "inputs": [
        {
          "internalType": "uint256",
          "name": "",
          "type": "uint256"
        }
      ],
      "name": "requests",
      "outputs": [
        {
          "internalType": "string",
          "name": "description",
          "type": "string"
        },
        {
          "internalType": "uint256",
          "name": "value",
          "type": "uint256"
        },
        {
          "internalType": "address payable",
          "name": "recipient",
          "type": "address"
        },
        {
          "internalType": "bool",
          "name": "complete",
          "type": "bool"
        },
        {
          "internalType": "uint256",
          "name": "approvalCount",
          "type": "uint256"
        },
        {
          "internalType": "uint256",
          "name": "rejectionCount",
          "type": "uint256"
        }
      ],
      "stateMutability": "view",
      "type": "function"
    },
    {
      "inputs": [],
      "name": "targetToAchieve",
      "outputs": [
        {
          "internalType": "uint256",
          "name": "",
          "type": "uint256"
        }
      ],
      "stateMutability": "view",
      "type": "function"
    },
    {
      "inputs": [],
      "name": "totalDonations",
      "outputs": [
        {
          "internalType": "uint256",
          "name": "",
          "type": "uint256"
        }
      ],
      "stateMutability": "view",
      "type": "function"
    },
    {
      "inputs": [
        {
          "internalType": "address",
          "name": "newOwner",
          "type": "address"
        }
      ],
      "name": "transferOwnership",
      "outputs": [],
      "stateMutability": "nonpayable",
      "type": "function"
    },
    {
      "stateMutability": "payable",
      "type": "receive"
    },
    {
      "inputs": [
        {
          "internalType": "address payable",
          "name": "_beneficiary",
          "type": "address"
        }
      ],
      "name": "setBeneficiary",
      "outputs": [],
      "stateMutability": "nonpayable",
      "type": "function"
    },
    {
      "inputs": [],
      "name": "myDonationsCount",
      "outputs": [
        {
          "internalType": "uint256",
          "name": "",
          "type": "uint256"
        }
      ],
      "stateMutability": "view",
      "type": "function"
    },
    {
      "inputs": [
        {
          "internalType": "string",
          "name": "_message",
          "type": "string"
        },
        {
          "internalType": "string",
          "name": "_name",
          "type": "string"
        }
      ],
      "name": "donate",
      "outputs": [],
      "stateMutability": "payable",
      "type": "function"
    },
    {
      "inputs": [],
      "name": "getDonations",
      "outputs": [
        {
          "components": [
            {
              "internalType": "uint256",
              "name": "value",
              "type": "uint256"
            },
            {
              "internalType": "address",
              "name": "sender",
              "type": "address"
            },
            {
              "internalType": "string",
              "name": "message",
              "type": "string"
            },
            {
              "internalType": "string",
              "name": "name",
              "type": "string"
            },
            {
              "internalType": "uint256",
              "name": "date",
              "type": "uint256"
            }
          ],
          "internalType": "struct Fundraiser.Donation[]",
          "name": "coll",
          "type": "tuple[]"
        }
      ],
      "stateMutability": "view",
      "type": "function"
    },
    {
      "inputs": [],
      "name": "withdraw",
      "outputs": [],
      "stateMutability": "nonpayable",
      "type": "function"
    },
    {
      "inputs": [
        {
          "internalType": "string",
          "name": "_description",
          "type": "string"
        },
        {
          "internalType": "uint256",
          "name": "_value",
          "type": "uint256"
        },
        {
          "internalType": "address payable",
          "name": "_recipient",
          "type": "address"
        }
      ],
      "name": "createRequest",
      "outputs": [],
      "stateMutability": "nonpayable",
      "type": "function"
    },
    {
      "inputs": [
        {
          "internalType": "uint256",
          "name": "index",
          "type": "uint256"
        }
      ],
      "name": "approveRequest",
      "outputs": [],
      "stateMutability": "nonpayable",
      "type": "function"
    },
    {
      "inputs": [
        {
          "internalType": "uint256",
          "name": "index",
          "type": "uint256"
        }
      ],
      "name": "rejectRequest",
      "outputs": [],
      "stateMutability": "nonpayable",
      "type": "function"
    },
    {
      "inputs": [
        {
          "internalType": "uint256",
          "name": "index",
          "type": "uint256"
        }
      ],
      "name": "finalizeRequest",
      "outputs": [],
      "stateMutability": "nonpayable",
      "type": "function"
    },
    {
      "inputs": [],
      "name": "getRequestsCount",
      "outputs": [
        {
          "internalType": "uint256",
          "name": "",
          "type": "uint256"
        }
      ],
      "stateMutability": "view",
      "type": "function"
    },
    {
      "inputs": [],
      "name": "isDonor",
      "outputs": [
        {
          "internalType": "bool",
          "name": "",
          "type": "bool"
        }
      ],
      "stateMutability": "view",
      "type": "function"
    }
  ],
  "bytecode": "0x60806040523480156200001157600080fd5b5060405162002e0638038062002e0683398181016040528101906200003791906200065e565b620000576200004b6200012160201b60201c565b6200012960201b60201c565b86600390805190602001906200006f9291906200032c565b508560049080519060200190620000889291906200032c565b508460059080519060200190620000a19291906200032c565b5080600660006101000a81548173ffffffffffffffffffffffffffffffffffffffff021916908373ffffffffffffffffffffffffffffffffffffffff1602179055508360079080519060200190620000fb9291906200032c565b5082600c819055506200011482620001ed60201b60201c565b505050505050506200090d565b600033905090565b60008060009054906101000a900473ffffffffffffffffffffffffffffffffffffffff169050816000806101000a81548173ffffffffffffffffffffffffffffffffffffffff021916908373ffffffffffffffffffffffffffffffffffffffff1602179055508173ffffffffffffffffffffffffffffffffffffffff168173ffffffffffffffffffffffffffffffffffffffff167f8be0079c531659141344cd1fd0a4f28419497f9722a3daafe3b4186f6b6457e060405160405180910390a35050565b620001fd6200012160201b60201c565b73ffffffffffffffffffffffffffffffffffffffff16620002236200030360201b60201c565b73ffffffffffffffffffffffffffffffffffffffff16146200027c576040517f08c379a00000000000000000000000000000000000000000000000000000000081526004016200027390620007ee565b60405180910390fd5b600073ffffffffffffffffffffffffffffffffffffffff168173ffffffffffffffffffffffffffffffffffffffff161415620002ef576040517f08c379a0000000000000000000000000000000000000000000000000000000008152600401620002e69062000886565b60405180910390fd5b62000300816200012960201b60201c565b50565b60008060009054906101000a900473ffffffffffffffffffffffffffffffffffffffff16905090565b8280546200033a90620008d7565b90600052602060002090601f0160209004810192826200035e5760008555620003aa565b82601f106200037957805160ff1916838001178555620003aa565b82800160010185558215620003aa579182015b82811115620003a95782518255916020019190600101906200038c565b5b509050620003b99190620003bd565b5090565b5b80821115620003d8576000816000905550600101620003be565b5090565b6000604051905090565b600080fd5b600080fd5b600080fd5b600080fd5b6000601f19601f8301169050919050565b7f4e487b7100000000000000000000000000000000000000000000000000000000600052604160045260246000fd5b6200044582620003fa565b810181811067ffffffffffffffff821117156200046757620004666200040b565b5b80604052505050565b60006200047c620003dc565b90506200048a82826200043a565b919050565b600067ffffffffffffffff821115620004ad57620004ac6200040b565b5b620004b882620003fa565b9050602081019050919050565b60005b83811015620004e5578082015181840152602081019050620004c8565b83811115620004f5576000848401525b50505050565b6000620005126200050c846200048f565b62000470565b905082815260208101848484011115620005315762000530620003f5565b5b6200053e848285620004c5565b509392505050565b600082601f8301126200055e576200055d620003f0565b5b815162000570848260208601620004fb565b91505092915050565b6000819050919050565b6200058e8162000579565b81146200059a57600080fd5b50565b600081519050620005ae8162000583565b92915050565b600073ffffffffffffffffffffffffffffffffffffffff82169050919050565b6000620005e182620005b4565b9050919050565b620005f381620005d4565b8114620005ff57600080fd5b50565b6000815190506200061381620005e8565b92915050565b60006200062682620005b4565b9050919050565b620006388162000619565b81146200064457600080fd5b50565b60008151905062000658816200062d565b92915050565b600080600080600080600060e0888a03121562000680576200067f620003e6565b5b600088015167ffffffffffffffff811115620006a157620006a0620003eb565b5b620006af8a828b0162000546565b975050602088015167ffffffffffffffff811115620006d357620006d2620003eb565b5b620006e18a828b0162000546565b965050604088015167ffffffffffffffff811115620007055762000704620003eb565b5b620007138a828b0162000546565b955050606088015167ffffffffffffffff811115620007375762000736620003eb565b5b620007458a828b0162000546565b9450506080620007588a828b016200059d565b93505060a06200076b8a828b0162000602565b92505060c06200077e8a828b0162000647565b91505092959891949750929550565b600082825260208201905092915050565b7f4f776e61626c653a2063616c6c6572206973206e6f7420746865206f776e6572600082015250565b6000620007d66020836200078d565b9150620007e3826200079e565b602082019050919050565b600060208201905081810360008301526200080981620007c7565b9050919050565b7f4f776e61626c653a206e6577206f776e657220697320746865207a65726f206160008201527f6464726573730000000000000000000000000000000000000000000000000000602082015250565b60006200086e6026836200078d565b91506200087b8262000810565b604082019050919050565b60006020820190508181036000830152620008a1816200085f565b9050919050565b7f4e487b7100000000000000000000000000000000000000000000000000000000600052602260045260246000fd5b60006002820490506001821680620008f057607f821691505b60208210811415620009075762000906620008a8565b5b50919050565b6124e9806200091d6000396000f3fe6080604052600436106101bb5760003560e01c8063715018a6116100ec578063b2a87fc31161008a578063de2ed89311610064578063de2ed893146105fc578063e25f841614610627578063ef430aa614610652578063f2fde38b1461067d576101f5565b8063b2a87fc31461057d578063b90497e0146105a8578063d7d1bbdb146105d3576101f5565b806382fde093116100c657806382fde093146104d35780638a9cfd55146104fe5780638da5cb5b14610527578063937e09b114610552576101f5565b8063715018a61461044f5780637284e4161461046657806381d12c5814610491576101f5565b80631fbed579116101595780633410452a116101335780633410452a146103b757806338af3eed146103e25780633ccfd60b1461040d5780634405f93214610424576101f5565b80631fbed5791461032657806322c8077f146103635780632d7788db1461038e576101f5565b80630a144391116101955780630a144391146102795780631653441c146102b65780631c31f710146102d25780631f522595146102fb576101f5565b80630180b97c146101fa578063034410061461022557806306fdde031461024e576101f5565b366101f5576101d5346009546106a690919063ffffffff16565b600981905550600a60008154809291906101ee90611b07565b9190505550005b600080fd5b34801561020657600080fd5b5061020f6106bc565b60405161021c9190611b5f565b60405180910390f35b34801561023157600080fd5b5061024c60048036038101906102479190611bba565b6106c9565b005b34801561025a57600080fd5b506102636108b3565b6040516102709190611c80565b60405180910390f35b34801561028557600080fd5b506102a0600480360381019061029b9190611d00565b610941565b6040516102ad9190611d48565b60405180910390f35b6102d060048036038101906102cb9190611e98565b610961565b005b3480156102de57600080fd5b506102f960048036038101906102f49190611f4e565b610b3a565b005b34801561030757600080fd5b50610310610bfa565b60405161031d9190611b5f565b60405180910390f35b34801561033257600080fd5b5061034d60048036038101906103489190611bba565b610c00565b60405161035a9190611f8a565b60405180910390f35b34801561036f57600080fd5b50610378610c3f565b6040516103859190611d48565b60405180910390f35b34801561039a57600080fd5b506103b560048036038101906103b09190611bba565b610c93565b005b3480156103c357600080fd5b506103cc610e1c565b6040516103d99190611b5f565b60405180910390f35b3480156103ee57600080fd5b506103f7610e29565b6040516104049190611fb4565b60405180910390f35b34801561041957600080fd5b50610422610e4f565b005b34801561043057600080fd5b50610439610f7b565b6040516104469190611d48565b60405180910390f35b34801561045b57600080fd5b50610464610f8e565b005b34801561047257600080fd5b5061047b611016565b6040516104889190611c80565b60405180910390f35b34801561049d57600080fd5b506104b860048036038101906104b39190611bba565b6110a4565b6040516104ca96959493929190611fcf565b60405180910390f35b3480156104df57600080fd5b506104e86111a5565b6040516104f59190611b5f565b60405180910390f35b34801561050a57600080fd5b5061052560048036038101906105209190612037565b6111ab565b005b34801561053357600080fd5b5061053c6112e7565b6040516105499190611f8a565b60405180910390f35b34801561055e57600080fd5b50610567611310565b6040516105749190611b5f565b60405180910390f35b34801561058957600080fd5b50610592611316565b60405161059f9190611b5f565b60405180910390f35b3480156105b457600080fd5b506105bd61131c565b6040516105ca9190611c80565b60405180910390f35b3480156105df57600080fd5b506105fa60048036038101906105f59190611bba565b6113aa565b005b34801561060857600080fd5b50610611611533565b60405161061e9190611b5f565b60405180910390f35b34801561063357600080fd5b5061063c611539565b604051610649919061224d565b60405180910390f35b34801561065e57600080fd5b50610667611794565b6040516106749190611c80565b60405180910390f35b34801561068957600080fd5b506106a4600480360381019061069f9190611d00565b611822565b005b600081836106b4919061226f565b905092915050565b6000600180549050905090565b6106d161191a565b73ffffffffffffffffffffffffffffffffffffffff166106ef6112e7565b73ffffffffffffffffffffffffffffffffffffffff1614610745576040517f08c379a000000000000000000000000000000000000000000000000000000000815260040161073c90612311565b60405180910390fd5b6002600f546107549190612360565b6002828154811061076857610767612391565b5b9060005260206000209060060201600301541161078457600080fd5b6002818154811061079857610797612391565b5b906000526020600020906006020160020160149054906101000a900460ff16156107c157600080fd5b600281815481106107d5576107d4612391565b5b906000526020600020906006020160020160009054906101000a900473ffffffffffffffffffffffffffffffffffffffff1673ffffffffffffffffffffffffffffffffffffffff166108fc6002838154811061083457610833612391565b5b9060005260206000209060060201600101549081150290604051600060405180830381858888f19350505050158015610871573d6000803e3d6000fd5b5060016002828154811061088857610887612391565b5b906000526020600020906006020160020160146101000a81548160ff02191690831515021790555050565b600380546108c0906123ef565b80601f01602080910402602001604051908101604052809291908181526020018280546108ec906123ef565b80156109395780601f1061090e57610100808354040283529160200191610939565b820191906000526020600020905b81548152906001019060200180831161091c57829003601f168201915b505050505081565b600e6020528060005260406000206000915054906101000a900460ff1681565b60006040518060a001604052803481526020013373ffffffffffffffffffffffffffffffffffffffff16815260200184815260200183815260200142815250905060018190806001815401808255809150506001900390600052602060002090600502016000909190919091506000820151816000015560208201518160010160006101000a81548173ffffffffffffffffffffffffffffffffffffffff021916908373ffffffffffffffffffffffffffffffffffffffff1602179055506040820151816002019080519060200190610a3b9291906119e6565b506060820151816003019080519060200190610a589291906119e6565b50608082015181600401555050610a71600954346106a6565b6009819055506001600e60003373ffffffffffffffffffffffffffffffffffffffff1673ffffffffffffffffffffffffffffffffffffffff16815260200190815260200160002060006101000a81548160ff021916908315150217905550600a6000815480929190610ae290611b07565b91905055503373ffffffffffffffffffffffffffffffffffffffff167f264f630d9efa0d07053a31163641d9fcc0adafc9d9e76f1c37c2ce3a558d2c5234604051610b2d9190611b5f565b60405180910390a2505050565b610b4261191a565b73ffffffffffffffffffffffffffffffffffffffff16610b606112e7565b73ffffffffffffffffffffffffffffffffffffffff1614610bb6576040517f08c379a0000000000000000000000000000000000000000000000000000000008152600401610bad90612311565b60405180910390fd5b80600660006101000a81548173ffffffffffffffffffffffffffffffffffffffff021916908373ffffffffffffffffffffffffffffffffffffffff16021790555050565b600a5481565b600d8181548110610c1057600080fd5b906000526020600020016000915054906101000a900473ffffffffffffffffffffffffffffffffffffffff1681565b6000600e60003373ffffffffffffffffffffffffffffffffffffffff1673ffffffffffffffffffffffffffffffffffffffff16815260200190815260200160002060009054906101000a900460ff16905090565b600e60003373ffffffffffffffffffffffffffffffffffffffff1673ffffffffffffffffffffffffffffffffffffffff16815260200190815260200160002060009054906101000a900460ff16610ce957600080fd5b60028181548110610cfd57610cfc612391565b5b906000526020600020906006020160050160003373ffffffffffffffffffffffffffffffffffffffff1673ffffffffffffffffffffffffffffffffffffffff16815260200190815260200160002060009054906101000a900460ff1615610d6357600080fd5b600060028281548110610d7957610d78612391565b5b906000526020600020906006020160050160003373ffffffffffffffffffffffffffffffffffffffff1673ffffffffffffffffffffffffffffffffffffffff16815260200190815260200160002060006101000a81548160ff02191690831515021790555060028181548110610df257610df1612391565b5b90600052602060002090600602016004016000815480929190610e1490611b07565b919050555050565b6000600280549050905090565b600660009054906101000a900473ffffffffffffffffffffffffffffffffffffffff1681565b610e5761191a565b73ffffffffffffffffffffffffffffffffffffffff16610e756112e7565b73ffffffffffffffffffffffffffffffffffffffff1614610ecb576040517f08c379a0000000000000000000000000000000000000000000000000000000008152600401610ec290612311565b60405180910390fd5b6000479050600660009054906101000a900473ffffffffffffffffffffffffffffffffffffffff1673ffffffffffffffffffffffffffffffffffffffff166108fc829081150290604051600060405180830381858888f19350505050158015610f38573d6000803e3d6000fd5b5060006009819055507f5b6b431d4476a211bb7d41c20d1aab9ae2321deee0d20be3d9fc9b1093fa6e3d81604051610f709190611b5f565b60405180910390a150565b600860009054906101000a900460ff1681565b610f9661191a565b73ffffffffffffffffffffffffffffffffffffffff16610fb46112e7565b73ffffffffffffffffffffffffffffffffffffffff161461100a576040517f08c379a000000000000000000000000000000000000000000000000000000000815260040161100190612311565b60405180910390fd5b6110146000611922565b565b60058054611023906123ef565b80601f016020809104026020016040519081016040528092919081815260200182805461104f906123ef565b801561109c5780601f106110715761010080835404028352916020019161109c565b820191906000526020600020905b81548152906001019060200180831161107f57829003601f168201915b505050505081565b600281815481106110b457600080fd5b90600052602060002090600602016000915090508060000180546110d7906123ef565b80601f0160208091040260200160405190810160405280929190818152602001828054611103906123ef565b80156111505780601f1061112557610100808354040283529160200191611150565b820191906000526020600020905b81548152906001019060200180831161113357829003601f168201915b5050505050908060010154908060020160009054906101000a900473ffffffffffffffffffffffffffffffffffffffff16908060020160149054906101000a900460ff16908060030154908060040154905086565b600f5481565b6111b361191a565b73ffffffffffffffffffffffffffffffffffffffff166111d16112e7565b73ffffffffffffffffffffffffffffffffffffffff1614611227576040517f08c379a000000000000000000000000000000000000000000000000000000000815260040161121e90612311565b60405180910390fd5b600060026001816001815401808255809150500390600052602060002090600602019050838160000190805190602001906112639291906119e6565b50828160010181905550818160020160006101000a81548173ffffffffffffffffffffffffffffffffffffffff021916908373ffffffffffffffffffffffffffffffffffffffff16021790555060008160020160146101000a81548160ff021916908315150217905550600081600301819055506000816004018190555050505050565b60008060009054906101000a900473ffffffffffffffffffffffffffffffffffffffff16905090565b600b5481565b600c5481565b60048054611329906123ef565b80601f0160208091040260200160405190810160405280929190818152602001828054611355906123ef565b80156113a25780601f10611377576101008083540402835291602001916113a2565b820191906000526020600020905b81548152906001019060200180831161138557829003601f168201915b505050505081565b600e60003373ffffffffffffffffffffffffffffffffffffffff1673ffffffffffffffffffffffffffffffffffffffff16815260200190815260200160002060009054906101000a900460ff1661140057600080fd5b6002818154811061141457611413612391565b5b906000526020600020906006020160050160003373ffffffffffffffffffffffffffffffffffffffff1673ffffffffffffffffffffffffffffffffffffffff16815260200190815260200160002060009054906101000a900460ff161561147a57600080fd5b6001600282815481106114905761148f612391565b5b906000526020600020906006020160050160003373ffffffffffffffffffffffffffffffffffffffff1673ffffffffffffffffffffffffffffffffffffffff16815260200190815260200160002060006101000a81548160ff0219169083151502179055506002818154811061150957611508612391565b5b9060005260206000209060060201600301600081548092919061152b90611b07565b919050555050565b60095481565b60606000600a5490508067ffffffffffffffff81111561155c5761155b611d6d565b5b60405190808252806020026020018201604052801561159557816020015b611582611a6c565b81526020019060019003908161157a5790505b50915060005b8181101561178f57600181815481106115b7576115b6612391565b5b90600052602060002090600502016040518060a0016040529081600082015481526020016001820160009054906101000a900473ffffffffffffffffffffffffffffffffffffffff1673ffffffffffffffffffffffffffffffffffffffff1673ffffffffffffffffffffffffffffffffffffffff168152602001600282018054611640906123ef565b80601f016020809104026020016040519081016040528092919081815260200182805461166c906123ef565b80156116b95780601f1061168e576101008083540402835291602001916116b9565b820191906000526020600020905b81548152906001019060200180831161169c57829003601f168201915b505050505081526020016003820180546116d2906123ef565b80601f01602080910402602001604051908101604052809291908181526020018280546116fe906123ef565b801561174b5780601f106117205761010080835404028352916020019161174b565b820191906000526020600020905b81548152906001019060200180831161172e57829003601f168201915b5050505050815260200160048201548152505083828151811061177157611770612391565b5b6020026020010181905250808061178790611b07565b91505061159b565b505090565b600780546117a1906123ef565b80601f01602080910402602001604051908101604052809291908181526020018280546117cd906123ef565b801561181a5780601f106117ef5761010080835404028352916020019161181a565b820191906000526020600020905b8154815290600101906020018083116117fd57829003601f168201915b505050505081565b61182a61191a565b73ffffffffffffffffffffffffffffffffffffffff166118486112e7565b73ffffffffffffffffffffffffffffffffffffffff161461189e576040517f08c379a000000000000000000000000000000000000000000000000000000000815260040161189590612311565b60405180910390fd5b600073ffffffffffffffffffffffffffffffffffffffff168173ffffffffffffffffffffffffffffffffffffffff16141561190e576040517f08c379a000000000000000000000000000000000000000000000000000000000815260040161190590612493565b60405180910390fd5b61191781611922565b50565b600033905090565b60008060009054906101000a900473ffffffffffffffffffffffffffffffffffffffff169050816000806101000a81548173ffffffffffffffffffffffffffffffffffffffff021916908373ffffffffffffffffffffffffffffffffffffffff1602179055508173ffffffffffffffffffffffffffffffffffffffff168173ffffffffffffffffffffffffffffffffffffffff167f8be0079c531659141344cd1fd0a4f28419497f9722a3daafe3b4186f6b6457e060405160405180910390a35050565b8280546119f2906123ef565b90600052602060002090601f016020900481019282611a145760008555611a5b565b82601f10611a2d57805160ff1916838001178555611a5b565b82800160010185558215611a5b579182015b82811115611a5a578251825591602001919060010190611a3f565b5b509050611a689190611ab1565b5090565b6040518060a0016040528060008152602001600073ffffffffffffffffffffffffffffffffffffffff1681526020016060815260200160608152602001600081525090565b5b80821115611aca576000816000905550600101611ab2565b5090565b7f4e487b7100000000000000000000000000000000000000000000000000000000600052601160045260246000fd5b6000819050919050565b6000611b1282611afd565b91507fffffffffffffffffffffffffffffffffffffffffffffffffffffffffffffffff821415611b4557611b44611ace565b5b600182019050919050565b611b5981611afd565b82525050565b6000602082019050611b746000830184611b50565b92915050565b6000604051905090565b600080fd5b600080fd5b611b9781611afd565b8114611ba257600080fd5b50565b600081359050611bb481611b8e565b92915050565b600060208284031215611bd057611bcf611b84565b5b6000611bde84828501611ba5565b91505092915050565b600081519050919050565b600082825260208201905092915050565b60005b83811015611c21578082015181840152602081019050611c06565b83811115611c30576000848401525b50505050565b6000601f19601f8301169050919050565b6000611c5282611be7565b611c5c8185611bf2565b9350611c6c818560208601611c03565b611c7581611c36565b840191505092915050565b60006020820190508181036000830152611c9a8184611c47565b905092915050565b600073ffffffffffffffffffffffffffffffffffffffff82169050919050565b6000611ccd82611ca2565b9050919050565b611cdd81611cc2565b8114611ce857600080fd5b50565b600081359050611cfa81611cd4565b92915050565b600060208284031215611d1657611d15611b84565b5b6000611d2484828501611ceb565b91505092915050565b60008115159050919050565b611d4281611d2d565b82525050565b6000602082019050611d5d6000830184611d39565b92915050565b600080fd5b600080fd5b7f4e487b7100000000000000000000000000000000000000000000000000000000600052604160045260246000fd5b611da582611c36565b810181811067ffffffffffffffff82111715611dc457611dc3611d6d565b5b80604052505050565b6000611dd7611b7a565b9050611de38282611d9c565b919050565b600067ffffffffffffffff821115611e0357611e02611d6d565b5b611e0c82611c36565b9050602081019050919050565b82818337600083830152505050565b6000611e3b611e3684611de8565b611dcd565b905082815260208101848484011115611e5757611e56611d68565b5b611e62848285611e19565b509392505050565b600082601f830112611e7f57611e7e611d63565b5b8135611e8f848260208601611e28565b91505092915050565b60008060408385031215611eaf57611eae611b84565b5b600083013567ffffffffffffffff811115611ecd57611ecc611b89565b5b611ed985828601611e6a565b925050602083013567ffffffffffffffff811115611efa57611ef9611b89565b5b611f0685828601611e6a565b9150509250929050565b6000611f1b82611ca2565b9050919050565b611f2b81611f10565b8114611f3657600080fd5b50565b600081359050611f4881611f22565b92915050565b600060208284031215611f6457611f63611b84565b5b6000611f7284828501611f39565b91505092915050565b611f8481611cc2565b82525050565b6000602082019050611f9f6000830184611f7b565b92915050565b611fae81611f10565b82525050565b6000602082019050611fc96000830184611fa5565b92915050565b600060c0820190508181036000830152611fe98189611c47565b9050611ff86020830188611b50565b6120056040830187611fa5565b6120126060830186611d39565b61201f6080830185611b50565b61202c60a0830184611b50565b979650505050505050565b6000806000606084860312156120505761204f611b84565b5b600084013567ffffffffffffffff81111561206e5761206d611b89565b5b61207a86828701611e6a565b935050602061208b86828701611ba5565b925050604061209c86828701611f39565b9150509250925092565b600081519050919050565b600082825260208201905092915050565b6000819050602082019050919050565b6120db81611afd565b82525050565b6120ea81611cc2565b82525050565b600082825260208201905092915050565b600061210c82611be7565b61211681856120f0565b9350612126818560208601611c03565b61212f81611c36565b840191505092915050565b600060a08301600083015161215260008601826120d2565b50602083015161216560208601826120e1565b506040830151848203604086015261217d8282612101565b915050606083015184820360608601526121978282612101565b91505060808301516121ac60808601826120d2565b508091505092915050565b60006121c3838361213a565b905092915050565b6000602082019050919050565b60006121e3826120a6565b6121ed81856120b1565b9350836020820285016121ff856120c2565b8060005b8581101561223b578484038952815161221c85826121b7565b9450612227836121cb565b925060208a01995050600181019050612203565b50829750879550505050505092915050565b6000602082019050818103600083015261226781846121d8565b905092915050565b600061227a82611afd565b915061228583611afd565b9250827fffffffffffffffffffffffffffffffffffffffffffffffffffffffffffffffff038211156122ba576122b9611ace565b5b828201905092915050565b7f4f776e61626c653a2063616c6c6572206973206e6f7420746865206f776e6572600082015250565b60006122fb602083611bf2565b9150612306826122c5565b602082019050919050565b6000602082019050818103600083015261232a816122ee565b9050919050565b7f4e487b7100000000000000000000000000000000000000000000000000000000600052601260045260246000fd5b600061236b82611afd565b915061237683611afd565b92508261238657612385612331565b5b828204905092915050565b7f4e487b7100000000000000000000000000000000000000000000000000000000600052603260045260246000fd5b7f4e487b7100000000000000000000000000000000000000000000000000000000600052602260045260246000fd5b6000600282049050600182168061240757607f821691505b6020821081141561241b5761241a6123c0565b5b50919050565b7f4f776e61626c653a206e6577206f776e657220697320746865207a65726f206160008201527f6464726573730000000000000000000000000000000000000000000000000000602082015250565b600061247d602683611bf2565b915061248882612421565b604082019050919050565b600060208201905081810360008301526124ac81612470565b905091905056fea26469706673582212206764ae369f62961e9d5191c506ad1a2d5983929c8094d5d0568efbe9345a5e0964736f6c63430008090033",
  "immutableReferences": {},
  "source": "// SPDX-License-Identifier: UNLICENSED\r\n\r\npragma solidity 0.8.9;\r\n\r\nimport \"@openzeppelin/contracts/access/Ownable.sol\";\r\nimport \"@openzeppelin/contracts/utils/math/SafeMath.sol\";\r\n\r\ncontract Fundraiser is Ownable {\r\n    using SafeMath for uint256;\r\n    struct Donation {\r\n        uint256 value;\r\n        address sender;\r\n        string message;\r\n        string name;\r\n        uint256 date;\r\n    }\r\n\r\n    struct Request {\r\n        string description;\r\n        uint256 value;\r\n        address payable recipient;\r\n        bool complete;\r\n        uint256 approvalCount;\r\n        uint256 rejectionCount;\r\n        mapping(address => bool) approvals;\r\n    }\r\n\r\n    Donation[] private _donations;\r\n\r\n    Request[] public requests;\r\n    string public name;\r\n    string public imageURL;\r\n    string public description;\r\n    address payable public beneficiary;\r\n    string public category;\r\n    bool public isRequestBased;\r\n    uint256 public totalDonations;\r\n    uint256 public donationsCount;\r\n    uint256 public minimumContribution;\r\n    uint256 public targetToAchieve;\r\n    address[] public contributers;\r\n    mapping(address => bool) public approvers;\r\n    uint256 public approversCount;\r\n\r\n    event DonationReceived(address indexed donor, uint256 value);\r\n    event Withdraw(uint256 amount);\r\n\r\n    constructor(\r\n        string memory _name,\r\n        string memory _imageURL,\r\n        string memory _description,\r\n        // uint256 _minimumContribution,\r\n        string memory _category,\r\n        uint256 _targetToAchieve,\r\n        address _owner,\r\n        address payable _beneficiary\r\n    ) public {\r\n        name = _name;\r\n        imageURL = _imageURL;\r\n        description = _description;\r\n        beneficiary = _beneficiary;\r\n        // minimumContribution = _minimumContribution;\r\n        category = _category;\r\n        targetToAchieve = _targetToAchieve;\r\n        transferOwnership(_owner);\r\n    }\r\n\r\n    function setBeneficiary(address payable _beneficiary) public onlyOwner {\r\n        beneficiary = _beneficiary;\r\n    }\r\n\r\n    function myDonationsCount() public view returns (uint256) {\r\n        return _donations.length;\r\n    }\r\n\r\n    function donate(string memory _message, string memory _name)\r\n        external\r\n        payable\r\n    {\r\n        // require(msg.value > minimumContribution);\r\n\r\n        Donation memory donation = Donation({\r\n            value: msg.value,\r\n            sender: msg.sender,\r\n            message: _message,\r\n            name: _name,\r\n            date: block.timestamp\r\n        });\r\n        _donations.push(donation);\r\n        // totalDonations = totalDonations.add(msg.value);\r\n        totalDonations = SafeMath.add(totalDonations, msg.value);\r\n        approvers[msg.sender] = true;\r\n        donationsCount++;\r\n\r\n        emit DonationReceived(msg.sender, msg.value);\r\n    }\r\n\r\n    function getDonations() public view returns (Donation[] memory coll) {\r\n        uint256 size = donationsCount;\r\n        coll = new Donation[](size);\r\n\r\n        for (uint256 i = 0; i < size; i++) {\r\n            coll[i] = _donations[i];\r\n        }\r\n\r\n        return coll;\r\n    }\r\n\r\n    // function myDonations()\r\n    //     public\r\n    //     view\r\n    //     returns (uint256[] memory values, uint256[] memory dates)\r\n    // {\r\n    //     uint256 count = myDonationsCount();\r\n    //     values = new uint256[](count);\r\n    //     dates = new uint256[](count);\r\n\r\n    //     for (uint256 i = 0; i < count; i++) {\r\n    //         Donation storage donation = _donations[msg.sender][i];\r\n    //         values[i] = donation.value;\r\n    //         dates[i] = donation.date;\r\n    //     }\r\n\r\n    //     return (values, dates);\r\n    // }\r\n\r\n    function withdraw() public onlyOwner {\r\n        uint256 balance = address(this).balance;\r\n        beneficiary.transfer(balance);\r\n        totalDonations = 0;\r\n        emit Withdraw(balance);\r\n    }\r\n\r\n    receive() external payable {\r\n        totalDonations = totalDonations.add(msg.value);\r\n        donationsCount++;\r\n    }\r\n\r\n    function createRequest(\r\n        string memory _description,\r\n        uint256 _value,\r\n        address payable _recipient\r\n    ) public onlyOwner {\r\n        Request storage newRequest = requests.push();\r\n        newRequest.description = _description;\r\n        newRequest.value = _value;\r\n        newRequest.recipient = _recipient;\r\n        newRequest.complete = false;\r\n        newRequest.approvalCount = 0;\r\n        newRequest.rejectionCount = 0;\r\n    }\r\n\r\n    function approveRequest(uint256 index) public {\r\n        require(approvers[msg.sender]);\r\n        require(!requests[index].approvals[msg.sender]);\r\n\r\n        requests[index].approvals[msg.sender] = true;\r\n        requests[index].approvalCount++;\r\n    }\r\n\r\n    function rejectRequest(uint256 index) public {\r\n        require(approvers[msg.sender]);\r\n        require(!requests[index].approvals[msg.sender]);\r\n\r\n        requests[index].approvals[msg.sender] = false;\r\n        requests[index].rejectionCount++;\r\n    }\r\n\r\n    function finalizeRequest(uint256 index) public onlyOwner {\r\n        require(requests[index].approvalCount > (approversCount / 2));\r\n        require(!requests[index].complete);\r\n\r\n        requests[index].recipient.transfer(requests[index].value);\r\n        requests[index].complete = true;\r\n    }\r\n\r\n    function getRequestsCount() public view returns (uint256) {\r\n        return requests.length;\r\n    }\r\n\r\n    function isDonor() public view returns (bool) {\r\n        return approvers[msg.sender];\r\n    }\r\n}\r\n\r\n// pragma solidity 0.8.9;\r\n\r\n// import \"@openzeppelin/contracts/access/Ownable.sol\";\r\n// import \"@openzeppelin/contracts/utils/math/SafeMath.sol\";\r\n\r\n// import \"./Request.sol\";\r\n\r\n// contract Fundraiser is Ownable {\r\n//     using SafeMath for uint256;\r\n//     struct Donation {\r\n//         uint256 value;\r\n//         uint256 date;\r\n//     }\r\n\r\n//     // struct Request {\r\n//     //     string description;\r\n//     //     uint256 value;\r\n//     //     address payable recipient;\r\n//     //     bool complete;\r\n//     //     uint256 approvalCount;\r\n//     //     uint256 rejectionCount;\r\n//     //     mapping(address => bool) approvals;\r\n//     // }\r\n\r\n//     mapping(address => Donation[]) private _donations;\r\n\r\n//     Request[] public _requests;\r\n//     string public name;\r\n//     string public imageURL;\r\n//     string public description;\r\n//     address payable public beneficiary;\r\n//     uint256 public totalDonations;\r\n//     uint256 public donationsCount;\r\n//     uint256 public minimumContribution;\r\n//     uint256 public targetToAchieve;\r\n//     address[] public contributers;\r\n//     mapping(address => bool) public approvers;\r\n//     uint256 public approversCount;\r\n\r\n//     event DonationReceived(address indexed donor, uint256 value);\r\n//     event Withdraw(uint256 amount);\r\n\r\n//     constructor(\r\n//         string memory _name,\r\n//         string memory _imageURL,\r\n//         string memory _description,\r\n//         address payable _beneficiary,\r\n//         // uint256 _minimumContribution,\r\n//         uint256 _targetToAchieve,\r\n//         address _owner\r\n//     ) public {\r\n//         name = _name;\r\n//         imageURL = _imageURL;\r\n//         description = _description;\r\n//         beneficiary = _beneficiary;\r\n//         // minimumContribution = _minimumContribution;\r\n//         targetToAchieve = _targetToAchieve;\r\n//         transferOwnership(_owner);\r\n//     }\r\n\r\n//     function setBeneficiary(address payable _beneficiary) public onlyOwner {\r\n//         beneficiary = _beneficiary;\r\n//     }\r\n\r\n//     function myDonationsCount() public view returns (uint256) {\r\n//         return _donations[msg.sender].length;\r\n//     }\r\n\r\n//     function donate() external payable {\r\n//         // require(msg.value > minimumContribution);\r\n\r\n//         Donation memory donation = Donation({\r\n//             value: msg.value,\r\n//             date: block.timestamp\r\n//         });\r\n//         _donations[msg.sender].push(donation);\r\n//         // totalDonations = totalDonations.add(msg.value);\r\n//         totalDonations = SafeMath.add(totalDonations, msg.value);\r\n//         approvers[msg.sender] = true;\r\n//         donationsCount++;\r\n\r\n//         emit DonationReceived(msg.sender, msg.value);\r\n//     }\r\n\r\n//     function myDonations()\r\n//         public\r\n//         view\r\n//         returns (uint256[] memory values, uint256[] memory dates)\r\n//     {\r\n//         uint256 count = myDonationsCount();\r\n//         values = new uint256[](count);\r\n//         dates = new uint256[](count);\r\n\r\n//         for (uint256 i = 0; i < count; i++) {\r\n//             Donation storage donation = _donations[msg.sender][i];\r\n//             values[i] = donation.value;\r\n//             dates[i] = donation.date;\r\n//         }\r\n\r\n//         return (values, dates);\r\n//     }\r\n\r\n//     function withdraw() public onlyOwner {\r\n//         uint256 balance = address(this).balance;\r\n//         beneficiary.transfer(balance);\r\n//         totalDonations = 0;\r\n//         emit Withdraw(balance);\r\n//     }\r\n\r\n//     receive() external payable {\r\n//         totalDonations = totalDonations.add(msg.value);\r\n//         donationsCount++;\r\n//     }\r\n\r\n//     function createRequest(\r\n//         string memory _description,\r\n//         uint256 _value,\r\n//         address payable _recipient\r\n//     ) public onlyOwner {\r\n//         Request newRequest = new Request(_description, _value, _recipient);\r\n//         _requests.push(newRequest);\r\n//     }\r\n\r\n//     function approveRequest(uint256 index) public {\r\n//         require(approvers[msg.sender]);\r\n//         require(!_requests[index].hasApproved(msg.sender));\r\n\r\n//         // _requests[index].approvals[msg.sender] = true;\r\n\r\n//         _requests[index].approve(msg.sender);\r\n//     }\r\n\r\n//     function rejectRequest(uint256 index) public {\r\n//         // require(approvers[msg.sender]);\r\n//         // require(!_requests[index].approvals[msg.sender]);\r\n\r\n//         // _requests[index].approvals[msg.sender] = false;\r\n//         // _requests[index].rejectionCount++;\r\n\r\n//         require(approvers[msg.sender]);\r\n//         require(!_requests[index].hasApproved(msg.sender));\r\n\r\n//         // _requests[index].approvals[msg.sender] = true;\r\n\r\n//         _requests[index].reject(msg.sender);\r\n//     }\r\n\r\n//     function finalizeRequest(uint256 index) public onlyOwner {\r\n//         require(_requests[index].approvalCount() > (approversCount / 2));\r\n//         require(!_requests[index].complete());\r\n\r\n//         _requests[index].recipient().transfer(_requests[index].value());\r\n//         _requests[index].completeRequest();\r\n//     }\r\n\r\n//     function getRequestsCount() public view returns (uint256) {\r\n//         return _requests.length;\r\n//     }\r\n\r\n//     function isDonor() public view returns (bool) {\r\n//         return approvers[msg.sender];\r\n//     }\r\n// }\r\n",
  "sourcePath": "C:\\Users\\ads73\\OneDrive\\Desktop\\All Folders\\Workspaces\\DAPP\\Make-A-Difference\\contracts\\Fundraiser.sol",
  "compiler": {
    "name": "solc",
    "version": "0.8.9+commit.e5eed63a.Emscripten.clang"
  },
  "schemaVersion": "3.4.5",
  "updatedAt": "2022-04-14T04:14:43.319Z",
  "devdoc": {
    "kind": "dev",
    "methods": {
      "owner()": {
        "details": "Returns the address of the current owner."
      },
      "renounceOwnership()": {
        "details": "Leaves the contract without owner. It will not be possible to call `onlyOwner` functions anymore. Can only be called by the current owner. NOTE: Renouncing ownership will leave the contract without an owner, thereby removing any functionality that is only available to the owner."
      },
      "transferOwnership(address)": {
        "details": "Transfers ownership of the contract to a new account (`newOwner`). Can only be called by the current owner."
      }
    },
    "version": 1
  },
  "userdoc": {
    "kind": "user",
    "methods": {},
    "version": 1
  }
}