{
  "contractName": "FundraiserFactory",
  "abi": [
    {
      "anonymous": false,
      "inputs": [
        {
          "indexed": true,
          "internalType": "contract Fundraiser",
          "name": "fundraiser",
          "type": "address"
        },
        {
          "indexed": true,
          "internalType": "address",
          "name": "owner",
          "type": "address"
        }
      ],
      "name": "FundraiserCreated",
      "type": "event"
    },
    {
      "inputs": [
        {
          "internalType": "string",
          "name": "name",
          "type": "string"
        },
        {
          "internalType": "string",
          "name": "imageURL",
          "type": "string"
        },
        {
          "internalType": "string",
          "name": "description",
          "type": "string"
        },
        {
          "internalType": "address payable",
          "name": "beneficiary",
          "type": "address"
        }
      ],
      "name": "createFundraiser",
      "outputs": [],
      "stateMutability": "nonpayable",
      "type": "function"
    },
    {
      "inputs": [],
      "name": "fundraisersCount",
      "outputs": [
        {
          "internalType": "uint256",
          "name": "",
          "type": "uint256"
        }
      ],
      "stateMutability": "view",
      "type": "function",
      "constant": true
    },
    {
      "inputs": [
        {
          "internalType": "uint256",
          "name": "limit",
          "type": "uint256"
        },
        {
          "internalType": "uint256",
          "name": "offset",
          "type": "uint256"
        }
      ],
      "name": "fundraisers",
      "outputs": [
        {
          "internalType": "contract Fundraiser[]",
          "name": "coll",
          "type": "address[]"
        }
      ],
      "stateMutability": "view",
      "type": "function",
      "constant": true
    }
  ],
  "bytecode": "0x608060405234801561001057600080fd5b50612731806100206000396000f3fe60806040523480156200001157600080fd5b5060043610620000465760003560e01c8063704914f8146200004b5780639d3b43551462000081578063cbc76dad14620000a3575b600080fd5b62000069600480360381019062000063919062000462565b620000c3565b604051620000789190620005f1565b60405180910390f35b6200008b6200026f565b6040516200009a919062000626565b60405180910390f35b620000c16004803603810190620000bb9190620007ea565b6200027b565b005b6060620000cf6200026f565b82111562000114576040517f08c379a00000000000000000000000000000000000000000000000000000000081526004016200010b906200091a565b60405180910390fd5b600082620001216200026f565b6200012d91906200096b565b90508381106200013e578362000140565b805b9050601481106200015357601462000155565b805b90508067ffffffffffffffff8111156200017457620001736200065e565b5b604051908082528060200260200182016040528015620001a35781602001602082028036833780820191505090505b50915060005b81811015620002675760008185620001c29190620009a6565b81548110620001d657620001d562000a03565b5b9060005260206000200160009054906101000a900473ffffffffffffffffffffffffffffffffffffffff1683828151811062000217576200021662000a03565b5b602002602001019073ffffffffffffffffffffffffffffffffffffffff16908173ffffffffffffffffffffffffffffffffffffffff168152505080806200025e9062000a32565b915050620001a9565b505092915050565b60008080549050905090565b60008484848433604051620002909062000405565b620002a095949392919062000b4c565b604051809103906000f080158015620002bd573d6000803e3d6000fd5b5090506000819080600181540180825580915050600190039060005260206000200160009091909190916101000a81548173ffffffffffffffffffffffffffffffffffffffff021916908373ffffffffffffffffffffffffffffffffffffffff1602179055508073ffffffffffffffffffffffffffffffffffffffff16638da5cb5b6040518163ffffffff1660e01b815260040160206040518083038186803b1580156200036a57600080fd5b505afa1580156200037f573d6000803e3d6000fd5b505050506040513d601f19601f82011682018060405250810190620003a5919062000c03565b73ffffffffffffffffffffffffffffffffffffffff168173ffffffffffffffffffffffffffffffffffffffff167fa2398daac0c8053a1e3c0280916c2ec6bc884f0959c27e639a4db829b7eabfb160405160405180910390a35050505050565b611ac68062000c3683390190565b6000604051905090565b600080fd5b600080fd5b6000819050919050565b6200043c8162000427565b81146200044857600080fd5b50565b6000813590506200045c8162000431565b92915050565b600080604083850312156200047c576200047b6200041d565b5b60006200048c858286016200044b565b92505060206200049f858286016200044b565b9150509250929050565b600081519050919050565b600082825260208201905092915050565b6000819050602082019050919050565b600073ffffffffffffffffffffffffffffffffffffffff82169050919050565b6000819050919050565b6000620005206200051a6200051484620004d5565b620004f5565b620004d5565b9050919050565b60006200053482620004ff565b9050919050565b6000620005488262000527565b9050919050565b6200055a816200053b565b82525050565b60006200056e83836200054f565b60208301905092915050565b6000602082019050919050565b60006200059482620004a9565b620005a08185620004b4565b9350620005ad83620004c5565b8060005b83811015620005e4578151620005c8888262000560565b9750620005d5836200057a565b925050600181019050620005b1565b5085935050505092915050565b600060208201905081810360008301526200060d818462000587565b905092915050565b620006208162000427565b82525050565b60006020820190506200063d600083018462000615565b92915050565b600080fd5b600080fd5b6000601f19601f8301169050919050565b7f4e487b7100000000000000000000000000000000000000000000000000000000600052604160045260246000fd5b62000698826200064d565b810181811067ffffffffffffffff82111715620006ba57620006b96200065e565b5b80604052505050565b6000620006cf62000413565b9050620006dd82826200068d565b919050565b600067ffffffffffffffff8211156200070057620006ff6200065e565b5b6200070b826200064d565b9050602081019050919050565b82818337600083830152505050565b60006200073e6200073884620006e2565b620006c3565b9050828152602081018484840111156200075d576200075c62000648565b5b6200076a84828562000718565b509392505050565b600082601f8301126200078a576200078962000643565b5b81356200079c84826020860162000727565b91505092915050565b6000620007b282620004d5565b9050919050565b620007c481620007a5565b8114620007d057600080fd5b50565b600081359050620007e481620007b9565b92915050565b600080600080608085870312156200080757620008066200041d565b5b600085013567ffffffffffffffff81111562000828576200082762000422565b5b620008368782880162000772565b945050602085013567ffffffffffffffff8111156200085a576200085962000422565b5b620008688782880162000772565b935050604085013567ffffffffffffffff8111156200088c576200088b62000422565b5b6200089a8782880162000772565b9250506060620008ad87828801620007d3565b91505092959194509250565b600082825260208201905092915050565b7f6f6666736574206f7574206f6620626f756e6473000000000000000000000000600082015250565b600062000902601483620008b9565b91506200090f82620008ca565b602082019050919050565b600060208201905081810360008301526200093581620008f3565b9050919050565b7f4e487b7100000000000000000000000000000000000000000000000000000000600052601160045260246000fd5b6000620009788262000427565b9150620009858362000427565b9250828210156200099b576200099a6200093c565b5b828203905092915050565b6000620009b38262000427565b9150620009c08362000427565b9250827fffffffffffffffffffffffffffffffffffffffffffffffffffffffffffffffff03821115620009f857620009f76200093c565b5b828201905092915050565b7f4e487b7100000000000000000000000000000000000000000000000000000000600052603260045260246000fd5b600062000a3f8262000427565b91507fffffffffffffffffffffffffffffffffffffffffffffffffffffffffffffffff82141562000a755762000a746200093c565b5b600182019050919050565b600081519050919050565b60005b8381101562000aab57808201518184015260208101905062000a8e565b8381111562000abb576000848401525b50505050565b600062000ace8262000a80565b62000ada8185620008b9565b935062000aec81856020860162000a8b565b62000af7816200064d565b840191505092915050565b600062000b0f82620004ff565b9050919050565b600062000b238262000b02565b9050919050565b62000b358162000b16565b82525050565b62000b4681620007a5565b82525050565b600060a082019050818103600083015262000b68818862000ac1565b9050818103602083015262000b7e818762000ac1565b9050818103604083015262000b94818662000ac1565b905062000ba5606083018562000b2a565b62000bb4608083018462000b3b565b9695505050505050565b600062000bcb82620004d5565b9050919050565b62000bdd8162000bbe565b811462000be957600080fd5b50565b60008151905062000bfd8162000bd2565b92915050565b60006020828403121562000c1c5762000c1b6200041d565b5b600062000c2c8482850162000bec565b9150509291505056fe60806040523480156200001157600080fd5b5060405162001ac638038062001ac6833981810160405281019062000037919062000601565b620000576200004b620000ff60201b60201c565b6200010760201b60201c565b84600290805190602001906200006f9291906200030a565b508360039080519060200190620000889291906200030a565b508260049080519060200190620000a19291906200030a565b5080600560006101000a81548173ffffffffffffffffffffffffffffffffffffffff021916908373ffffffffffffffffffffffffffffffffffffffff160217905550620000f482620001cb60201b60201c565b505050505062000866565b600033905090565b60008060009054906101000a900473ffffffffffffffffffffffffffffffffffffffff169050816000806101000a81548173ffffffffffffffffffffffffffffffffffffffff021916908373ffffffffffffffffffffffffffffffffffffffff1602179055508173ffffffffffffffffffffffffffffffffffffffff168173ffffffffffffffffffffffffffffffffffffffff167f8be0079c531659141344cd1fd0a4f28419497f9722a3daafe3b4186f6b6457e060405160405180910390a35050565b620001db620000ff60201b60201c565b73ffffffffffffffffffffffffffffffffffffffff1662000201620002e160201b60201c565b73ffffffffffffffffffffffffffffffffffffffff16146200025a576040517f08c379a0000000000000000000000000000000000000000000000000000000008152600401620002519062000747565b60405180910390fd5b600073ffffffffffffffffffffffffffffffffffffffff168173ffffffffffffffffffffffffffffffffffffffff161415620002cd576040517f08c379a0000000000000000000000000000000000000000000000000000000008152600401620002c490620007df565b60405180910390fd5b620002de816200010760201b60201c565b50565b60008060009054906101000a900473ffffffffffffffffffffffffffffffffffffffff16905090565b828054620003189062000830565b90600052602060002090601f0160209004810192826200033c576000855562000388565b82601f106200035757805160ff191683800117855562000388565b8280016001018555821562000388579182015b82811115620003875782518255916020019190600101906200036a565b5b5090506200039791906200039b565b5090565b5b80821115620003b65760008160009055506001016200039c565b5090565b6000604051905090565b600080fd5b600080fd5b600080fd5b600080fd5b6000601f19601f8301169050919050565b7f4e487b7100000000000000000000000000000000000000000000000000000000600052604160045260246000fd5b6200042382620003d8565b810181811067ffffffffffffffff82111715620004455762000444620003e9565b5b80604052505050565b60006200045a620003ba565b905062000468828262000418565b919050565b600067ffffffffffffffff8211156200048b576200048a620003e9565b5b6200049682620003d8565b9050602081019050919050565b60005b83811015620004c3578082015181840152602081019050620004a6565b83811115620004d3576000848401525b50505050565b6000620004f0620004ea846200046d565b6200044e565b9050828152602081018484840111156200050f576200050e620003d3565b5b6200051c848285620004a3565b509392505050565b600082601f8301126200053c576200053b620003ce565b5b81516200054e848260208601620004d9565b91505092915050565b600073ffffffffffffffffffffffffffffffffffffffff82169050919050565b6000620005848262000557565b9050919050565b620005968162000577565b8114620005a257600080fd5b50565b600081519050620005b6816200058b565b92915050565b6000620005c98262000557565b9050919050565b620005db81620005bc565b8114620005e757600080fd5b50565b600081519050620005fb81620005d0565b92915050565b600080600080600060a0868803121562000620576200061f620003c4565b5b600086015167ffffffffffffffff811115620006415762000640620003c9565b5b6200064f8882890162000524565b955050602086015167ffffffffffffffff811115620006735762000672620003c9565b5b620006818882890162000524565b945050604086015167ffffffffffffffff811115620006a557620006a4620003c9565b5b620006b38882890162000524565b9350506060620006c688828901620005a5565b9250506080620006d988828901620005ea565b9150509295509295909350565b600082825260208201905092915050565b7f4f776e61626c653a2063616c6c6572206973206e6f7420746865206f776e6572600082015250565b60006200072f602083620006e6565b91506200073c82620006f7565b602082019050919050565b60006020820190508181036000830152620007628162000720565b9050919050565b7f4f776e61626c653a206e6577206f776e657220697320746865207a65726f206160008201527f6464726573730000000000000000000000000000000000000000000000000000602082015250565b6000620007c7602683620006e6565b9150620007d48262000769565b604082019050919050565b60006020820190508181036000830152620007fa81620007b8565b9050919050565b7f4e487b7100000000000000000000000000000000000000000000000000000000600052602260045260246000fd5b600060028204905060018216806200084957607f821691505b6020821081141562000860576200085f62000801565b5b50919050565b61125080620008766000396000f3fe6080604052600436106100e15760003560e01c8063715018a61161007f578063b90497e011610059578063b90497e0146102a5578063de2ed893146102d0578063ed88c68e146102fb578063f2fde38b146103055761011b565b8063715018a6146102385780637284e4161461024f5780638da5cb5b1461027a5761011b565b80631c31f710116100bb5780631c31f710146101a25780631f522595146101cb57806338af3eed146101f65780633ccfd60b146102215761011b565b80630180b97c1461012057806306fdde031461014b5780631a57f7b4146101765761011b565b3661011b576100fb3460065461032e90919063ffffffff16565b6006819055506007600081548092919061011490610c95565b9190505550005b600080fd5b34801561012c57600080fd5b50610135610344565b6040516101429190610ced565b60405180910390f35b34801561015757600080fd5b5061016061038e565b60405161016d9190610da1565b60405180910390f35b34801561018257600080fd5b5061018b61041c565b604051610199929190610e81565b60405180910390f35b3480156101ae57600080fd5b506101c960048036038101906101c49190610f1b565b610591565b005b3480156101d757600080fd5b506101e0610651565b6040516101ed9190610ced565b60405180910390f35b34801561020257600080fd5b5061020b610657565b6040516102189190610f57565b60405180910390f35b34801561022d57600080fd5b5061023661067d565b005b34801561024457600080fd5b5061024d6107a9565b005b34801561025b57600080fd5b50610264610831565b6040516102719190610da1565b60405180910390f35b34801561028657600080fd5b5061028f6108bf565b60405161029c9190610f93565b60405180910390f35b3480156102b157600080fd5b506102ba6108e8565b6040516102c79190610da1565b60405180910390f35b3480156102dc57600080fd5b506102e5610976565b6040516102f29190610ced565b60405180910390f35b61030361097c565b005b34801561031157600080fd5b5061032c60048036038101906103279190610fda565b610a98565b005b6000818361033c9190611007565b905092915050565b6000600160003373ffffffffffffffffffffffffffffffffffffffff1673ffffffffffffffffffffffffffffffffffffffff16815260200190815260200160002080549050905090565b6002805461039b9061108c565b80601f01602080910402602001604051908101604052809291908181526020018280546103c79061108c565b80156104145780601f106103e957610100808354040283529160200191610414565b820191906000526020600020905b8154815290600101906020018083116103f757829003601f168201915b505050505081565b6060806000610429610344565b90508067ffffffffffffffff811115610445576104446110be565b5b6040519080825280602002602001820160405280156104735781602001602082028036833780820191505090505b5092508067ffffffffffffffff8111156104905761048f6110be565b5b6040519080825280602002602001820160405280156104be5781602001602082028036833780820191505090505b50915060005b8181101561058b576000600160003373ffffffffffffffffffffffffffffffffffffffff1673ffffffffffffffffffffffffffffffffffffffff168152602001908152602001600020828154811061051f5761051e6110ed565b5b906000526020600020906002020190508060000154858381518110610547576105466110ed565b5b602002602001018181525050806001015484838151811061056b5761056a6110ed565b5b60200260200101818152505050808061058390610c95565b9150506104c4565b50509091565b610599610b90565b73ffffffffffffffffffffffffffffffffffffffff166105b76108bf565b73ffffffffffffffffffffffffffffffffffffffff161461060d576040517f08c379a000000000000000000000000000000000000000000000000000000000815260040161060490611168565b60405180910390fd5b80600560006101000a81548173ffffffffffffffffffffffffffffffffffffffff021916908373ffffffffffffffffffffffffffffffffffffffff16021790555050565b60075481565b600560009054906101000a900473ffffffffffffffffffffffffffffffffffffffff1681565b610685610b90565b73ffffffffffffffffffffffffffffffffffffffff166106a36108bf565b73ffffffffffffffffffffffffffffffffffffffff16146106f9576040517f08c379a00000000000000000000000000000000000000000000000000000000081526004016106f090611168565b60405180910390fd5b6000479050600560009054906101000a900473ffffffffffffffffffffffffffffffffffffffff1673ffffffffffffffffffffffffffffffffffffffff166108fc829081150290604051600060405180830381858888f19350505050158015610766573d6000803e3d6000fd5b5060006006819055507f5b6b431d4476a211bb7d41c20d1aab9ae2321deee0d20be3d9fc9b1093fa6e3d8160405161079e9190610ced565b60405180910390a150565b6107b1610b90565b73ffffffffffffffffffffffffffffffffffffffff166107cf6108bf565b73ffffffffffffffffffffffffffffffffffffffff1614610825576040517f08c379a000000000000000000000000000000000000000000000000000000000815260040161081c90611168565b60405180910390fd5b61082f6000610b98565b565b6004805461083e9061108c565b80601f016020809104026020016040519081016040528092919081815260200182805461086a9061108c565b80156108b75780601f1061088c576101008083540402835291602001916108b7565b820191906000526020600020905b81548152906001019060200180831161089a57829003601f168201915b505050505081565b60008060009054906101000a900473ffffffffffffffffffffffffffffffffffffffff16905090565b600380546108f59061108c565b80601f01602080910402602001604051908101604052809291908181526020018280546109219061108c565b801561096e5780601f106109435761010080835404028352916020019161096e565b820191906000526020600020905b81548152906001019060200180831161095157829003601f168201915b505050505081565b60065481565b60006040518060400160405280348152602001428152509050600160003373ffffffffffffffffffffffffffffffffffffffff1673ffffffffffffffffffffffffffffffffffffffff16815260200190815260200160002081908060018154018082558091505060019003906000526020600020906002020160009091909190915060008201518160000155602082015181600101555050610a293460065461032e90919063ffffffff16565b60068190555060076000815480929190610a4290610c95565b91905055503373ffffffffffffffffffffffffffffffffffffffff167f264f630d9efa0d07053a31163641d9fcc0adafc9d9e76f1c37c2ce3a558d2c5234604051610a8d9190610ced565b60405180910390a250565b610aa0610b90565b73ffffffffffffffffffffffffffffffffffffffff16610abe6108bf565b73ffffffffffffffffffffffffffffffffffffffff1614610b14576040517f08c379a0000000000000000000000000000000000000000000000000000000008152600401610b0b90611168565b60405180910390fd5b600073ffffffffffffffffffffffffffffffffffffffff168173ffffffffffffffffffffffffffffffffffffffff161415610b84576040517f08c379a0000000000000000000000000000000000000000000000000000000008152600401610b7b906111fa565b60405180910390fd5b610b8d81610b98565b50565b600033905090565b60008060009054906101000a900473ffffffffffffffffffffffffffffffffffffffff169050816000806101000a81548173ffffffffffffffffffffffffffffffffffffffff021916908373ffffffffffffffffffffffffffffffffffffffff1602179055508173ffffffffffffffffffffffffffffffffffffffff168173ffffffffffffffffffffffffffffffffffffffff167f8be0079c531659141344cd1fd0a4f28419497f9722a3daafe3b4186f6b6457e060405160405180910390a35050565b7f4e487b7100000000000000000000000000000000000000000000000000000000600052601160045260246000fd5b6000819050919050565b6000610ca082610c8b565b91507fffffffffffffffffffffffffffffffffffffffffffffffffffffffffffffffff821415610cd357610cd2610c5c565b5b600182019050919050565b610ce781610c8b565b82525050565b6000602082019050610d026000830184610cde565b92915050565b600081519050919050565b600082825260208201905092915050565b60005b83811015610d42578082015181840152602081019050610d27565b83811115610d51576000848401525b50505050565b6000601f19601f8301169050919050565b6000610d7382610d08565b610d7d8185610d13565b9350610d8d818560208601610d24565b610d9681610d57565b840191505092915050565b60006020820190508181036000830152610dbb8184610d68565b905092915050565b600081519050919050565b600082825260208201905092915050565b6000819050602082019050919050565b610df881610c8b565b82525050565b6000610e0a8383610def565b60208301905092915050565b6000602082019050919050565b6000610e2e82610dc3565b610e388185610dce565b9350610e4383610ddf565b8060005b83811015610e74578151610e5b8882610dfe565b9750610e6683610e16565b925050600181019050610e47565b5085935050505092915050565b60006040820190508181036000830152610e9b8185610e23565b90508181036020830152610eaf8184610e23565b90509392505050565b600080fd5b600073ffffffffffffffffffffffffffffffffffffffff82169050919050565b6000610ee882610ebd565b9050919050565b610ef881610edd565b8114610f0357600080fd5b50565b600081359050610f1581610eef565b92915050565b600060208284031215610f3157610f30610eb8565b5b6000610f3f84828501610f06565b91505092915050565b610f5181610edd565b82525050565b6000602082019050610f6c6000830184610f48565b92915050565b6000610f7d82610ebd565b9050919050565b610f8d81610f72565b82525050565b6000602082019050610fa86000830184610f84565b92915050565b610fb781610f72565b8114610fc257600080fd5b50565b600081359050610fd481610fae565b92915050565b600060208284031215610ff057610fef610eb8565b5b6000610ffe84828501610fc5565b91505092915050565b600061101282610c8b565b915061101d83610c8b565b9250827fffffffffffffffffffffffffffffffffffffffffffffffffffffffffffffffff0382111561105257611051610c5c565b5b828201905092915050565b7f4e487b7100000000000000000000000000000000000000000000000000000000600052602260045260246000fd5b600060028204905060018216806110a457607f821691505b602082108114156110b8576110b761105d565b5b50919050565b7f4e487b7100000000000000000000000000000000000000000000000000000000600052604160045260246000fd5b7f4e487b7100000000000000000000000000000000000000000000000000000000600052603260045260246000fd5b7f4f776e61626c653a2063616c6c6572206973206e6f7420746865206f776e6572600082015250565b6000611152602083610d13565b915061115d8261111c565b602082019050919050565b6000602082019050818103600083015261118181611145565b9050919050565b7f4f776e61626c653a206e6577206f776e657220697320746865207a65726f206160008201527f6464726573730000000000000000000000000000000000000000000000000000602082015250565b60006111e4602683610d13565b91506111ef82611188565b604082019050919050565b60006020820190508181036000830152611213816111d7565b905091905056fea26469706673582212203b2735595968f5995df7784c4b583e92ca6da8d9ab1b41440068610131588e0264736f6c63430008090033a26469706673582212209d32aadb28b7781ad14789a5e89938dead99ba6f99dc94f4ca55df3acd91f00664736f6c63430008090033",
  "immutableReferences": {},
  "source": "// SPDX-License-Identifier: UNLICENSED\r\n\r\npragma solidity 0.8.9;\r\n\r\nimport \"./Fundraiser.sol\";\r\n\r\ncontract FundraiserFactory {\r\n    Fundraiser[] private _fundraisers;\r\n    uint256 constant maxLimit = 20;\r\n\r\n    event FundraiserCreated(\r\n        Fundraiser indexed fundraiser,\r\n        address indexed owner\r\n    );\r\n\r\n    function createFundraiser(\r\n        string memory name,\r\n        string memory imageURL,\r\n        string memory description,\r\n        address payable beneficiary\r\n    ) public {\r\n        Fundraiser fundraiser =\r\n            new Fundraiser(\r\n                name,\r\n                imageURL,\r\n                description,\r\n                beneficiary,\r\n                payable(msg.sender)\r\n            );\r\n        _fundraisers.push(fundraiser);\r\n        emit FundraiserCreated(fundraiser, fundraiser.owner());\r\n    }\r\n\r\n    function fundraisersCount() public view returns (uint256) {\r\n        return _fundraisers.length;\r\n    }\r\n\r\n    function fundraisers(uint256 limit, uint256 offset)\r\n        public\r\n        view\r\n        returns (Fundraiser[] memory coll)\r\n    {\r\n        require(offset <= fundraisersCount(), \"offset out of bounds\");\r\n\r\n        uint256 size = fundraisersCount() - offset;\r\n        size = size < limit ? size : limit;\r\n        size = size < maxLimit ? size : maxLimit;\r\n        coll = new Fundraiser[](size);\r\n\r\n        for (uint256 i = 0; i < size; i++) {\r\n            coll[i] = _fundraisers[offset + i];\r\n        }\r\n\r\n        return coll;\r\n    }\r\n}\r\n",
  "sourcePath": "C:\\Users\\Admin\\Desktop\\All Folders\\Workspaces\\DAPP\\fundraiser\\contracts\\FundraiserFactory.sol",
  "compiler": {
    "name": "solc",
    "version": "0.8.9+commit.e5eed63a.Emscripten.clang"
  },
  "schemaVersion": "3.4.3",
  "updatedAt": "2021-12-26T06:26:23.441Z",
  "networkType": "ethereum",
  "devdoc": {
    "kind": "dev",
    "methods": {},
    "version": 1
  },
  "userdoc": {
    "kind": "user",
    "methods": {},
    "version": 1
  }
}