{
  "contractName": "FundraiserFactory",
  "abi": [
    {
      "anonymous": false,
      "inputs": [
        {
          "indexed": true,
          "internalType": "contract Fundraiser",
          "name": "fundraiser",
          "type": "address"
        },
        {
          "indexed": true,
          "internalType": "address",
          "name": "owner",
          "type": "address"
        }
      ],
      "name": "FundraiserCreated",
      "type": "event"
    },
    {
      "inputs": [
        {
          "internalType": "string",
          "name": "name",
          "type": "string"
        },
        {
          "internalType": "string",
          "name": "imageURL",
          "type": "string"
        },
        {
          "internalType": "string",
          "name": "description",
          "type": "string"
        },
        {
          "internalType": "uint256",
          "name": "targetToAchieve",
          "type": "uint256"
        },
        {
          "internalType": "address payable",
          "name": "beneficiary",
          "type": "address"
        }
      ],
      "name": "createFundraiser",
      "outputs": [],
      "stateMutability": "nonpayable",
      "type": "function"
    },
    {
      "inputs": [],
      "name": "fundraisersCount",
      "outputs": [
        {
          "internalType": "uint256",
          "name": "",
          "type": "uint256"
        }
      ],
      "stateMutability": "view",
      "type": "function",
      "constant": true
    },
    {
      "inputs": [
        {
          "internalType": "uint256",
          "name": "limit",
          "type": "uint256"
        },
        {
          "internalType": "uint256",
          "name": "offset",
          "type": "uint256"
        }
      ],
      "name": "fundraisers",
      "outputs": [
        {
          "internalType": "contract Fundraiser[]",
          "name": "coll",
          "type": "address[]"
        }
      ],
      "stateMutability": "view",
      "type": "function",
      "constant": true
    }
  ],
  "bytecode": "0x608060405234801561001057600080fd5b5061338f806100206000396000f3fe60806040523480156200001157600080fd5b5060043610620000465760003560e01c8063704914f8146200004b57806375c1399414620000815780639d3b435514620000a1575b600080fd5b62000069600480360381019062000063919062000465565b620000c3565b604051620000789190620005f4565b60405180910390f35b6200009f6004803603810190620000999190620007bf565b6200026f565b005b620000ab620003fc565b604051620000ba9190620008b5565b60405180910390f35b6060620000cf620003fc565b82111562000114576040517f08c379a00000000000000000000000000000000000000000000000000000000081526004016200010b9062000933565b60405180910390fd5b60008262000121620003fc565b6200012d919062000984565b90508381106200013e578362000140565b805b9050601481106200015357601462000155565b805b90508067ffffffffffffffff81111562000174576200017362000633565b5b604051908082528060200260200182016040528015620001a35781602001602082028036833780820191505090505b50915060005b81811015620002675760008185620001c29190620009bf565b81548110620001d657620001d562000a1c565b5b9060005260206000200160009054906101000a900473ffffffffffffffffffffffffffffffffffffffff1683828151811062000217576200021662000a1c565b5b602002602001019073ffffffffffffffffffffffffffffffffffffffff16908173ffffffffffffffffffffffffffffffffffffffff168152505080806200025e9062000a4b565b915050620001a9565b505092915050565b6000858585858533604051620002859062000408565b620002969695949392919062000b65565b604051809103906000f080158015620002b3573d6000803e3d6000fd5b5090506000819080600181540180825580915050600190039060005260206000200160009091909190916101000a81548173ffffffffffffffffffffffffffffffffffffffff021916908373ffffffffffffffffffffffffffffffffffffffff1602179055508073ffffffffffffffffffffffffffffffffffffffff16638da5cb5b6040518163ffffffff1660e01b815260040160206040518083038186803b1580156200036057600080fd5b505afa15801562000375573d6000803e3d6000fd5b505050506040513d601f19601f820116820180604052508101906200039b919062000c2c565b73ffffffffffffffffffffffffffffffffffffffff168173ffffffffffffffffffffffffffffffffffffffff167fa2398daac0c8053a1e3c0280916c2ec6bc884f0959c27e639a4db829b7eabfb160405160405180910390a3505050505050565b60008080549050905090565b6126fb8062000c5f83390190565b6000604051905090565b600080fd5b600080fd5b6000819050919050565b6200043f816200042a565b81146200044b57600080fd5b50565b6000813590506200045f8162000434565b92915050565b600080604083850312156200047f576200047e62000420565b5b60006200048f858286016200044e565b9250506020620004a2858286016200044e565b9150509250929050565b600081519050919050565b600082825260208201905092915050565b6000819050602082019050919050565b600073ffffffffffffffffffffffffffffffffffffffff82169050919050565b6000819050919050565b6000620005236200051d6200051784620004d8565b620004f8565b620004d8565b9050919050565b6000620005378262000502565b9050919050565b60006200054b826200052a565b9050919050565b6200055d816200053e565b82525050565b600062000571838362000552565b60208301905092915050565b6000602082019050919050565b60006200059782620004ac565b620005a38185620004b7565b9350620005b083620004c8565b8060005b83811015620005e7578151620005cb888262000563565b9750620005d8836200057d565b925050600181019050620005b4565b5085935050505092915050565b600060208201905081810360008301526200061081846200058a565b905092915050565b600080fd5b600080fd5b6000601f19601f8301169050919050565b7f4e487b7100000000000000000000000000000000000000000000000000000000600052604160045260246000fd5b6200066d8262000622565b810181811067ffffffffffffffff821117156200068f576200068e62000633565b5b80604052505050565b6000620006a462000416565b9050620006b2828262000662565b919050565b600067ffffffffffffffff821115620006d557620006d462000633565b5b620006e08262000622565b9050602081019050919050565b82818337600083830152505050565b6000620007136200070d84620006b7565b62000698565b9050828152602081018484840111156200073257620007316200061d565b5b6200073f848285620006ed565b509392505050565b600082601f8301126200075f576200075e62000618565b5b813562000771848260208601620006fc565b91505092915050565b60006200078782620004d8565b9050919050565b62000799816200077a565b8114620007a557600080fd5b50565b600081359050620007b9816200078e565b92915050565b600080600080600060a08688031215620007de57620007dd62000420565b5b600086013567ffffffffffffffff811115620007ff57620007fe62000425565b5b6200080d8882890162000747565b955050602086013567ffffffffffffffff81111562000831576200083062000425565b5b6200083f8882890162000747565b945050604086013567ffffffffffffffff81111562000863576200086262000425565b5b620008718882890162000747565b935050606062000884888289016200044e565b92505060806200089788828901620007a8565b9150509295509295909350565b620008af816200042a565b82525050565b6000602082019050620008cc6000830184620008a4565b92915050565b600082825260208201905092915050565b7f6f6666736574206f7574206f6620626f756e6473000000000000000000000000600082015250565b60006200091b601483620008d2565b91506200092882620008e3565b602082019050919050565b600060208201905081810360008301526200094e816200090c565b9050919050565b7f4e487b7100000000000000000000000000000000000000000000000000000000600052601160045260246000fd5b600062000991826200042a565b91506200099e836200042a565b925082821015620009b457620009b362000955565b5b828203905092915050565b6000620009cc826200042a565b9150620009d9836200042a565b9250827fffffffffffffffffffffffffffffffffffffffffffffffffffffffffffffffff0382111562000a115762000a1062000955565b5b828201905092915050565b7f4e487b7100000000000000000000000000000000000000000000000000000000600052603260045260246000fd5b600062000a58826200042a565b91507fffffffffffffffffffffffffffffffffffffffffffffffffffffffffffffffff82141562000a8e5762000a8d62000955565b5b600182019050919050565b600081519050919050565b60005b8381101562000ac457808201518184015260208101905062000aa7565b8381111562000ad4576000848401525b50505050565b600062000ae78262000a99565b62000af38185620008d2565b935062000b0581856020860162000aa4565b62000b108162000622565b840191505092915050565b600062000b288262000502565b9050919050565b600062000b3c8262000b1b565b9050919050565b62000b4e8162000b2f565b82525050565b62000b5f816200077a565b82525050565b600060c082019050818103600083015262000b81818962000ada565b9050818103602083015262000b97818862000ada565b9050818103604083015262000bad818762000ada565b905062000bbe6060830186620008a4565b62000bcd608083018562000b43565b62000bdc60a083018462000b54565b979650505050505050565b600062000bf482620004d8565b9050919050565b62000c068162000be7565b811462000c1257600080fd5b50565b60008151905062000c268162000bfb565b92915050565b60006020828403121562000c455762000c4462000420565b5b600062000c558482850162000c15565b9150509291505056fe60806040523480156200001157600080fd5b50604051620026fb380380620026fb833981810160405281019062000037919062000644565b620000576200004b6200010760201b60201c565b6200010f60201b60201c565b85600390805190602001906200006f92919062000312565b5084600490805190602001906200008892919062000312565b508360059080519060200190620000a192919062000312565b5080600660006101000a81548173ffffffffffffffffffffffffffffffffffffffff021916908373ffffffffffffffffffffffffffffffffffffffff16021790555082600a81905550620000fb82620001d360201b60201c565b505050505050620008bd565b600033905090565b60008060009054906101000a900473ffffffffffffffffffffffffffffffffffffffff169050816000806101000a81548173ffffffffffffffffffffffffffffffffffffffff021916908373ffffffffffffffffffffffffffffffffffffffff1602179055508173ffffffffffffffffffffffffffffffffffffffff168173ffffffffffffffffffffffffffffffffffffffff167f8be0079c531659141344cd1fd0a4f28419497f9722a3daafe3b4186f6b6457e060405160405180910390a35050565b620001e36200010760201b60201c565b73ffffffffffffffffffffffffffffffffffffffff1662000209620002e960201b60201c565b73ffffffffffffffffffffffffffffffffffffffff161462000262576040517f08c379a000000000000000000000000000000000000000000000000000000000815260040162000259906200079e565b60405180910390fd5b600073ffffffffffffffffffffffffffffffffffffffff168173ffffffffffffffffffffffffffffffffffffffff161415620002d5576040517f08c379a0000000000000000000000000000000000000000000000000000000008152600401620002cc9062000836565b60405180910390fd5b620002e6816200010f60201b60201c565b50565b60008060009054906101000a900473ffffffffffffffffffffffffffffffffffffffff16905090565b828054620003209062000887565b90600052602060002090601f01602090048101928262000344576000855562000390565b82601f106200035f57805160ff191683800117855562000390565b8280016001018555821562000390579182015b828111156200038f57825182559160200191906001019062000372565b5b5090506200039f9190620003a3565b5090565b5b80821115620003be576000816000905550600101620003a4565b5090565b6000604051905090565b600080fd5b600080fd5b600080fd5b600080fd5b6000601f19601f8301169050919050565b7f4e487b7100000000000000000000000000000000000000000000000000000000600052604160045260246000fd5b6200042b82620003e0565b810181811067ffffffffffffffff821117156200044d576200044c620003f1565b5b80604052505050565b600062000462620003c2565b905062000470828262000420565b919050565b600067ffffffffffffffff821115620004935762000492620003f1565b5b6200049e82620003e0565b9050602081019050919050565b60005b83811015620004cb578082015181840152602081019050620004ae565b83811115620004db576000848401525b50505050565b6000620004f8620004f28462000475565b62000456565b905082815260208101848484011115620005175762000516620003db565b5b62000524848285620004ab565b509392505050565b600082601f830112620005445762000543620003d6565b5b815162000556848260208601620004e1565b91505092915050565b6000819050919050565b62000574816200055f565b81146200058057600080fd5b50565b600081519050620005948162000569565b92915050565b600073ffffffffffffffffffffffffffffffffffffffff82169050919050565b6000620005c7826200059a565b9050919050565b620005d981620005ba565b8114620005e557600080fd5b50565b600081519050620005f981620005ce565b92915050565b60006200060c826200059a565b9050919050565b6200061e81620005ff565b81146200062a57600080fd5b50565b6000815190506200063e8162000613565b92915050565b60008060008060008060c08789031215620006645762000663620003cc565b5b600087015167ffffffffffffffff811115620006855762000684620003d1565b5b6200069389828a016200052c565b965050602087015167ffffffffffffffff811115620006b757620006b6620003d1565b5b620006c589828a016200052c565b955050604087015167ffffffffffffffff811115620006e957620006e8620003d1565b5b620006f789828a016200052c565b94505060606200070a89828a0162000583565b93505060806200071d89828a01620005e8565b92505060a06200073089828a016200062d565b9150509295509295509295565b600082825260208201905092915050565b7f4f776e61626c653a2063616c6c6572206973206e6f7420746865206f776e6572600082015250565b6000620007866020836200073d565b915062000793826200074e565b602082019050919050565b60006020820190508181036000830152620007b98162000777565b9050919050565b7f4f776e61626c653a206e6577206f776e657220697320746865207a65726f206160008201527f6464726573730000000000000000000000000000000000000000000000000000602082015250565b60006200081e6026836200073d565b91506200082b82620007c0565b604082019050919050565b6000602082019050818103600083015262000851816200080f565b9050919050565b7f4e487b7100000000000000000000000000000000000000000000000000000000600052602260045260246000fd5b60006002820490506001821680620008a057607f821691505b60208210811415620008b757620008b662000858565b5b50919050565b611e2e80620008cd6000396000f3fe60806040526004361061014f5760003560e01c80637284e416116100b6578063b2a87fc31161006f578063b2a87fc3146104a1578063b90497e0146104cc578063d7d1bbdb146104f7578063de2ed89314610520578063ed88c68e1461054b578063f2fde38b1461055557610189565b80637284e4161461038b57806381d12c58146103b657806382fde093146103f75780638a9cfd55146104225780638da5cb5b1461044b578063937e09b11461047657610189565b80631f522595116101085780631f5225951461029f5780631fbed579146102ca5780633410452a1461030757806338af3eed146103325780633ccfd60b1461035d578063715018a61461037457610189565b80630180b97c1461018e57806303441006146101b957806306fdde03146101e25780630a1443911461020d5780631a57f7b41461024a5780631c31f7101461027657610189565b36610189576101693460075461057e90919063ffffffff16565b60078190555060086000815480929190610182906115a6565b9190505550005b600080fd5b34801561019a57600080fd5b506101a3610594565b6040516101b091906115fe565b60405180910390f35b3480156101c557600080fd5b506101e060048036038101906101db9190611659565b6105de565b005b3480156101ee57600080fd5b506101f76107c8565b604051610204919061171f565b60405180910390f35b34801561021957600080fd5b50610234600480360381019061022f919061179f565b610856565b60405161024191906117e7565b60405180910390f35b34801561025657600080fd5b5061025f610876565b60405161026d9291906118c0565b60405180910390f35b34801561028257600080fd5b5061029d60048036038101906102989190611935565b6109eb565b005b3480156102ab57600080fd5b506102b4610aab565b6040516102c191906115fe565b60405180910390f35b3480156102d657600080fd5b506102f160048036038101906102ec9190611659565b610ab1565b6040516102fe9190611971565b60405180910390f35b34801561031357600080fd5b5061031c610af0565b60405161032991906115fe565b60405180910390f35b34801561033e57600080fd5b50610347610afd565b604051610354919061199b565b60405180910390f35b34801561036957600080fd5b50610372610b23565b005b34801561038057600080fd5b50610389610c4f565b005b34801561039757600080fd5b506103a0610cd7565b6040516103ad919061171f565b60405180910390f35b3480156103c257600080fd5b506103dd60048036038101906103d89190611659565b610d65565b6040516103ee9594939291906119b6565b60405180910390f35b34801561040357600080fd5b5061040c610e60565b60405161041991906115fe565b60405180910390f35b34801561042e57600080fd5b5061044960048036038101906104449190611b45565b610e66565b005b34801561045757600080fd5b50610460610f98565b60405161046d9190611971565b60405180910390f35b34801561048257600080fd5b5061048b610fc1565b60405161049891906115fe565b60405180910390f35b3480156104ad57600080fd5b506104b6610fc7565b6040516104c391906115fe565b60405180910390f35b3480156104d857600080fd5b506104e1610fcd565b6040516104ee919061171f565b60405180910390f35b34801561050357600080fd5b5061051e60048036038101906105199190611659565b61105b565b005b34801561052c57600080fd5b506105356111e4565b60405161054291906115fe565b60405180910390f35b6105536111ea565b005b34801561056157600080fd5b5061057c6004803603810190610577919061179f565b611306565b005b6000818361058c9190611bb4565b905092915050565b6000600160003373ffffffffffffffffffffffffffffffffffffffff1673ffffffffffffffffffffffffffffffffffffffff16815260200190815260200160002080549050905090565b6105e66113fe565b73ffffffffffffffffffffffffffffffffffffffff16610604610f98565b73ffffffffffffffffffffffffffffffffffffffff161461065a576040517f08c379a000000000000000000000000000000000000000000000000000000000815260040161065190611c56565b60405180910390fd5b6002600d546106699190611ca5565b6002828154811061067d5761067c611cd6565b5b9060005260206000209060050201600301541161069957600080fd5b600281815481106106ad576106ac611cd6565b5b906000526020600020906005020160020160149054906101000a900460ff16156106d657600080fd5b600281815481106106ea576106e9611cd6565b5b906000526020600020906005020160020160009054906101000a900473ffffffffffffffffffffffffffffffffffffffff1673ffffffffffffffffffffffffffffffffffffffff166108fc6002838154811061074957610748611cd6565b5b9060005260206000209060050201600101549081150290604051600060405180830381858888f19350505050158015610786573d6000803e3d6000fd5b5060016002828154811061079d5761079c611cd6565b5b906000526020600020906005020160020160146101000a81548160ff02191690831515021790555050565b600380546107d590611d34565b80601f016020809104026020016040519081016040528092919081815260200182805461080190611d34565b801561084e5780601f106108235761010080835404028352916020019161084e565b820191906000526020600020905b81548152906001019060200180831161083157829003601f168201915b505050505081565b600c6020528060005260406000206000915054906101000a900460ff1681565b6060806000610883610594565b90508067ffffffffffffffff81111561089f5761089e611a1a565b5b6040519080825280602002602001820160405280156108cd5781602001602082028036833780820191505090505b5092508067ffffffffffffffff8111156108ea576108e9611a1a565b5b6040519080825280602002602001820160405280156109185781602001602082028036833780820191505090505b50915060005b818110156109e5576000600160003373ffffffffffffffffffffffffffffffffffffffff1673ffffffffffffffffffffffffffffffffffffffff168152602001908152602001600020828154811061097957610978611cd6565b5b9060005260206000209060020201905080600001548583815181106109a1576109a0611cd6565b5b60200260200101818152505080600101548483815181106109c5576109c4611cd6565b5b6020026020010181815250505080806109dd906115a6565b91505061091e565b50509091565b6109f36113fe565b73ffffffffffffffffffffffffffffffffffffffff16610a11610f98565b73ffffffffffffffffffffffffffffffffffffffff1614610a67576040517f08c379a0000000000000000000000000000000000000000000000000000000008152600401610a5e90611c56565b60405180910390fd5b80600660006101000a81548173ffffffffffffffffffffffffffffffffffffffff021916908373ffffffffffffffffffffffffffffffffffffffff16021790555050565b60085481565b600b8181548110610ac157600080fd5b906000526020600020016000915054906101000a900473ffffffffffffffffffffffffffffffffffffffff1681565b6000600280549050905090565b600660009054906101000a900473ffffffffffffffffffffffffffffffffffffffff1681565b610b2b6113fe565b73ffffffffffffffffffffffffffffffffffffffff16610b49610f98565b73ffffffffffffffffffffffffffffffffffffffff1614610b9f576040517f08c379a0000000000000000000000000000000000000000000000000000000008152600401610b9690611c56565b60405180910390fd5b6000479050600660009054906101000a900473ffffffffffffffffffffffffffffffffffffffff1673ffffffffffffffffffffffffffffffffffffffff166108fc829081150290604051600060405180830381858888f19350505050158015610c0c573d6000803e3d6000fd5b5060006007819055507f5b6b431d4476a211bb7d41c20d1aab9ae2321deee0d20be3d9fc9b1093fa6e3d81604051610c4491906115fe565b60405180910390a150565b610c576113fe565b73ffffffffffffffffffffffffffffffffffffffff16610c75610f98565b73ffffffffffffffffffffffffffffffffffffffff1614610ccb576040517f08c379a0000000000000000000000000000000000000000000000000000000008152600401610cc290611c56565b60405180910390fd5b610cd56000611406565b565b60058054610ce490611d34565b80601f0160208091040260200160405190810160405280929190818152602001828054610d1090611d34565b8015610d5d5780601f10610d3257610100808354040283529160200191610d5d565b820191906000526020600020905b815481529060010190602001808311610d4057829003601f168201915b505050505081565b60028181548110610d7557600080fd5b9060005260206000209060050201600091509050806000018054610d9890611d34565b80601f0160208091040260200160405190810160405280929190818152602001828054610dc490611d34565b8015610e115780601f10610de657610100808354040283529160200191610e11565b820191906000526020600020905b815481529060010190602001808311610df457829003601f168201915b5050505050908060010154908060020160009054906101000a900473ffffffffffffffffffffffffffffffffffffffff16908060020160149054906101000a900460ff16908060030154905085565b600d5481565b610e6e6113fe565b73ffffffffffffffffffffffffffffffffffffffff16610e8c610f98565b73ffffffffffffffffffffffffffffffffffffffff1614610ee2576040517f08c379a0000000000000000000000000000000000000000000000000000000008152600401610ed990611c56565b60405180910390fd5b60006002600181600181540180825580915050039060005260206000209060050201905083816000019080519060200190610f1e9291906114ca565b50828160010181905550818160020160006101000a81548173ffffffffffffffffffffffffffffffffffffffff021916908373ffffffffffffffffffffffffffffffffffffffff16021790555060008160020160146101000a81548160ff0219169083151502179055506000816003018190555050505050565b60008060009054906101000a900473ffffffffffffffffffffffffffffffffffffffff16905090565b60095481565b600a5481565b60048054610fda90611d34565b80601f016020809104026020016040519081016040528092919081815260200182805461100690611d34565b80156110535780601f1061102857610100808354040283529160200191611053565b820191906000526020600020905b81548152906001019060200180831161103657829003601f168201915b505050505081565b600c60003373ffffffffffffffffffffffffffffffffffffffff1673ffffffffffffffffffffffffffffffffffffffff16815260200190815260200160002060009054906101000a900460ff166110b157600080fd5b600281815481106110c5576110c4611cd6565b5b906000526020600020906005020160040160003373ffffffffffffffffffffffffffffffffffffffff1673ffffffffffffffffffffffffffffffffffffffff16815260200190815260200160002060009054906101000a900460ff161561112b57600080fd5b60016002828154811061114157611140611cd6565b5b906000526020600020906005020160040160003373ffffffffffffffffffffffffffffffffffffffff1673ffffffffffffffffffffffffffffffffffffffff16815260200190815260200160002060006101000a81548160ff021916908315150217905550600281815481106111ba576111b9611cd6565b5b906000526020600020906005020160030160008154809291906111dc906115a6565b919050555050565b60075481565b60006040518060400160405280348152602001428152509050600160003373ffffffffffffffffffffffffffffffffffffffff1673ffffffffffffffffffffffffffffffffffffffff168152602001908152602001600020819080600181540180825580915050600190039060005260206000209060020201600090919091909150600082015181600001556020820151816001015550506112973460075461057e90919063ffffffff16565b600781905550600860008154809291906112b0906115a6565b91905055503373ffffffffffffffffffffffffffffffffffffffff167f264f630d9efa0d07053a31163641d9fcc0adafc9d9e76f1c37c2ce3a558d2c52346040516112fb91906115fe565b60405180910390a250565b61130e6113fe565b73ffffffffffffffffffffffffffffffffffffffff1661132c610f98565b73ffffffffffffffffffffffffffffffffffffffff1614611382576040517f08c379a000000000000000000000000000000000000000000000000000000000815260040161137990611c56565b60405180910390fd5b600073ffffffffffffffffffffffffffffffffffffffff168173ffffffffffffffffffffffffffffffffffffffff1614156113f2576040517f08c379a00000000000000000000000000000000000000000000000000000000081526004016113e990611dd8565b60405180910390fd5b6113fb81611406565b50565b600033905090565b60008060009054906101000a900473ffffffffffffffffffffffffffffffffffffffff169050816000806101000a81548173ffffffffffffffffffffffffffffffffffffffff021916908373ffffffffffffffffffffffffffffffffffffffff1602179055508173ffffffffffffffffffffffffffffffffffffffff168173ffffffffffffffffffffffffffffffffffffffff167f8be0079c531659141344cd1fd0a4f28419497f9722a3daafe3b4186f6b6457e060405160405180910390a35050565b8280546114d690611d34565b90600052602060002090601f0160209004810192826114f8576000855561153f565b82601f1061151157805160ff191683800117855561153f565b8280016001018555821561153f579182015b8281111561153e578251825591602001919060010190611523565b5b50905061154c9190611550565b5090565b5b80821115611569576000816000905550600101611551565b5090565b7f4e487b7100000000000000000000000000000000000000000000000000000000600052601160045260246000fd5b6000819050919050565b60006115b18261159c565b91507fffffffffffffffffffffffffffffffffffffffffffffffffffffffffffffffff8214156115e4576115e361156d565b5b600182019050919050565b6115f88161159c565b82525050565b600060208201905061161360008301846115ef565b92915050565b6000604051905090565b600080fd5b600080fd5b6116368161159c565b811461164157600080fd5b50565b6000813590506116538161162d565b92915050565b60006020828403121561166f5761166e611623565b5b600061167d84828501611644565b91505092915050565b600081519050919050565b600082825260208201905092915050565b60005b838110156116c05780820151818401526020810190506116a5565b838111156116cf576000848401525b50505050565b6000601f19601f8301169050919050565b60006116f182611686565b6116fb8185611691565b935061170b8185602086016116a2565b611714816116d5565b840191505092915050565b6000602082019050818103600083015261173981846116e6565b905092915050565b600073ffffffffffffffffffffffffffffffffffffffff82169050919050565b600061176c82611741565b9050919050565b61177c81611761565b811461178757600080fd5b50565b60008135905061179981611773565b92915050565b6000602082840312156117b5576117b4611623565b5b60006117c38482850161178a565b91505092915050565b60008115159050919050565b6117e1816117cc565b82525050565b60006020820190506117fc60008301846117d8565b92915050565b600081519050919050565b600082825260208201905092915050565b6000819050602082019050919050565b6118378161159c565b82525050565b6000611849838361182e565b60208301905092915050565b6000602082019050919050565b600061186d82611802565b611877818561180d565b93506118828361181e565b8060005b838110156118b357815161189a888261183d565b97506118a583611855565b925050600181019050611886565b5085935050505092915050565b600060408201905081810360008301526118da8185611862565b905081810360208301526118ee8184611862565b90509392505050565b600061190282611741565b9050919050565b611912816118f7565b811461191d57600080fd5b50565b60008135905061192f81611909565b92915050565b60006020828403121561194b5761194a611623565b5b600061195984828501611920565b91505092915050565b61196b81611761565b82525050565b60006020820190506119866000830184611962565b92915050565b611995816118f7565b82525050565b60006020820190506119b0600083018461198c565b92915050565b600060a08201905081810360008301526119d081886116e6565b90506119df60208301876115ef565b6119ec604083018661198c565b6119f960608301856117d8565b611a0660808301846115ef565b9695505050505050565b600080fd5b600080fd5b7f4e487b7100000000000000000000000000000000000000000000000000000000600052604160045260246000fd5b611a52826116d5565b810181811067ffffffffffffffff82111715611a7157611a70611a1a565b5b80604052505050565b6000611a84611619565b9050611a908282611a49565b919050565b600067ffffffffffffffff821115611ab057611aaf611a1a565b5b611ab9826116d5565b9050602081019050919050565b82818337600083830152505050565b6000611ae8611ae384611a95565b611a7a565b905082815260208101848484011115611b0457611b03611a15565b5b611b0f848285611ac6565b509392505050565b600082601f830112611b2c57611b2b611a10565b5b8135611b3c848260208601611ad5565b91505092915050565b600080600060608486031215611b5e57611b5d611623565b5b600084013567ffffffffffffffff811115611b7c57611b7b611628565b5b611b8886828701611b17565b9350506020611b9986828701611644565b9250506040611baa86828701611920565b9150509250925092565b6000611bbf8261159c565b9150611bca8361159c565b9250827fffffffffffffffffffffffffffffffffffffffffffffffffffffffffffffffff03821115611bff57611bfe61156d565b5b828201905092915050565b7f4f776e61626c653a2063616c6c6572206973206e6f7420746865206f776e6572600082015250565b6000611c40602083611691565b9150611c4b82611c0a565b602082019050919050565b60006020820190508181036000830152611c6f81611c33565b9050919050565b7f4e487b7100000000000000000000000000000000000000000000000000000000600052601260045260246000fd5b6000611cb08261159c565b9150611cbb8361159c565b925082611ccb57611cca611c76565b5b828204905092915050565b7f4e487b7100000000000000000000000000000000000000000000000000000000600052603260045260246000fd5b7f4e487b7100000000000000000000000000000000000000000000000000000000600052602260045260246000fd5b60006002820490506001821680611d4c57607f821691505b60208210811415611d6057611d5f611d05565b5b50919050565b7f4f776e61626c653a206e6577206f776e657220697320746865207a65726f206160008201527f6464726573730000000000000000000000000000000000000000000000000000602082015250565b6000611dc2602683611691565b9150611dcd82611d66565b604082019050919050565b60006020820190508181036000830152611df181611db5565b905091905056fea264697066735822122028a6e7dc01d6e540b5299e8c455c6a8af17720bf4ab5d88334796fbd5d5c813e64736f6c63430008090033a26469706673582212200920303b7512b127cb161762f5b359226794c5aba01955fb72f3c3e4ff00b75664736f6c63430008090033",
  "immutableReferences": {},
  "source": "// SPDX-License-Identifier: UNLICENSED\r\n\r\npragma solidity 0.8.9;\r\n\r\nimport \"./Fundraiser.sol\";\r\n\r\ncontract FundraiserFactory {\r\n    Fundraiser[] private _fundraisers;\r\n    uint256 constant maxLimit = 20;\r\n\r\n    event FundraiserCreated(\r\n        Fundraiser indexed fundraiser,\r\n        address indexed owner\r\n    );\r\n\r\n    function createFundraiser(\r\n        string memory name,\r\n        string memory imageURL,\r\n        string memory description,\r\n        // uint256 minimumContribution,\r\n        uint256 targetToAchieve,\r\n        address payable beneficiary\r\n    ) public {\r\n        Fundraiser fundraiser =\r\n            new Fundraiser(\r\n                name,\r\n                imageURL,\r\n                description,\r\n                // minimumContribution,\r\n                targetToAchieve,\r\n                beneficiary,\r\n                payable(msg.sender)\r\n            );\r\n        _fundraisers.push(fundraiser);\r\n        emit FundraiserCreated(fundraiser, fundraiser.owner());\r\n    }\r\n\r\n    function fundraisersCount() public view returns (uint256) {\r\n        return _fundraisers.length;\r\n    }\r\n\r\n    function fundraisers(uint256 limit, uint256 offset)\r\n        public\r\n        view\r\n        returns (Fundraiser[] memory coll)\r\n    {\r\n        require(offset <= fundraisersCount(), \"offset out of bounds\");\r\n\r\n        uint256 size = fundraisersCount() - offset;\r\n        size = size < limit ? size : limit;\r\n        size = size < maxLimit ? size : maxLimit;\r\n        coll = new Fundraiser[](size);\r\n\r\n        for (uint256 i = 0; i < size; i++) {\r\n            coll[i] = _fundraisers[offset + i];\r\n        }\r\n\r\n        return coll;\r\n    }\r\n}\r\n",
  "sourcePath": "C:\\Users\\Admin\\Desktop\\All Folders\\Workspaces\\DAPP\\fundraiser\\contracts\\FundraiserFactory.sol",
  "compiler": {
    "name": "solc",
    "version": "0.8.9+commit.e5eed63a.Emscripten.clang"
  },
  "schemaVersion": "3.4.3",
  "updatedAt": "2021-12-31T08:54:55.270Z",
  "networkType": "ethereum",
  "devdoc": {
    "kind": "dev",
    "methods": {},
    "version": 1
  },
  "userdoc": {
    "kind": "user",
    "methods": {},
    "version": 1
  }
}