{
  "contractName": "FundraiserFactory",
  "abi": [
    {
      "anonymous": false,
      "inputs": [
        {
          "indexed": true,
          "internalType": "contract Fundraiser",
          "name": "fundraiser",
          "type": "address"
        },
        {
          "indexed": true,
          "internalType": "address",
          "name": "owner",
          "type": "address"
        }
      ],
      "name": "FundraiserCreated",
      "type": "event"
    },
    {
      "inputs": [
        {
          "internalType": "string",
          "name": "name",
          "type": "string"
        },
        {
          "internalType": "string",
          "name": "url",
          "type": "string"
        },
        {
          "internalType": "string",
          "name": "imageURL",
          "type": "string"
        },
        {
          "internalType": "string",
          "name": "description",
          "type": "string"
        },
        {
          "internalType": "address payable",
          "name": "beneficiary",
          "type": "address"
        }
      ],
      "name": "createFundraiser",
      "outputs": [],
      "stateMutability": "nonpayable",
      "type": "function"
    },
    {
      "inputs": [],
      "name": "fundraisersCount",
      "outputs": [
        {
          "internalType": "uint256",
          "name": "",
          "type": "uint256"
        }
      ],
      "stateMutability": "view",
      "type": "function",
      "constant": true
    },
    {
      "inputs": [
        {
          "internalType": "uint256",
          "name": "limit",
          "type": "uint256"
        },
        {
          "internalType": "uint256",
          "name": "offset",
          "type": "uint256"
        }
      ],
      "name": "fundraisers",
      "outputs": [
        {
          "internalType": "contract Fundraiser[]",
          "name": "coll",
          "type": "address[]"
        }
      ],
      "stateMutability": "view",
      "type": "function",
      "constant": true
    }
  ],
  "bytecode": "0x608060405234801561001057600080fd5b50612889806100206000396000f3fe60806040523480156200001157600080fd5b5060043610620000465760003560e01c806311d752ad146200004b578063704914f8146200006b5780639d3b435514620000a1575b600080fd5b620000696004803603810190620000639190620005f1565b620000c3565b005b62000089600480360381019062000083919062000730565b62000250565b6040516200009891906200089f565b60405180910390f35b620000ab620003fc565b604051620000ba9190620008d4565b60405180910390f35b6000858585858533604051620000d99062000408565b620000ea96959493929190620009ce565b604051809103906000f08015801562000107573d6000803e3d6000fd5b5090506000819080600181540180825580915050600190039060005260206000200160009091909190916101000a81548173ffffffffffffffffffffffffffffffffffffffff021916908373ffffffffffffffffffffffffffffffffffffffff1602179055508073ffffffffffffffffffffffffffffffffffffffff16638da5cb5b6040518163ffffffff1660e01b815260040160206040518083038186803b158015620001b457600080fd5b505afa158015620001c9573d6000803e3d6000fd5b505050506040513d601f19601f82011682018060405250810190620001ef919062000a9c565b73ffffffffffffffffffffffffffffffffffffffff168173ffffffffffffffffffffffffffffffffffffffff167fa2398daac0c8053a1e3c0280916c2ec6bc884f0959c27e639a4db829b7eabfb160405160405180910390a3505050505050565b60606200025c620003fc565b821115620002a1576040517f08c379a0000000000000000000000000000000000000000000000000000000008152600401620002989062000b1e565b60405180910390fd5b600082620002ae620003fc565b620002ba919062000b6f565b9050838110620002cb5783620002cd565b805b905060148110620002e0576014620002e2565b805b90508067ffffffffffffffff81111562000301576200030062000445565b5b604051908082528060200260200182016040528015620003305781602001602082028036833780820191505090505b50915060005b81811015620003f457600081856200034f919062000baa565b8154811062000363576200036262000c07565b5b9060005260206000200160009054906101000a900473ffffffffffffffffffffffffffffffffffffffff16838281518110620003a457620003a362000c07565b5b602002602001019073ffffffffffffffffffffffffffffffffffffffff16908173ffffffffffffffffffffffffffffffffffffffff16815250508080620003eb9062000c36565b91505062000336565b505092915050565b60008080549050905090565b611bcf8062000c8583390190565b6000604051905090565b600080fd5b600080fd5b600080fd5b600080fd5b6000601f19601f8301169050919050565b7f4e487b7100000000000000000000000000000000000000000000000000000000600052604160045260246000fd5b6200047f8262000434565b810181811067ffffffffffffffff82111715620004a157620004a062000445565b5b80604052505050565b6000620004b662000416565b9050620004c4828262000474565b919050565b600067ffffffffffffffff821115620004e757620004e662000445565b5b620004f28262000434565b9050602081019050919050565b82818337600083830152505050565b6000620005256200051f84620004c9565b620004aa565b9050828152602081018484840111156200054457620005436200042f565b5b62000551848285620004ff565b509392505050565b600082601f8301126200057157620005706200042a565b5b8135620005838482602086016200050e565b91505092915050565b600073ffffffffffffffffffffffffffffffffffffffff82169050919050565b6000620005b9826200058c565b9050919050565b620005cb81620005ac565b8114620005d757600080fd5b50565b600081359050620005eb81620005c0565b92915050565b600080600080600060a0868803121562000610576200060f62000420565b5b600086013567ffffffffffffffff81111562000631576200063062000425565b5b6200063f8882890162000559565b955050602086013567ffffffffffffffff81111562000663576200066262000425565b5b620006718882890162000559565b945050604086013567ffffffffffffffff81111562000695576200069462000425565b5b620006a38882890162000559565b935050606086013567ffffffffffffffff811115620006c757620006c662000425565b5b620006d58882890162000559565b9250506080620006e888828901620005da565b9150509295509295909350565b6000819050919050565b6200070a81620006f5565b81146200071657600080fd5b50565b6000813590506200072a81620006ff565b92915050565b600080604083850312156200074a576200074962000420565b5b60006200075a8582860162000719565b92505060206200076d8582860162000719565b9150509250929050565b600081519050919050565b600082825260208201905092915050565b6000819050602082019050919050565b6000819050919050565b6000620007ce620007c8620007c2846200058c565b620007a3565b6200058c565b9050919050565b6000620007e282620007ad565b9050919050565b6000620007f682620007d5565b9050919050565b6200080881620007e9565b82525050565b60006200081c8383620007fd565b60208301905092915050565b6000602082019050919050565b6000620008428262000777565b6200084e818562000782565b93506200085b8362000793565b8060005b83811015620008925781516200087688826200080e565b9750620008838362000828565b9250506001810190506200085f565b5085935050505092915050565b60006020820190508181036000830152620008bb818462000835565b905092915050565b620008ce81620006f5565b82525050565b6000602082019050620008eb6000830184620008c3565b92915050565b600081519050919050565b600082825260208201905092915050565b60005b838110156200092d57808201518184015260208101905062000910565b838111156200093d576000848401525b50505050565b60006200095082620008f1565b6200095c8185620008fc565b93506200096e8185602086016200090d565b620009798162000434565b840191505092915050565b60006200099182620007ad565b9050919050565b6000620009a58262000984565b9050919050565b620009b78162000998565b82525050565b620009c881620005ac565b82525050565b600060c0820190508181036000830152620009ea818962000943565b9050818103602083015262000a00818862000943565b9050818103604083015262000a16818762000943565b9050818103606083015262000a2c818662000943565b905062000a3d6080830185620009ac565b62000a4c60a0830184620009bd565b979650505050505050565b600062000a64826200058c565b9050919050565b62000a768162000a57565b811462000a8257600080fd5b50565b60008151905062000a968162000a6b565b92915050565b60006020828403121562000ab55762000ab462000420565b5b600062000ac58482850162000a85565b91505092915050565b7f6f6666736574206f7574206f6620626f756e6473000000000000000000000000600082015250565b600062000b06601483620008fc565b915062000b138262000ace565b602082019050919050565b6000602082019050818103600083015262000b398162000af7565b9050919050565b7f4e487b7100000000000000000000000000000000000000000000000000000000600052601160045260246000fd5b600062000b7c82620006f5565b915062000b8983620006f5565b92508282101562000b9f5762000b9e62000b40565b5b828203905092915050565b600062000bb782620006f5565b915062000bc483620006f5565b9250827fffffffffffffffffffffffffffffffffffffffffffffffffffffffffffffffff0382111562000bfc5762000bfb62000b40565b5b828201905092915050565b7f4e487b7100000000000000000000000000000000000000000000000000000000600052603260045260246000fd5b600062000c4382620006f5565b91507fffffffffffffffffffffffffffffffffffffffffffffffffffffffffffffffff82141562000c795762000c7862000b40565b5b60018201905091905056fe60806040523480156200001157600080fd5b5060405162001bcf38038062001bcf83398181016040528101906200003791906200061b565b620000576200004b6200011960201b60201c565b6200012160201b60201c565b85600290805190602001906200006f92919062000324565b5084600390805190602001906200008892919062000324565b508360049080519060200190620000a192919062000324565b508260059080519060200190620000ba92919062000324565b5080600660006101000a81548173ffffffffffffffffffffffffffffffffffffffff021916908373ffffffffffffffffffffffffffffffffffffffff1602179055506200010d82620001e560201b60201c565b505050505050620008b3565b600033905090565b60008060009054906101000a900473ffffffffffffffffffffffffffffffffffffffff169050816000806101000a81548173ffffffffffffffffffffffffffffffffffffffff021916908373ffffffffffffffffffffffffffffffffffffffff1602179055508173ffffffffffffffffffffffffffffffffffffffff168173ffffffffffffffffffffffffffffffffffffffff167f8be0079c531659141344cd1fd0a4f28419497f9722a3daafe3b4186f6b6457e060405160405180910390a35050565b620001f56200011960201b60201c565b73ffffffffffffffffffffffffffffffffffffffff166200021b620002fb60201b60201c565b73ffffffffffffffffffffffffffffffffffffffff161462000274576040517f08c379a00000000000000000000000000000000000000000000000000000000081526004016200026b9062000794565b60405180910390fd5b600073ffffffffffffffffffffffffffffffffffffffff168173ffffffffffffffffffffffffffffffffffffffff161415620002e7576040517f08c379a0000000000000000000000000000000000000000000000000000000008152600401620002de906200082c565b60405180910390fd5b620002f8816200012160201b60201c565b50565b60008060009054906101000a900473ffffffffffffffffffffffffffffffffffffffff16905090565b82805462000332906200087d565b90600052602060002090601f016020900481019282620003565760008555620003a2565b82601f106200037157805160ff1916838001178555620003a2565b82800160010185558215620003a2579182015b82811115620003a157825182559160200191906001019062000384565b5b509050620003b19190620003b5565b5090565b5b80821115620003d0576000816000905550600101620003b6565b5090565b6000604051905090565b600080fd5b600080fd5b600080fd5b600080fd5b6000601f19601f8301169050919050565b7f4e487b7100000000000000000000000000000000000000000000000000000000600052604160045260246000fd5b6200043d82620003f2565b810181811067ffffffffffffffff821117156200045f576200045e62000403565b5b80604052505050565b600062000474620003d4565b905062000482828262000432565b919050565b600067ffffffffffffffff821115620004a557620004a462000403565b5b620004b082620003f2565b9050602081019050919050565b60005b83811015620004dd578082015181840152602081019050620004c0565b83811115620004ed576000848401525b50505050565b60006200050a620005048462000487565b62000468565b905082815260208101848484011115620005295762000528620003ed565b5b62000536848285620004bd565b509392505050565b600082601f830112620005565762000555620003e8565b5b815162000568848260208601620004f3565b91505092915050565b600073ffffffffffffffffffffffffffffffffffffffff82169050919050565b60006200059e8262000571565b9050919050565b620005b08162000591565b8114620005bc57600080fd5b50565b600081519050620005d081620005a5565b92915050565b6000620005e38262000571565b9050919050565b620005f581620005d6565b81146200060157600080fd5b50565b6000815190506200061581620005ea565b92915050565b60008060008060008060c087890312156200063b576200063a620003de565b5b600087015167ffffffffffffffff8111156200065c576200065b620003e3565b5b6200066a89828a016200053e565b965050602087015167ffffffffffffffff8111156200068e576200068d620003e3565b5b6200069c89828a016200053e565b955050604087015167ffffffffffffffff811115620006c057620006bf620003e3565b5b620006ce89828a016200053e565b945050606087015167ffffffffffffffff811115620006f257620006f1620003e3565b5b6200070089828a016200053e565b93505060806200071389828a01620005bf565b92505060a06200072689828a0162000604565b9150509295509295509295565b600082825260208201905092915050565b7f4f776e61626c653a2063616c6c6572206973206e6f7420746865206f776e6572600082015250565b60006200077c60208362000733565b9150620007898262000744565b602082019050919050565b60006020820190508181036000830152620007af816200076d565b9050919050565b7f4f776e61626c653a206e6577206f776e657220697320746865207a65726f206160008201527f6464726573730000000000000000000000000000000000000000000000000000602082015250565b60006200081460268362000733565b91506200082182620007b6565b604082019050919050565b60006020820190508181036000830152620008478162000805565b9050919050565b7f4e487b7100000000000000000000000000000000000000000000000000000000600052602260045260246000fd5b600060028204905060018216806200089657607f821691505b60208210811415620008ad57620008ac6200084e565b5b50919050565b61130c80620008c36000396000f3fe6080604052600436106100ec5760003560e01c80635600f04f1161008a578063b90497e011610059578063b90497e0146102db578063de2ed89314610306578063ed88c68e14610331578063f2fde38b1461033b57610126565b80635600f04f14610243578063715018a61461026e5780637284e416146102855780638da5cb5b146102b057610126565b80631c31f710116100c65780631c31f710146101ad5780631f522595146101d657806338af3eed146102015780633ccfd60b1461022c57610126565b80630180b97c1461012b57806306fdde03146101565780631a57f7b41461018157610126565b36610126576101063460075461036490919063ffffffff16565b6007819055506008600081548092919061011f90610d51565b9190505550005b600080fd5b34801561013757600080fd5b5061014061037a565b60405161014d9190610da9565b60405180910390f35b34801561016257600080fd5b5061016b6103c4565b6040516101789190610e5d565b60405180910390f35b34801561018d57600080fd5b50610196610452565b6040516101a4929190610f3d565b60405180910390f35b3480156101b957600080fd5b506101d460048036038101906101cf9190610fd7565b6105c7565b005b3480156101e257600080fd5b506101eb610687565b6040516101f89190610da9565b60405180910390f35b34801561020d57600080fd5b5061021661068d565b6040516102239190611013565b60405180910390f35b34801561023857600080fd5b506102416106b3565b005b34801561024f57600080fd5b506102586107d7565b6040516102659190610e5d565b60405180910390f35b34801561027a57600080fd5b50610283610865565b005b34801561029157600080fd5b5061029a6108ed565b6040516102a79190610e5d565b60405180910390f35b3480156102bc57600080fd5b506102c561097b565b6040516102d2919061104f565b60405180910390f35b3480156102e757600080fd5b506102f06109a4565b6040516102fd9190610e5d565b60405180910390f35b34801561031257600080fd5b5061031b610a32565b6040516103289190610da9565b60405180910390f35b610339610a38565b005b34801561034757600080fd5b50610362600480360381019061035d9190611096565b610b54565b005b6000818361037291906110c3565b905092915050565b6000600160003373ffffffffffffffffffffffffffffffffffffffff1673ffffffffffffffffffffffffffffffffffffffff16815260200190815260200160002080549050905090565b600280546103d190611148565b80601f01602080910402602001604051908101604052809291908181526020018280546103fd90611148565b801561044a5780601f1061041f5761010080835404028352916020019161044a565b820191906000526020600020905b81548152906001019060200180831161042d57829003601f168201915b505050505081565b606080600061045f61037a565b90508067ffffffffffffffff81111561047b5761047a61117a565b5b6040519080825280602002602001820160405280156104a95781602001602082028036833780820191505090505b5092508067ffffffffffffffff8111156104c6576104c561117a565b5b6040519080825280602002602001820160405280156104f45781602001602082028036833780820191505090505b50915060005b818110156105c1576000600160003373ffffffffffffffffffffffffffffffffffffffff1673ffffffffffffffffffffffffffffffffffffffff1681526020019081526020016000208281548110610555576105546111a9565b5b90600052602060002090600202019050806000015485838151811061057d5761057c6111a9565b5b60200260200101818152505080600101548483815181106105a1576105a06111a9565b5b6020026020010181815250505080806105b990610d51565b9150506104fa565b50509091565b6105cf610c4c565b73ffffffffffffffffffffffffffffffffffffffff166105ed61097b565b73ffffffffffffffffffffffffffffffffffffffff1614610643576040517f08c379a000000000000000000000000000000000000000000000000000000000815260040161063a90611224565b60405180910390fd5b80600660006101000a81548173ffffffffffffffffffffffffffffffffffffffff021916908373ffffffffffffffffffffffffffffffffffffffff16021790555050565b60085481565b600660009054906101000a900473ffffffffffffffffffffffffffffffffffffffff1681565b6106bb610c4c565b73ffffffffffffffffffffffffffffffffffffffff166106d961097b565b73ffffffffffffffffffffffffffffffffffffffff161461072f576040517f08c379a000000000000000000000000000000000000000000000000000000000815260040161072690611224565b60405180910390fd5b6000479050600660009054906101000a900473ffffffffffffffffffffffffffffffffffffffff1673ffffffffffffffffffffffffffffffffffffffff166108fc829081150290604051600060405180830381858888f1935050505015801561079c573d6000803e3d6000fd5b507f5b6b431d4476a211bb7d41c20d1aab9ae2321deee0d20be3d9fc9b1093fa6e3d816040516107cc9190610da9565b60405180910390a150565b600380546107e490611148565b80601f016020809104026020016040519081016040528092919081815260200182805461081090611148565b801561085d5780601f106108325761010080835404028352916020019161085d565b820191906000526020600020905b81548152906001019060200180831161084057829003601f168201915b505050505081565b61086d610c4c565b73ffffffffffffffffffffffffffffffffffffffff1661088b61097b565b73ffffffffffffffffffffffffffffffffffffffff16146108e1576040517f08c379a00000000000000000000000000000000000000000000000000000000081526004016108d890611224565b60405180910390fd5b6108eb6000610c54565b565b600580546108fa90611148565b80601f016020809104026020016040519081016040528092919081815260200182805461092690611148565b80156109735780601f1061094857610100808354040283529160200191610973565b820191906000526020600020905b81548152906001019060200180831161095657829003601f168201915b505050505081565b60008060009054906101000a900473ffffffffffffffffffffffffffffffffffffffff16905090565b600480546109b190611148565b80601f01602080910402602001604051908101604052809291908181526020018280546109dd90611148565b8015610a2a5780601f106109ff57610100808354040283529160200191610a2a565b820191906000526020600020905b815481529060010190602001808311610a0d57829003601f168201915b505050505081565b60075481565b60006040518060400160405280348152602001428152509050600160003373ffffffffffffffffffffffffffffffffffffffff1673ffffffffffffffffffffffffffffffffffffffff16815260200190815260200160002081908060018154018082558091505060019003906000526020600020906002020160009091909190915060008201518160000155602082015181600101555050610ae53460075461036490919063ffffffff16565b60078190555060086000815480929190610afe90610d51565b91905055503373ffffffffffffffffffffffffffffffffffffffff167f264f630d9efa0d07053a31163641d9fcc0adafc9d9e76f1c37c2ce3a558d2c5234604051610b499190610da9565b60405180910390a250565b610b5c610c4c565b73ffffffffffffffffffffffffffffffffffffffff16610b7a61097b565b73ffffffffffffffffffffffffffffffffffffffff1614610bd0576040517f08c379a0000000000000000000000000000000000000000000000000000000008152600401610bc790611224565b60405180910390fd5b600073ffffffffffffffffffffffffffffffffffffffff168173ffffffffffffffffffffffffffffffffffffffff161415610c40576040517f08c379a0000000000000000000000000000000000000000000000000000000008152600401610c37906112b6565b60405180910390fd5b610c4981610c54565b50565b600033905090565b60008060009054906101000a900473ffffffffffffffffffffffffffffffffffffffff169050816000806101000a81548173ffffffffffffffffffffffffffffffffffffffff021916908373ffffffffffffffffffffffffffffffffffffffff1602179055508173ffffffffffffffffffffffffffffffffffffffff168173ffffffffffffffffffffffffffffffffffffffff167f8be0079c531659141344cd1fd0a4f28419497f9722a3daafe3b4186f6b6457e060405160405180910390a35050565b7f4e487b7100000000000000000000000000000000000000000000000000000000600052601160045260246000fd5b6000819050919050565b6000610d5c82610d47565b91507fffffffffffffffffffffffffffffffffffffffffffffffffffffffffffffffff821415610d8f57610d8e610d18565b5b600182019050919050565b610da381610d47565b82525050565b6000602082019050610dbe6000830184610d9a565b92915050565b600081519050919050565b600082825260208201905092915050565b60005b83811015610dfe578082015181840152602081019050610de3565b83811115610e0d576000848401525b50505050565b6000601f19601f8301169050919050565b6000610e2f82610dc4565b610e398185610dcf565b9350610e49818560208601610de0565b610e5281610e13565b840191505092915050565b60006020820190508181036000830152610e778184610e24565b905092915050565b600081519050919050565b600082825260208201905092915050565b6000819050602082019050919050565b610eb481610d47565b82525050565b6000610ec68383610eab565b60208301905092915050565b6000602082019050919050565b6000610eea82610e7f565b610ef48185610e8a565b9350610eff83610e9b565b8060005b83811015610f30578151610f178882610eba565b9750610f2283610ed2565b925050600181019050610f03565b5085935050505092915050565b60006040820190508181036000830152610f578185610edf565b90508181036020830152610f6b8184610edf565b90509392505050565b600080fd5b600073ffffffffffffffffffffffffffffffffffffffff82169050919050565b6000610fa482610f79565b9050919050565b610fb481610f99565b8114610fbf57600080fd5b50565b600081359050610fd181610fab565b92915050565b600060208284031215610fed57610fec610f74565b5b6000610ffb84828501610fc2565b91505092915050565b61100d81610f99565b82525050565b60006020820190506110286000830184611004565b92915050565b600061103982610f79565b9050919050565b6110498161102e565b82525050565b60006020820190506110646000830184611040565b92915050565b6110738161102e565b811461107e57600080fd5b50565b6000813590506110908161106a565b92915050565b6000602082840312156110ac576110ab610f74565b5b60006110ba84828501611081565b91505092915050565b60006110ce82610d47565b91506110d983610d47565b9250827fffffffffffffffffffffffffffffffffffffffffffffffffffffffffffffffff0382111561110e5761110d610d18565b5b828201905092915050565b7f4e487b7100000000000000000000000000000000000000000000000000000000600052602260045260246000fd5b6000600282049050600182168061116057607f821691505b6020821081141561117457611173611119565b5b50919050565b7f4e487b7100000000000000000000000000000000000000000000000000000000600052604160045260246000fd5b7f4e487b7100000000000000000000000000000000000000000000000000000000600052603260045260246000fd5b7f4f776e61626c653a2063616c6c6572206973206e6f7420746865206f776e6572600082015250565b600061120e602083610dcf565b9150611219826111d8565b602082019050919050565b6000602082019050818103600083015261123d81611201565b9050919050565b7f4f776e61626c653a206e6577206f776e657220697320746865207a65726f206160008201527f6464726573730000000000000000000000000000000000000000000000000000602082015250565b60006112a0602683610dcf565b91506112ab82611244565b604082019050919050565b600060208201905081810360008301526112cf81611293565b905091905056fea2646970667358221220c319562178d15bb24bface73d4ccd129c3aa580a41fec31a283894ace003aa0a64736f6c63430008090033a2646970667358221220115f5cd76d76407c1b714250054c3847d55e2d1250baee9c0f9ea1902a9afe9b64736f6c63430008090033",
  "immutableReferences": {},
  "source": "// SPDX-License-Identifier: UNLICENSED\r\n\r\npragma solidity 0.8.9;\r\n\r\nimport \"./Fundraiser.sol\";\r\n\r\ncontract FundraiserFactory {\r\n    Fundraiser[] private _fundraisers;\r\n    uint256 constant maxLimit = 20;\r\n\r\n    event FundraiserCreated(\r\n        Fundraiser indexed fundraiser,\r\n        address indexed owner\r\n    );\r\n\r\n    function createFundraiser(\r\n        string memory name,\r\n        string memory url,\r\n        string memory imageURL,\r\n        string memory description,\r\n        address payable beneficiary\r\n    ) public {\r\n        Fundraiser fundraiser =\r\n            new Fundraiser(\r\n                name,\r\n                url,\r\n                imageURL,\r\n                description,\r\n                beneficiary,\r\n                payable(msg.sender)\r\n            );\r\n        _fundraisers.push(fundraiser);\r\n        emit FundraiserCreated(fundraiser, fundraiser.owner());\r\n    }\r\n\r\n    function fundraisersCount() public view returns (uint256) {\r\n        return _fundraisers.length;\r\n    }\r\n\r\n    function fundraisers(uint256 limit, uint256 offset)\r\n        public\r\n        view\r\n        returns (Fundraiser[] memory coll)\r\n    {\r\n        require(offset <= fundraisersCount(), \"offset out of bounds\");\r\n\r\n        uint256 size = fundraisersCount() - offset;\r\n        size = size < limit ? size : limit;\r\n        size = size < maxLimit ? size : maxLimit;\r\n        coll = new Fundraiser[](size);\r\n\r\n        for (uint256 i = 0; i < size; i++) {\r\n            coll[i] = _fundraisers[offset + i];\r\n        }\r\n\r\n        return coll;\r\n    }\r\n}\r\n",
  "sourcePath": "C:\\Users\\Admin\\Desktop\\All Folders\\Workspaces\\DAPP\\fundraiser\\contracts\\FundraiserFactory.sol",
  "compiler": {
    "name": "solc",
    "version": "0.8.9+commit.e5eed63a.Emscripten.clang"
  },
  "schemaVersion": "3.4.3",
  "updatedAt": "2021-10-26T12:07:10.301Z",
  "networkType": "ethereum",
  "devdoc": {
    "kind": "dev",
    "methods": {},
    "version": 1
  },
  "userdoc": {
    "kind": "user",
    "methods": {},
    "version": 1
  }
}