{
  "contractName": "Fundraiser",
  "abi": [
    {
      "inputs": [
        {
          "internalType": "string",
          "name": "_name",
          "type": "string"
        },
        {
          "internalType": "string",
          "name": "_imageURL",
          "type": "string"
        },
        {
          "internalType": "string",
          "name": "_description",
          "type": "string"
        },
        {
          "internalType": "uint256",
          "name": "_targetToAchieve",
          "type": "uint256"
        },
        {
          "internalType": "address",
          "name": "_owner",
          "type": "address"
        },
        {
          "internalType": "address payable",
          "name": "_beneficiary",
          "type": "address"
        }
      ],
      "stateMutability": "nonpayable",
      "type": "constructor"
    },
    {
      "anonymous": false,
      "inputs": [
        {
          "indexed": true,
          "internalType": "address",
          "name": "donor",
          "type": "address"
        },
        {
          "indexed": false,
          "internalType": "uint256",
          "name": "value",
          "type": "uint256"
        }
      ],
      "name": "DonationReceived",
      "type": "event"
    },
    {
      "anonymous": false,
      "inputs": [
        {
          "indexed": true,
          "internalType": "address",
          "name": "previousOwner",
          "type": "address"
        },
        {
          "indexed": true,
          "internalType": "address",
          "name": "newOwner",
          "type": "address"
        }
      ],
      "name": "OwnershipTransferred",
      "type": "event"
    },
    {
      "anonymous": false,
      "inputs": [
        {
          "indexed": false,
          "internalType": "uint256",
          "name": "amount",
          "type": "uint256"
        }
      ],
      "name": "Withdraw",
      "type": "event"
    },
    {
      "inputs": [
        {
          "internalType": "address",
          "name": "",
          "type": "address"
        }
      ],
      "name": "approvers",
      "outputs": [
        {
          "internalType": "bool",
          "name": "",
          "type": "bool"
        }
      ],
      "stateMutability": "view",
      "type": "function"
    },
    {
      "inputs": [],
      "name": "approversCount",
      "outputs": [
        {
          "internalType": "uint256",
          "name": "",
          "type": "uint256"
        }
      ],
      "stateMutability": "view",
      "type": "function"
    },
    {
      "inputs": [],
      "name": "beneficiary",
      "outputs": [
        {
          "internalType": "address payable",
          "name": "",
          "type": "address"
        }
      ],
      "stateMutability": "view",
      "type": "function"
    },
    {
      "inputs": [
        {
          "internalType": "uint256",
          "name": "",
          "type": "uint256"
        }
      ],
      "name": "contributers",
      "outputs": [
        {
          "internalType": "address",
          "name": "",
          "type": "address"
        }
      ],
      "stateMutability": "view",
      "type": "function"
    },
    {
      "inputs": [],
      "name": "description",
      "outputs": [
        {
          "internalType": "string",
          "name": "",
          "type": "string"
        }
      ],
      "stateMutability": "view",
      "type": "function"
    },
    {
      "inputs": [],
      "name": "donationsCount",
      "outputs": [
        {
          "internalType": "uint256",
          "name": "",
          "type": "uint256"
        }
      ],
      "stateMutability": "view",
      "type": "function"
    },
    {
      "inputs": [],
      "name": "imageURL",
      "outputs": [
        {
          "internalType": "string",
          "name": "",
          "type": "string"
        }
      ],
      "stateMutability": "view",
      "type": "function"
    },
    {
      "inputs": [],
      "name": "minimumContribution",
      "outputs": [
        {
          "internalType": "uint256",
          "name": "",
          "type": "uint256"
        }
      ],
      "stateMutability": "view",
      "type": "function"
    },
    {
      "inputs": [],
      "name": "name",
      "outputs": [
        {
          "internalType": "string",
          "name": "",
          "type": "string"
        }
      ],
      "stateMutability": "view",
      "type": "function"
    },
    {
      "inputs": [],
      "name": "owner",
      "outputs": [
        {
          "internalType": "address",
          "name": "",
          "type": "address"
        }
      ],
      "stateMutability": "view",
      "type": "function"
    },
    {
      "inputs": [],
      "name": "renounceOwnership",
      "outputs": [],
      "stateMutability": "nonpayable",
      "type": "function"
    },
    {
      "inputs": [
        {
          "internalType": "uint256",
          "name": "",
          "type": "uint256"
        }
      ],
      "name": "requests",
      "outputs": [
        {
          "internalType": "string",
          "name": "description",
          "type": "string"
        },
        {
          "internalType": "uint256",
          "name": "value",
          "type": "uint256"
        },
        {
          "internalType": "address payable",
          "name": "recipient",
          "type": "address"
        },
        {
          "internalType": "bool",
          "name": "complete",
          "type": "bool"
        },
        {
          "internalType": "uint256",
          "name": "approvalCount",
          "type": "uint256"
        },
        {
          "internalType": "uint256",
          "name": "rejectionCount",
          "type": "uint256"
        }
      ],
      "stateMutability": "view",
      "type": "function"
    },
    {
      "inputs": [],
      "name": "targetToAchieve",
      "outputs": [
        {
          "internalType": "uint256",
          "name": "",
          "type": "uint256"
        }
      ],
      "stateMutability": "view",
      "type": "function"
    },
    {
      "inputs": [],
      "name": "totalDonations",
      "outputs": [
        {
          "internalType": "uint256",
          "name": "",
          "type": "uint256"
        }
      ],
      "stateMutability": "view",
      "type": "function"
    },
    {
      "inputs": [
        {
          "internalType": "address",
          "name": "newOwner",
          "type": "address"
        }
      ],
      "name": "transferOwnership",
      "outputs": [],
      "stateMutability": "nonpayable",
      "type": "function"
    },
    {
      "stateMutability": "payable",
      "type": "receive"
    },
    {
      "inputs": [
        {
          "internalType": "address payable",
          "name": "_beneficiary",
          "type": "address"
        }
      ],
      "name": "setBeneficiary",
      "outputs": [],
      "stateMutability": "nonpayable",
      "type": "function"
    },
    {
      "inputs": [],
      "name": "myDonationsCount",
      "outputs": [
        {
          "internalType": "uint256",
          "name": "",
          "type": "uint256"
        }
      ],
      "stateMutability": "view",
      "type": "function"
    },
    {
      "inputs": [],
      "name": "donate",
      "outputs": [],
      "stateMutability": "payable",
      "type": "function"
    },
    {
      "inputs": [],
      "name": "myDonations",
      "outputs": [
        {
          "internalType": "uint256[]",
          "name": "values",
          "type": "uint256[]"
        },
        {
          "internalType": "uint256[]",
          "name": "dates",
          "type": "uint256[]"
        }
      ],
      "stateMutability": "view",
      "type": "function"
    },
    {
      "inputs": [],
      "name": "withdraw",
      "outputs": [],
      "stateMutability": "nonpayable",
      "type": "function"
    },
    {
      "inputs": [
        {
          "internalType": "string",
          "name": "_description",
          "type": "string"
        },
        {
          "internalType": "uint256",
          "name": "_value",
          "type": "uint256"
        },
        {
          "internalType": "address payable",
          "name": "_recipient",
          "type": "address"
        }
      ],
      "name": "createRequest",
      "outputs": [],
      "stateMutability": "nonpayable",
      "type": "function"
    },
    {
      "inputs": [
        {
          "internalType": "uint256",
          "name": "index",
          "type": "uint256"
        }
      ],
      "name": "approveRequest",
      "outputs": [],
      "stateMutability": "nonpayable",
      "type": "function"
    },
    {
      "inputs": [
        {
          "internalType": "uint256",
          "name": "index",
          "type": "uint256"
        }
      ],
      "name": "rejectRequest",
      "outputs": [],
      "stateMutability": "nonpayable",
      "type": "function"
    },
    {
      "inputs": [
        {
          "internalType": "uint256",
          "name": "index",
          "type": "uint256"
        }
      ],
      "name": "finalizeRequest",
      "outputs": [],
      "stateMutability": "nonpayable",
      "type": "function"
    },
    {
      "inputs": [],
      "name": "getRequestsCount",
      "outputs": [
        {
          "internalType": "uint256",
          "name": "",
          "type": "uint256"
        }
      ],
      "stateMutability": "view",
      "type": "function"
    },
    {
      "inputs": [],
      "name": "isDonor",
      "outputs": [
        {
          "internalType": "bool",
          "name": "",
          "type": "bool"
        }
      ],
      "stateMutability": "view",
      "type": "function"
    }
  ],
  "bytecode": "0x60806040523480156200001157600080fd5b50604051620029d9380380620029d9833981810160405281019062000037919062000644565b620000576200004b6200010760201b60201c565b6200010f60201b60201c565b85600390805190602001906200006f92919062000312565b5084600490805190602001906200008892919062000312565b508360059080519060200190620000a192919062000312565b5080600660006101000a81548173ffffffffffffffffffffffffffffffffffffffff021916908373ffffffffffffffffffffffffffffffffffffffff16021790555082600a81905550620000fb82620001d360201b60201c565b505050505050620008bd565b600033905090565b60008060009054906101000a900473ffffffffffffffffffffffffffffffffffffffff169050816000806101000a81548173ffffffffffffffffffffffffffffffffffffffff021916908373ffffffffffffffffffffffffffffffffffffffff1602179055508173ffffffffffffffffffffffffffffffffffffffff168173ffffffffffffffffffffffffffffffffffffffff167f8be0079c531659141344cd1fd0a4f28419497f9722a3daafe3b4186f6b6457e060405160405180910390a35050565b620001e36200010760201b60201c565b73ffffffffffffffffffffffffffffffffffffffff1662000209620002e960201b60201c565b73ffffffffffffffffffffffffffffffffffffffff161462000262576040517f08c379a000000000000000000000000000000000000000000000000000000000815260040162000259906200079e565b60405180910390fd5b600073ffffffffffffffffffffffffffffffffffffffff168173ffffffffffffffffffffffffffffffffffffffff161415620002d5576040517f08c379a0000000000000000000000000000000000000000000000000000000008152600401620002cc9062000836565b60405180910390fd5b620002e6816200010f60201b60201c565b50565b60008060009054906101000a900473ffffffffffffffffffffffffffffffffffffffff16905090565b828054620003209062000887565b90600052602060002090601f01602090048101928262000344576000855562000390565b82601f106200035f57805160ff191683800117855562000390565b8280016001018555821562000390579182015b828111156200038f57825182559160200191906001019062000372565b5b5090506200039f9190620003a3565b5090565b5b80821115620003be576000816000905550600101620003a4565b5090565b6000604051905090565b600080fd5b600080fd5b600080fd5b600080fd5b6000601f19601f8301169050919050565b7f4e487b7100000000000000000000000000000000000000000000000000000000600052604160045260246000fd5b6200042b82620003e0565b810181811067ffffffffffffffff821117156200044d576200044c620003f1565b5b80604052505050565b600062000462620003c2565b905062000470828262000420565b919050565b600067ffffffffffffffff821115620004935762000492620003f1565b5b6200049e82620003e0565b9050602081019050919050565b60005b83811015620004cb578082015181840152602081019050620004ae565b83811115620004db576000848401525b50505050565b6000620004f8620004f28462000475565b62000456565b905082815260208101848484011115620005175762000516620003db565b5b62000524848285620004ab565b509392505050565b600082601f830112620005445762000543620003d6565b5b815162000556848260208601620004e1565b91505092915050565b6000819050919050565b62000574816200055f565b81146200058057600080fd5b50565b600081519050620005948162000569565b92915050565b600073ffffffffffffffffffffffffffffffffffffffff82169050919050565b6000620005c7826200059a565b9050919050565b620005d981620005ba565b8114620005e557600080fd5b50565b600081519050620005f981620005ce565b92915050565b60006200060c826200059a565b9050919050565b6200061e81620005ff565b81146200062a57600080fd5b50565b6000815190506200063e8162000613565b92915050565b60008060008060008060c08789031215620006645762000663620003cc565b5b600087015167ffffffffffffffff811115620006855762000684620003d1565b5b6200069389828a016200052c565b965050602087015167ffffffffffffffff811115620006b757620006b6620003d1565b5b620006c589828a016200052c565b955050604087015167ffffffffffffffff811115620006e957620006e8620003d1565b5b620006f789828a016200052c565b94505060606200070a89828a0162000583565b93505060806200071d89828a01620005e8565b92505060a06200073089828a016200062d565b9150509295509295509295565b600082825260208201905092915050565b7f4f776e61626c653a2063616c6c6572206973206e6f7420746865206f776e6572600082015250565b6000620007866020836200073d565b915062000793826200074e565b602082019050919050565b60006020820190508181036000830152620007b98162000777565b9050919050565b7f4f776e61626c653a206e6577206f776e657220697320746865207a65726f206160008201527f6464726573730000000000000000000000000000000000000000000000000000602082015250565b60006200081e6026836200073d565b91506200082b82620007c0565b604082019050919050565b6000602082019050818103600083015262000851816200080f565b9050919050565b7f4e487b7100000000000000000000000000000000000000000000000000000000600052602260045260246000fd5b60006002820490506001821680620008a057607f821691505b60208210811415620008b757620008b662000858565b5b50919050565b61210c80620008cd6000396000f3fe6080604052600436106101855760003560e01c8063715018a6116100d1578063937e09b11161008a578063d7d1bbdb11610064578063d7d1bbdb14610582578063de2ed893146105ab578063ed88c68e146105d6578063f2fde38b146105e0576101bf565b8063937e09b114610501578063b2a87fc31461052c578063b90497e014610557576101bf565b8063715018a6146103fe5780637284e4161461041557806381d12c581461044057806382fde093146104825780638a9cfd55146104ad5780638da5cb5b146104d6576101bf565b80631f5225951161013e5780632d7788db116101185780632d7788db146103685780633410452a1461039157806338af3eed146103bc5780633ccfd60b146103e7576101bf565b80631f522595146102d55780631fbed5791461030057806322c8077f1461033d576101bf565b80630180b97c146101c457806303441006146101ef57806306fdde03146102185780630a144391146102435780631a57f7b4146102805780631c31f710146102ac576101bf565b366101bf5761019f3460075461060990919063ffffffff16565b600781905550600860008154809291906101b890611876565b9190505550005b600080fd5b3480156101d057600080fd5b506101d961061f565b6040516101e691906118ce565b60405180910390f35b3480156101fb57600080fd5b5061021660048036038101906102119190611929565b610669565b005b34801561022457600080fd5b5061022d610853565b60405161023a91906119ef565b60405180910390f35b34801561024f57600080fd5b5061026a60048036038101906102659190611a6f565b6108e1565b6040516102779190611ab7565b60405180910390f35b34801561028c57600080fd5b50610295610901565b6040516102a3929190611b90565b60405180910390f35b3480156102b857600080fd5b506102d360048036038101906102ce9190611c05565b610a76565b005b3480156102e157600080fd5b506102ea610b36565b6040516102f791906118ce565b60405180910390f35b34801561030c57600080fd5b5061032760048036038101906103229190611929565b610b3c565b6040516103349190611c41565b60405180910390f35b34801561034957600080fd5b50610352610b7b565b60405161035f9190611ab7565b60405180910390f35b34801561037457600080fd5b5061038f600480360381019061038a9190611929565b610bcf565b005b34801561039d57600080fd5b506103a6610d58565b6040516103b391906118ce565b60405180910390f35b3480156103c857600080fd5b506103d1610d65565b6040516103de9190611c6b565b60405180910390f35b3480156103f357600080fd5b506103fc610d8b565b005b34801561040a57600080fd5b50610413610eb7565b005b34801561042157600080fd5b5061042a610f3f565b60405161043791906119ef565b60405180910390f35b34801561044c57600080fd5b5061046760048036038101906104629190611929565b610fcd565b60405161047996959493929190611c86565b60405180910390f35b34801561048e57600080fd5b506104976110ce565b6040516104a491906118ce565b60405180910390f35b3480156104b957600080fd5b506104d460048036038101906104cf9190611e23565b6110d4565b005b3480156104e257600080fd5b506104eb611210565b6040516104f89190611c41565b60405180910390f35b34801561050d57600080fd5b50610516611239565b60405161052391906118ce565b60405180910390f35b34801561053857600080fd5b5061054161123f565b60405161054e91906118ce565b60405180910390f35b34801561056357600080fd5b5061056c611245565b60405161057991906119ef565b60405180910390f35b34801561058e57600080fd5b506105a960048036038101906105a49190611929565b6112d3565b005b3480156105b757600080fd5b506105c061145c565b6040516105cd91906118ce565b60405180910390f35b6105de611462565b005b3480156105ec57600080fd5b5061060760048036038101906106029190611a6f565b6115d6565b005b600081836106179190611e92565b905092915050565b6000600160003373ffffffffffffffffffffffffffffffffffffffff1673ffffffffffffffffffffffffffffffffffffffff16815260200190815260200160002080549050905090565b6106716116ce565b73ffffffffffffffffffffffffffffffffffffffff1661068f611210565b73ffffffffffffffffffffffffffffffffffffffff16146106e5576040517f08c379a00000000000000000000000000000000000000000000000000000000081526004016106dc90611f34565b60405180910390fd5b6002600d546106f49190611f83565b6002828154811061070857610707611fb4565b5b9060005260206000209060060201600301541161072457600080fd5b6002818154811061073857610737611fb4565b5b906000526020600020906006020160020160149054906101000a900460ff161561076157600080fd5b6002818154811061077557610774611fb4565b5b906000526020600020906006020160020160009054906101000a900473ffffffffffffffffffffffffffffffffffffffff1673ffffffffffffffffffffffffffffffffffffffff166108fc600283815481106107d4576107d3611fb4565b5b9060005260206000209060060201600101549081150290604051600060405180830381858888f19350505050158015610811573d6000803e3d6000fd5b5060016002828154811061082857610827611fb4565b5b906000526020600020906006020160020160146101000a81548160ff02191690831515021790555050565b6003805461086090612012565b80601f016020809104026020016040519081016040528092919081815260200182805461088c90612012565b80156108d95780601f106108ae576101008083540402835291602001916108d9565b820191906000526020600020905b8154815290600101906020018083116108bc57829003601f168201915b505050505081565b600c6020528060005260406000206000915054906101000a900460ff1681565b606080600061090e61061f565b90508067ffffffffffffffff81111561092a57610929611cf8565b5b6040519080825280602002602001820160405280156109585781602001602082028036833780820191505090505b5092508067ffffffffffffffff81111561097557610974611cf8565b5b6040519080825280602002602001820160405280156109a35781602001602082028036833780820191505090505b50915060005b81811015610a70576000600160003373ffffffffffffffffffffffffffffffffffffffff1673ffffffffffffffffffffffffffffffffffffffff1681526020019081526020016000208281548110610a0457610a03611fb4565b5b906000526020600020906002020190508060000154858381518110610a2c57610a2b611fb4565b5b6020026020010181815250508060010154848381518110610a5057610a4f611fb4565b5b602002602001018181525050508080610a6890611876565b9150506109a9565b50509091565b610a7e6116ce565b73ffffffffffffffffffffffffffffffffffffffff16610a9c611210565b73ffffffffffffffffffffffffffffffffffffffff1614610af2576040517f08c379a0000000000000000000000000000000000000000000000000000000008152600401610ae990611f34565b60405180910390fd5b80600660006101000a81548173ffffffffffffffffffffffffffffffffffffffff021916908373ffffffffffffffffffffffffffffffffffffffff16021790555050565b60085481565b600b8181548110610b4c57600080fd5b906000526020600020016000915054906101000a900473ffffffffffffffffffffffffffffffffffffffff1681565b6000600c60003373ffffffffffffffffffffffffffffffffffffffff1673ffffffffffffffffffffffffffffffffffffffff16815260200190815260200160002060009054906101000a900460ff16905090565b600c60003373ffffffffffffffffffffffffffffffffffffffff1673ffffffffffffffffffffffffffffffffffffffff16815260200190815260200160002060009054906101000a900460ff16610c2557600080fd5b60028181548110610c3957610c38611fb4565b5b906000526020600020906006020160050160003373ffffffffffffffffffffffffffffffffffffffff1673ffffffffffffffffffffffffffffffffffffffff16815260200190815260200160002060009054906101000a900460ff1615610c9f57600080fd5b600060028281548110610cb557610cb4611fb4565b5b906000526020600020906006020160050160003373ffffffffffffffffffffffffffffffffffffffff1673ffffffffffffffffffffffffffffffffffffffff16815260200190815260200160002060006101000a81548160ff02191690831515021790555060028181548110610d2e57610d2d611fb4565b5b90600052602060002090600602016004016000815480929190610d5090611876565b919050555050565b6000600280549050905090565b600660009054906101000a900473ffffffffffffffffffffffffffffffffffffffff1681565b610d936116ce565b73ffffffffffffffffffffffffffffffffffffffff16610db1611210565b73ffffffffffffffffffffffffffffffffffffffff1614610e07576040517f08c379a0000000000000000000000000000000000000000000000000000000008152600401610dfe90611f34565b60405180910390fd5b6000479050600660009054906101000a900473ffffffffffffffffffffffffffffffffffffffff1673ffffffffffffffffffffffffffffffffffffffff166108fc829081150290604051600060405180830381858888f19350505050158015610e74573d6000803e3d6000fd5b5060006007819055507f5b6b431d4476a211bb7d41c20d1aab9ae2321deee0d20be3d9fc9b1093fa6e3d81604051610eac91906118ce565b60405180910390a150565b610ebf6116ce565b73ffffffffffffffffffffffffffffffffffffffff16610edd611210565b73ffffffffffffffffffffffffffffffffffffffff1614610f33576040517f08c379a0000000000000000000000000000000000000000000000000000000008152600401610f2a90611f34565b60405180910390fd5b610f3d60006116d6565b565b60058054610f4c90612012565b80601f0160208091040260200160405190810160405280929190818152602001828054610f7890612012565b8015610fc55780601f10610f9a57610100808354040283529160200191610fc5565b820191906000526020600020905b815481529060010190602001808311610fa857829003601f168201915b505050505081565b60028181548110610fdd57600080fd5b906000526020600020906006020160009150905080600001805461100090612012565b80601f016020809104026020016040519081016040528092919081815260200182805461102c90612012565b80156110795780601f1061104e57610100808354040283529160200191611079565b820191906000526020600020905b81548152906001019060200180831161105c57829003601f168201915b5050505050908060010154908060020160009054906101000a900473ffffffffffffffffffffffffffffffffffffffff16908060020160149054906101000a900460ff16908060030154908060040154905086565b600d5481565b6110dc6116ce565b73ffffffffffffffffffffffffffffffffffffffff166110fa611210565b73ffffffffffffffffffffffffffffffffffffffff1614611150576040517f08c379a000000000000000000000000000000000000000000000000000000000815260040161114790611f34565b60405180910390fd5b6000600260018160018154018082558091505003906000526020600020906006020190508381600001908051906020019061118c92919061179a565b50828160010181905550818160020160006101000a81548173ffffffffffffffffffffffffffffffffffffffff021916908373ffffffffffffffffffffffffffffffffffffffff16021790555060008160020160146101000a81548160ff021916908315150217905550600081600301819055506000816004018190555050505050565b60008060009054906101000a900473ffffffffffffffffffffffffffffffffffffffff16905090565b60095481565b600a5481565b6004805461125290612012565b80601f016020809104026020016040519081016040528092919081815260200182805461127e90612012565b80156112cb5780601f106112a0576101008083540402835291602001916112cb565b820191906000526020600020905b8154815290600101906020018083116112ae57829003601f168201915b505050505081565b600c60003373ffffffffffffffffffffffffffffffffffffffff1673ffffffffffffffffffffffffffffffffffffffff16815260200190815260200160002060009054906101000a900460ff1661132957600080fd5b6002818154811061133d5761133c611fb4565b5b906000526020600020906006020160050160003373ffffffffffffffffffffffffffffffffffffffff1673ffffffffffffffffffffffffffffffffffffffff16815260200190815260200160002060009054906101000a900460ff16156113a357600080fd5b6001600282815481106113b9576113b8611fb4565b5b906000526020600020906006020160050160003373ffffffffffffffffffffffffffffffffffffffff1673ffffffffffffffffffffffffffffffffffffffff16815260200190815260200160002060006101000a81548160ff0219169083151502179055506002818154811061143257611431611fb4565b5b9060005260206000209060060201600301600081548092919061145490611876565b919050555050565b60075481565b60006040518060400160405280348152602001428152509050600160003373ffffffffffffffffffffffffffffffffffffffff1673ffffffffffffffffffffffffffffffffffffffff1681526020019081526020016000208190806001815401808255809150506001900390600052602060002090600202016000909190919091506000820151816000015560208201518160010155505061150f3460075461060990919063ffffffff16565b6007819055506001600c60003373ffffffffffffffffffffffffffffffffffffffff1673ffffffffffffffffffffffffffffffffffffffff16815260200190815260200160002060006101000a81548160ff0219169083151502179055506008600081548092919061158090611876565b91905055503373ffffffffffffffffffffffffffffffffffffffff167f264f630d9efa0d07053a31163641d9fcc0adafc9d9e76f1c37c2ce3a558d2c52346040516115cb91906118ce565b60405180910390a250565b6115de6116ce565b73ffffffffffffffffffffffffffffffffffffffff166115fc611210565b73ffffffffffffffffffffffffffffffffffffffff1614611652576040517f08c379a000000000000000000000000000000000000000000000000000000000815260040161164990611f34565b60405180910390fd5b600073ffffffffffffffffffffffffffffffffffffffff168173ffffffffffffffffffffffffffffffffffffffff1614156116c2576040517f08c379a00000000000000000000000000000000000000000000000000000000081526004016116b9906120b6565b60405180910390fd5b6116cb816116d6565b50565b600033905090565b60008060009054906101000a900473ffffffffffffffffffffffffffffffffffffffff169050816000806101000a81548173ffffffffffffffffffffffffffffffffffffffff021916908373ffffffffffffffffffffffffffffffffffffffff1602179055508173ffffffffffffffffffffffffffffffffffffffff168173ffffffffffffffffffffffffffffffffffffffff167f8be0079c531659141344cd1fd0a4f28419497f9722a3daafe3b4186f6b6457e060405160405180910390a35050565b8280546117a690612012565b90600052602060002090601f0160209004810192826117c8576000855561180f565b82601f106117e157805160ff191683800117855561180f565b8280016001018555821561180f579182015b8281111561180e5782518255916020019190600101906117f3565b5b50905061181c9190611820565b5090565b5b80821115611839576000816000905550600101611821565b5090565b7f4e487b7100000000000000000000000000000000000000000000000000000000600052601160045260246000fd5b6000819050919050565b60006118818261186c565b91507fffffffffffffffffffffffffffffffffffffffffffffffffffffffffffffffff8214156118b4576118b361183d565b5b600182019050919050565b6118c88161186c565b82525050565b60006020820190506118e360008301846118bf565b92915050565b6000604051905090565b600080fd5b600080fd5b6119068161186c565b811461191157600080fd5b50565b600081359050611923816118fd565b92915050565b60006020828403121561193f5761193e6118f3565b5b600061194d84828501611914565b91505092915050565b600081519050919050565b600082825260208201905092915050565b60005b83811015611990578082015181840152602081019050611975565b8381111561199f576000848401525b50505050565b6000601f19601f8301169050919050565b60006119c182611956565b6119cb8185611961565b93506119db818560208601611972565b6119e4816119a5565b840191505092915050565b60006020820190508181036000830152611a0981846119b6565b905092915050565b600073ffffffffffffffffffffffffffffffffffffffff82169050919050565b6000611a3c82611a11565b9050919050565b611a4c81611a31565b8114611a5757600080fd5b50565b600081359050611a6981611a43565b92915050565b600060208284031215611a8557611a846118f3565b5b6000611a9384828501611a5a565b91505092915050565b60008115159050919050565b611ab181611a9c565b82525050565b6000602082019050611acc6000830184611aa8565b92915050565b600081519050919050565b600082825260208201905092915050565b6000819050602082019050919050565b611b078161186c565b82525050565b6000611b198383611afe565b60208301905092915050565b6000602082019050919050565b6000611b3d82611ad2565b611b478185611add565b9350611b5283611aee565b8060005b83811015611b83578151611b6a8882611b0d565b9750611b7583611b25565b925050600181019050611b56565b5085935050505092915050565b60006040820190508181036000830152611baa8185611b32565b90508181036020830152611bbe8184611b32565b90509392505050565b6000611bd282611a11565b9050919050565b611be281611bc7565b8114611bed57600080fd5b50565b600081359050611bff81611bd9565b92915050565b600060208284031215611c1b57611c1a6118f3565b5b6000611c2984828501611bf0565b91505092915050565b611c3b81611a31565b82525050565b6000602082019050611c566000830184611c32565b92915050565b611c6581611bc7565b82525050565b6000602082019050611c806000830184611c5c565b92915050565b600060c0820190508181036000830152611ca081896119b6565b9050611caf60208301886118bf565b611cbc6040830187611c5c565b611cc96060830186611aa8565b611cd660808301856118bf565b611ce360a08301846118bf565b979650505050505050565b600080fd5b600080fd5b7f4e487b7100000000000000000000000000000000000000000000000000000000600052604160045260246000fd5b611d30826119a5565b810181811067ffffffffffffffff82111715611d4f57611d4e611cf8565b5b80604052505050565b6000611d626118e9565b9050611d6e8282611d27565b919050565b600067ffffffffffffffff821115611d8e57611d8d611cf8565b5b611d97826119a5565b9050602081019050919050565b82818337600083830152505050565b6000611dc6611dc184611d73565b611d58565b905082815260208101848484011115611de257611de1611cf3565b5b611ded848285611da4565b509392505050565b600082601f830112611e0a57611e09611cee565b5b8135611e1a848260208601611db3565b91505092915050565b600080600060608486031215611e3c57611e3b6118f3565b5b600084013567ffffffffffffffff811115611e5a57611e596118f8565b5b611e6686828701611df5565b9350506020611e7786828701611914565b9250506040611e8886828701611bf0565b9150509250925092565b6000611e9d8261186c565b9150611ea88361186c565b9250827fffffffffffffffffffffffffffffffffffffffffffffffffffffffffffffffff03821115611edd57611edc61183d565b5b828201905092915050565b7f4f776e61626c653a2063616c6c6572206973206e6f7420746865206f776e6572600082015250565b6000611f1e602083611961565b9150611f2982611ee8565b602082019050919050565b60006020820190508181036000830152611f4d81611f11565b9050919050565b7f4e487b7100000000000000000000000000000000000000000000000000000000600052601260045260246000fd5b6000611f8e8261186c565b9150611f998361186c565b925082611fa957611fa8611f54565b5b828204905092915050565b7f4e487b7100000000000000000000000000000000000000000000000000000000600052603260045260246000fd5b7f4e487b7100000000000000000000000000000000000000000000000000000000600052602260045260246000fd5b6000600282049050600182168061202a57607f821691505b6020821081141561203e5761203d611fe3565b5b50919050565b7f4f776e61626c653a206e6577206f776e657220697320746865207a65726f206160008201527f6464726573730000000000000000000000000000000000000000000000000000602082015250565b60006120a0602683611961565b91506120ab82612044565b604082019050919050565b600060208201905081810360008301526120cf81612093565b905091905056fea264697066735822122024cb34fd927bc7e3d46aff478d8318cf9f23d1dddc32f64d07d059a360754ddd64736f6c63430008090033",
  "immutableReferences": {},
  "source": "// SPDX-License-Identifier: UNLICENSED\r\n\r\npragma solidity 0.8.9;\r\n\r\nimport \"@openzeppelin/contracts/access/Ownable.sol\";\r\nimport \"@openzeppelin/contracts/utils/math/SafeMath.sol\";\r\n\r\ncontract Fundraiser is Ownable {\r\n    using SafeMath for uint256;\r\n    struct Donation {\r\n        uint256 value;\r\n        uint256 date;\r\n    }\r\n\r\n    struct Request {\r\n        string description;\r\n        uint256 value;\r\n        address payable recipient;\r\n        bool complete;\r\n        uint256 approvalCount;\r\n        uint256 rejectionCount;\r\n        mapping(address => bool) approvals;\r\n    }\r\n\r\n    mapping(address => Donation[]) private _donations;\r\n\r\n    Request[] public requests;\r\n    string public name;\r\n    string public imageURL;\r\n    string public description;\r\n    address payable public beneficiary;\r\n    uint256 public totalDonations;\r\n    uint256 public donationsCount;\r\n    uint256 public minimumContribution;\r\n    uint256 public targetToAchieve;\r\n    address[] public contributers;\r\n    mapping(address => bool) public approvers;\r\n    uint256 public approversCount;\r\n\r\n    event DonationReceived(address indexed donor, uint256 value);\r\n    event Withdraw(uint256 amount);\r\n\r\n    constructor(\r\n        string memory _name,\r\n        string memory _imageURL,\r\n        string memory _description,\r\n        // uint256 _minimumContribution,\r\n        uint256 _targetToAchieve,\r\n        address _owner,\r\n        address payable _beneficiary\r\n    ) public {\r\n        name = _name;\r\n        imageURL = _imageURL;\r\n        description = _description;\r\n        beneficiary = _beneficiary;\r\n        // minimumContribution = _minimumContribution;\r\n        targetToAchieve = _targetToAchieve;\r\n        transferOwnership(_owner);\r\n    }\r\n\r\n    function setBeneficiary(address payable _beneficiary) public onlyOwner {\r\n        beneficiary = _beneficiary;\r\n    }\r\n\r\n    function myDonationsCount() public view returns (uint256) {\r\n        return _donations[msg.sender].length;\r\n    }\r\n\r\n    function donate() external payable {\r\n        // require(msg.value > minimumContribution);\r\n\r\n        Donation memory donation = Donation({\r\n            value: msg.value,\r\n            date: block.timestamp\r\n        });\r\n        _donations[msg.sender].push(donation);\r\n        totalDonations = totalDonations.add(msg.value);\r\n        approvers[msg.sender] = true;\r\n        donationsCount++;\r\n\r\n        emit DonationReceived(msg.sender, msg.value);\r\n    }\r\n\r\n    function myDonations()\r\n        public\r\n        view\r\n        returns (uint256[] memory values, uint256[] memory dates)\r\n    {\r\n        uint256 count = myDonationsCount();\r\n        values = new uint256[](count);\r\n        dates = new uint256[](count);\r\n\r\n        for (uint256 i = 0; i < count; i++) {\r\n            Donation storage donation = _donations[msg.sender][i];\r\n            values[i] = donation.value;\r\n            dates[i] = donation.date;\r\n        }\r\n\r\n        return (values, dates);\r\n    }\r\n\r\n    function withdraw() public onlyOwner {\r\n        uint256 balance = address(this).balance;\r\n        beneficiary.transfer(balance);\r\n        totalDonations = 0;\r\n        emit Withdraw(balance);\r\n    }\r\n\r\n    receive() external payable {\r\n        totalDonations = totalDonations.add(msg.value);\r\n        donationsCount++;\r\n    }\r\n\r\n    function createRequest(\r\n        string memory _description,\r\n        uint256 _value,\r\n        address payable _recipient\r\n    ) public onlyOwner {\r\n        Request storage newRequest = requests.push();\r\n        newRequest.description = _description;\r\n        newRequest.value = _value;\r\n        newRequest.recipient = _recipient;\r\n        newRequest.complete = false;\r\n        newRequest.approvalCount = 0;\r\n        newRequest.rejectionCount = 0;\r\n    }\r\n\r\n    function approveRequest(uint256 index) public {\r\n        require(approvers[msg.sender]);\r\n        require(!requests[index].approvals[msg.sender]);\r\n\r\n        requests[index].approvals[msg.sender] = true;\r\n        requests[index].approvalCount++;\r\n    }\r\n\r\n    function rejectRequest(uint256 index) public {\r\n        require(approvers[msg.sender]);\r\n        require(!requests[index].approvals[msg.sender]);\r\n\r\n        requests[index].approvals[msg.sender] = false;\r\n        requests[index].rejectionCount++;\r\n    }\r\n\r\n    function finalizeRequest(uint256 index) public onlyOwner {\r\n        require(requests[index].approvalCount > (approversCount / 2));\r\n        require(!requests[index].complete);\r\n\r\n        requests[index].recipient.transfer(requests[index].value);\r\n        requests[index].complete = true;\r\n    }\r\n\r\n    function getRequestsCount() public view returns (uint256) {\r\n        return requests.length;\r\n    }\r\n\r\n    function isDonor() public view returns (bool) {\r\n        return approvers[msg.sender];\r\n    }\r\n}\r\n",
  "sourcePath": "G:\\NodejsProjects\\BE-Project\\Make-A-Difference\\contracts\\Fundraiser.sol",
  "compiler": {
    "name": "solc",
    "version": "0.8.9+commit.e5eed63a.Emscripten.clang"
  },
  "schemaVersion": "3.4.4",
  "updatedAt": "2022-03-15T16:23:51.195Z",
  "devdoc": {
    "kind": "dev",
    "methods": {
      "owner()": {
        "details": "Returns the address of the current owner."
      },
      "renounceOwnership()": {
        "details": "Leaves the contract without owner. It will not be possible to call `onlyOwner` functions anymore. Can only be called by the current owner. NOTE: Renouncing ownership will leave the contract without an owner, thereby removing any functionality that is only available to the owner."
      },
      "transferOwnership(address)": {
        "details": "Transfers ownership of the contract to a new account (`newOwner`). Can only be called by the current owner."
      }
    },
    "version": 1
  },
  "userdoc": {
    "kind": "user",
    "methods": {},
    "version": 1
  }
}