{
  "contractName": "Request",
  "abi": [
    {
      "inputs": [
        {
          "internalType": "string",
          "name": "_description",
          "type": "string"
        },
        {
          "internalType": "uint256",
          "name": "_value",
          "type": "uint256"
        },
        {
          "internalType": "address payable",
          "name": "_recipient",
          "type": "address"
        }
      ],
      "stateMutability": "nonpayable",
      "type": "constructor"
    },
    {
      "inputs": [],
      "name": "approvalCount",
      "outputs": [
        {
          "internalType": "uint256",
          "name": "",
          "type": "uint256"
        }
      ],
      "stateMutability": "view",
      "type": "function"
    },
    {
      "inputs": [
        {
          "internalType": "address",
          "name": "",
          "type": "address"
        }
      ],
      "name": "approvals",
      "outputs": [
        {
          "internalType": "bool",
          "name": "",
          "type": "bool"
        }
      ],
      "stateMutability": "view",
      "type": "function"
    },
    {
      "inputs": [],
      "name": "complete",
      "outputs": [
        {
          "internalType": "bool",
          "name": "",
          "type": "bool"
        }
      ],
      "stateMutability": "view",
      "type": "function"
    },
    {
      "inputs": [],
      "name": "recipient",
      "outputs": [
        {
          "internalType": "address payable",
          "name": "",
          "type": "address"
        }
      ],
      "stateMutability": "view",
      "type": "function"
    },
    {
      "inputs": [],
      "name": "value",
      "outputs": [
        {
          "internalType": "uint256",
          "name": "",
          "type": "uint256"
        }
      ],
      "stateMutability": "view",
      "type": "function"
    },
    {
      "inputs": [
        {
          "internalType": "address",
          "name": "_address",
          "type": "address"
        }
      ],
      "name": "hasApproved",
      "outputs": [
        {
          "internalType": "bool",
          "name": "",
          "type": "bool"
        }
      ],
      "stateMutability": "view",
      "type": "function"
    },
    {
      "inputs": [
        {
          "internalType": "address",
          "name": "_address",
          "type": "address"
        }
      ],
      "name": "approve",
      "outputs": [],
      "stateMutability": "nonpayable",
      "type": "function"
    },
    {
      "inputs": [
        {
          "internalType": "address",
          "name": "_address",
          "type": "address"
        }
      ],
      "name": "reject",
      "outputs": [],
      "stateMutability": "nonpayable",
      "type": "function"
    },
    {
      "inputs": [],
      "name": "completeRequest",
      "outputs": [],
      "stateMutability": "nonpayable",
      "type": "function"
    }
  ],
  "bytecode": "0x60806040523480156200001157600080fd5b50604051620009fd380380620009fd8339818101604052810190620000379190620003b9565b82600090805190602001906200004f929190620000cc565b508160018190555080600260006101000a81548173ffffffffffffffffffffffffffffffffffffffff021916908373ffffffffffffffffffffffffffffffffffffffff1602179055506000600260146101000a81548160ff0219169083151502179055506000600381905550600060048190555050505062000499565b828054620000da9062000463565b90600052602060002090601f016020900481019282620000fe57600085556200014a565b82601f106200011957805160ff19168380011785556200014a565b828001600101855582156200014a579182015b82811115620001495782518255916020019190600101906200012c565b5b5090506200015991906200015d565b5090565b5b80821115620001785760008160009055506001016200015e565b5090565b6000604051905090565b600080fd5b600080fd5b600080fd5b600080fd5b6000601f19601f8301169050919050565b7f4e487b7100000000000000000000000000000000000000000000000000000000600052604160045260246000fd5b620001e5826200019a565b810181811067ffffffffffffffff82111715620002075762000206620001ab565b5b80604052505050565b60006200021c6200017c565b90506200022a8282620001da565b919050565b600067ffffffffffffffff8211156200024d576200024c620001ab565b5b62000258826200019a565b9050602081019050919050565b60005b838110156200028557808201518184015260208101905062000268565b8381111562000295576000848401525b50505050565b6000620002b2620002ac846200022f565b62000210565b905082815260208101848484011115620002d157620002d062000195565b5b620002de84828562000265565b509392505050565b600082601f830112620002fe57620002fd62000190565b5b8151620003108482602086016200029b565b91505092915050565b6000819050919050565b6200032e8162000319565b81146200033a57600080fd5b50565b6000815190506200034e8162000323565b92915050565b600073ffffffffffffffffffffffffffffffffffffffff82169050919050565b6000620003818262000354565b9050919050565b620003938162000374565b81146200039f57600080fd5b50565b600081519050620003b38162000388565b92915050565b600080600060608486031215620003d557620003d462000186565b5b600084015167ffffffffffffffff811115620003f657620003f56200018b565b5b6200040486828701620002e6565b935050602062000417868287016200033d565b92505060406200042a86828701620003a2565b9150509250925092565b7f4e487b7100000000000000000000000000000000000000000000000000000000600052602260045260246000fd5b600060028204905060018216806200047c57607f821691505b6020821081141562000493576200049262000434565b5b50919050565b61055480620004a96000396000f3fe608060405234801561001057600080fd5b50600436106100935760003560e01c80636884d0a6116100665780636884d0a6146101225780639d888a1514610140578063ab0da5a91461014a578063c73992e414610166578063daea85c51461019657610093565b80633fa4f24514610098578063522e1177146100b65780635d0341ba146100d457806366d003ac14610104575b600080fd5b6100a06101b2565b6040516100ad9190610389565b60405180910390f35b6100be6101b8565b6040516100cb91906103bf565b60405180910390f35b6100ee60048036038101906100e9919061043d565b6101cb565b6040516100fb91906103bf565b60405180910390f35b61010c6101eb565b604051610119919061048b565b60405180910390f35b61012a610211565b6040516101379190610389565b60405180910390f35b610148610217565b005b610164600480360381019061015f919061043d565b610234565b005b610180600480360381019061017b919061043d565b6102a7565b60405161018d91906103bf565b60405180910390f35b6101b060048036038101906101ab919061043d565b6102fd565b005b60015481565b600260149054906101000a900460ff1681565b60056020528060005260406000206000915054906101000a900460ff1681565b600260009054906101000a900473ffffffffffffffffffffffffffffffffffffffff1681565b60035481565b6001600260146101000a81548160ff021916908315150217905550565b6000600560008373ffffffffffffffffffffffffffffffffffffffff1673ffffffffffffffffffffffffffffffffffffffff16815260200190815260200160002060006101000a81548160ff0219169083151502179055506004600081548092919061029f906104d5565b919050555050565b6000600560008373ffffffffffffffffffffffffffffffffffffffff1673ffffffffffffffffffffffffffffffffffffffff16815260200190815260200160002060009054906101000a900460ff169050919050565b6001600560008373ffffffffffffffffffffffffffffffffffffffff1673ffffffffffffffffffffffffffffffffffffffff16815260200190815260200160002060006101000a81548160ff02191690831515021790555060036000815480929190610368906104d5565b919050555050565b6000819050919050565b61038381610370565b82525050565b600060208201905061039e600083018461037a565b92915050565b60008115159050919050565b6103b9816103a4565b82525050565b60006020820190506103d460008301846103b0565b92915050565b600080fd5b600073ffffffffffffffffffffffffffffffffffffffff82169050919050565b600061040a826103df565b9050919050565b61041a816103ff565b811461042557600080fd5b50565b60008135905061043781610411565b92915050565b600060208284031215610453576104526103da565b5b600061046184828501610428565b91505092915050565b6000610475826103df565b9050919050565b6104858161046a565b82525050565b60006020820190506104a0600083018461047c565b92915050565b7f4e487b7100000000000000000000000000000000000000000000000000000000600052601160045260246000fd5b60006104e082610370565b91507fffffffffffffffffffffffffffffffffffffffffffffffffffffffffffffffff821415610513576105126104a6565b5b60018201905091905056fea26469706673582212203cadc46a95e5d02cf7b68f0e78bcc95260afac1a9feb6f13229bf4ac1fcfe98d64736f6c63430008090033",
  "immutableReferences": {},
  "source": "// SPDX-License-Identifier: UNLICENSED\r\n\r\npragma solidity 0.8.9;\r\n\r\ncontract Request {\r\n    string description;\r\n    uint256 public value;\r\n    address payable public recipient;\r\n    bool public complete;\r\n    uint256 public approvalCount;\r\n    uint256 rejectionCount;\r\n    mapping(address => bool) public approvals;\r\n\r\n    constructor(\r\n        string memory _description,\r\n        uint256 _value,\r\n        address payable _recipient\r\n    ) public {\r\n        description = _description;\r\n        value = _value;\r\n        recipient = _recipient;\r\n        complete = false;\r\n        approvalCount = 0;\r\n        rejectionCount = 0;\r\n    }\r\n\r\n    function hasApproved(address _address) public view returns (bool) {\r\n        return approvals[_address];\r\n    }\r\n\r\n    function approve(address _address) public {\r\n        approvals[_address] = true;\r\n        approvalCount++;\r\n    }\r\n\r\n    function reject(address _address) public {\r\n        approvals[_address] = false;\r\n        rejectionCount++;\r\n    }\r\n\r\n    function completeRequest() public {\r\n        complete = true;\r\n    }\r\n}\r\n",
  "sourcePath": "C:\\Users\\ads73\\OneDrive\\Desktop\\All Folders\\Workspaces\\DAPP\\Make-A-Difference\\contracts\\Request.sol",
  "compiler": {
    "name": "solc",
    "version": "0.8.9+commit.e5eed63a.Emscripten.clang"
  },
  "schemaVersion": "3.4.5",
  "updatedAt": "2022-04-14T04:14:43.370Z",
  "devdoc": {
    "kind": "dev",
    "methods": {},
    "version": 1
  },
  "userdoc": {
    "kind": "user",
    "methods": {},
    "version": 1
  }
}